:100000000C945A000C944E010C9498010C947700B7
:100010000C9477000C94E2010C9477000C94770018
:100020000C9477000C9477000C9477000C94770074
:100030000C9477000C9477000C9477000C94770064
:100040000C9477000C9477000C9443020C94770086
:100050000C9477000C9477000C9477000C94770044
:100060000C9479000C947700D000F400D500F400D3
:10007000E500F400EA00F400E000F400EF00F40012
:10008000FA00FA00FA00FA00FA00FA00FA00FA00A0
:10009000E500F400EA00F400EF00F400454647658F
:1000A000666700202B2D2E30313233343536373809
:1000B0003968000011241FBECFEFD8E0DEBFCDBFEE
:1000C00011E0A0E0B1E0EEE6F3E102C005900D9290
:1000D000A031B107D9F721E0A0E1B1E001C01D9244
:1000E000AF39B207E1F70E944D030C94B5090C94A7
:1000F00000001F920F920FB60F9211248F939F93BF
:10010000AF93BF93EF93FF938091B900887F8038BE
:1001100079F048F4803609F078C085EC8093BC0013
:10012000109229017AC0883A71F1883B61F16DC063
:1001300080912901882341F08F3F09F05DC08091B3
:10014000BB008093280158C08091BB008093290197
:1001500080912901853019F481E080931D018091FF
:100160002901873019F481E080931B0180912901D6
:10017000893019F481E080931C018091290181501C
:100180008093290135C0E09129018E2F90E0FC0178
:100190003197EA31F10570F5EC5CFF4F0C94EA06FB
:1001A000809126019091270104C0809124019091B3
:1001B000250180931601909317019093BB0018C0FE
:1001C0008091190190911A01F4CF809122019091B0
:1001D0002301EFCF80911E0190911F01EACF809102
:1001E000200190912101E5CF809116018093BB0001
:1001F00085EC03C01092BB0085E88093BC00809121
:1002000029018F5F8093290108C08091BC008B7EFB
:100210008093BC0085EC8093BC00FF91EF91BF916F
:10022000AF919F918F910F900FBE0F901F901895D7
:1002300093E890937A0080937C0080917C008064A6
:1002400080937C0080917A00806480937A00809112
:100250007A0086FDFCCF809178009091790025E0AE
:1002600080E090E030917A00306430937A003091F1
:100270007A0036FDFCCF4091780050917900840FD0
:10028000951F215079F720917A002F7720937A00DB
:1002900065E070E00E94B706CB0108951F920F92AF
:1002A0000FB60F9211242F933F934F935F936F9349
:1002B0007F938F939F93AF93BF93EF93FF9360913F
:1002C0008400709185004A9B05C07093150160936E
:1002D00014011DC08091140190911501681B790BC8
:1002E00080E090E00E94BC0527EE3CE840E350E44B
:1002F0000E944A0620E030E040E05FE30E942105D2
:100300000E948D057093230160932201E898FF916C
:10031000EF91BF91AF919F918F917F916F915F917D
:100320004F913F912F910F900FBE0F901F901895F6
:100330001F920F920FB60F9211242F933F934F935A
:100340005F936F937F938F939F93AF93BF93EF933D
:10035000FF9360918400709185004B9B05C0709362
:100360001301609312011DC080911201909113013D
:10037000681B790B80E090E00E94BC0527EE3CE80A
:1003800040E350E40E944A0620E030E040E05FE3B2
:100390000E9421050E948D0570931F0160931E012C
:1003A000E998FF91EF91BF91AF919F918F917F91CC
:1003B0006F915F914F913F912F910F900FBE0F90D2
:1003C0001F9018951F920F920FB60F9211242F9322
:1003D0003F934F935F936F937F938F939F93AF93CD
:1003E000BF93EF93FF93CF93DF931F92CDB7DEB709
:1003F00089B1898390911801892784FF2DC060916C
:10040000840070918500898184FF05C0709311017B
:100410006093100121C08091100190911101681B1F
:10042000790B80E090E00E94BC0527EE3CE840E3B9
:1004300050E40E944A0620E030E040E05FE30E9482
:1004400021050E948D057093210160932001809108
:100450006D008F7E80936D008981809318010F90CD
:10046000DF91CF91FF91EF91BF91AF919F918F91CC
:100470007F916F915F914F913F912F910F900FBEA0
:100480000F901F9018951F920F920FB60F92112484
:100490008F939F93EF93FF938091C00087FF17C0C6
:1004A000E0912C01F0912D018091C600808381E0C4
:1004B000E139F80730F43196F0932D01E0932C01E7
:1004C00006C08EE291E090932D0180932C01FF9164
:1004D000EF919F918F910F900FBE0F901F901895E5
:1004E0009C01E1ECF0E080818861808380818068FC
:1004F0008083E2ECF0E0808186608083C901A0E027
:10050000B0E09C01AD0184E0220F331F441F551F52
:100510008A95D1F760E074E284EF90E00E94CB0608
:10052000DA01C9010197A109B109892F9A2FAB2FCF
:10053000BB27A7FDBA958093C50021502093C40026
:100540008EE291E090932B0180932A0190932D01EC
:1005500080932C0108952091C00025FFFCCFFC0161
:1005600080818093C6000895CF93DF931F92CDB70B
:10057000DEB78983CE0101960E94AB0280E090E055
:100580000F90DF91CF910895CF93DF93EC01CE01CF
:100590002196FC012081222319F00E94AB02F7CFA3
:1005A000DF91CF9108958091C00087FFFCCF8091AB
:1005B000C60090E008950C94D3026BED72E084EBDA
:1005C00092E00C945407CF93DF93FC01E253FF4F6A
:1005D000A081B181EC01C453DF4F28813981A2177A
:1005E000B307B9F02091C00025FF13C02C912093D0
:1005F000C60020813181AC0145535F4F2417350778
:1006000018F42F5F3F4F03C09C0128593F4F31839F
:100610002083E0912A01F0912B0120912C0130914F
:100620002D012E173F07B1F1EC01CC59DF4FA88106
:10063000B98120812C93688179819C012B523F4F95
:10064000D9013C91DB012C91321307C0AC014C5213
:100650005F4FDA012C912F5F2C939C012D593F4F56
:100660006217730728F4DB011196B983A88302C0CF
:1006700099838883B1E0E139FB0730F43196F09338
:100680002B01E0932A0106C08EE291E090932B01AA
:1006900080932A01DF91CF9108951092280180E87C
:1006A00095E20E9470020E94DD0282E58093BA000A
:1006B0008091BC008B7E8093BC0085EC8093BC0055
:1006C0001092800084E08093810095E0909369000F
:1006D0008093680086E091E00E94D70783B7817F0E
:1006E00083BF7894C0E0D8E180912901833081F004
:1006F00050F4813089F580E00E9418019093270121
:100700008093260129C0893059F08F3FF1F024C031
:1007100081E00E94180190932501809324011CC060
:1007200082E00E941801BC0180E090E00E94BC05BC
:1007300028E431EE4AEB5FE30E944A060E948D05F1
:1007400070931A016093190107C080912801853ABE
:1007500019F4F894FE01099580911D01882391F008
:1007600010921D011092230110922201529A5A9A5E
:10077000F5E3FA95F1F700005A9852988CB381701E
:100780008CBBE89A80911B01882391F010921B0189
:1007900010921F0110921E01539A5B9A85E38A956D
:1007A000F1F700005B9853988CB382708CBBE99A88
:1007B00080911C018823B1F010921C01109221013C
:1007C00010922001549A5C9AE5E3EA95F1F7000053
:1007D0005C98549889B18093180180916D00806174
:1007E00080936D0083B7816083BF889583B78E7FC8
:1007F00083BF7ACFACE0B0E0E0E0F4E00C94F40624
:100800006C015B017A01FC0117821682838181FFF2
:100810000EC1CE0101964C01F6010381F50103FDE5
:10082000159103FF11915F01112309F4FCC01532EA
:1008300049F403FD159103FF11915F01153211F089
:1008400020E01BC0B601812F90E00E949F07370176
:100850007301E2CF112309F4E6C0612F70E083EA4F
:1008600090E02C870E9449072C85892B49F0F501DF
:1008700003FD159103FF11915F0127FFEBCF09C025
:10088000133229F01C3609F0D5C02068F0CF20E1E2
:10089000EECF022F112309F4C6C0612F70E08CE95E
:1008A00090E02C870E9449072C85892B41F0370165
:1008B000F4E06F0E711CB6018FE390E011C01336A7
:1008C00039F0133781F0133519F5022F01600BC091
:1008D000370182E0680E711CB601F70180819181B9
:1008E0000E949F07B5CF3701F2E06F0E711CF70130
:1008F000E080F180F70100FD859100FF81917F018B
:10090000882309F4A5CFB60190E00E949F07F2CF9B
:10091000143611F0193629F5370127FF09C0F4E024
:100920006F0E711CF70160817181828193810AC011
:10093000F2E06F0E711CF70160817181072E000CCF
:10094000880B990B022F0F7E97FF08C0909580951A
:10095000709561957F4F8F4F9F4F00642AE030E084
:1009600033C0103799F040F41835B1F01F3609F054
:100970005AC028E030E014C0153719F0183741F09C
:1009800052C0022F0F7E2AE030E00AC0022F006121
:10099000046220E130E004C0022F046020E132E074
:1009A000370107FF09C0F4E06F0E711CF701608189
:1009B00071818281938108C0F2E06F0E711CF70192
:1009C0006081718180E090E0A4010E940708182FE7
:1009D000181906FF05C0B6018DE290E00E949F073E
:1009E00004FF15C0FE01E10FF11D8081803379F015
:1009F000B60180E390E00E949F0702FF08C00072EA
:100A0000802F90E0B601885A9F4F0E949F07115097
:100A1000F401E10FF11D8081B60190E00E949F0773
:100A20001111F5CF15CFF6018681978105C08FEFA3
:100A30009FEF02C0022F31CF2C96EEE00C941007EE
:100A40005058BB27AA270E9438050C9410060E9414
:100A5000020638F00E94090620F039F49F3F19F48D
:100A600026F40C94FF050EF4E095E7FB0C94F905D1
:100A7000E92F0E94210658F3BA176207730784070B
:100A8000950720F079F4A6F50C9443060EF4E09552
:100A90000B2EBA2FA02D0B01B90190010C01CA0138
:100AA000A0011124FF27591B99F0593F50F4503EE3
:100AB00068F11A16F040A22F232F342F4427585FD5
:100AC000F3CF469537952795A795F0405395C9F7ED
:100AD0007EF41F16BA0B620B730B840BBAF09150A5
:100AE000A1F0FF0FBB1F661F771F881FC2F70EC044
:100AF000BA0F621F731F841F48F487957795679517
:100B0000B795F7959E3F08F0B0CF9395880F08F002
:100B10009927EE0F9795879508950E94290688F0EA
:100B20009F5798F0B92F9927B751B0F0E1F0660FB1
:100B3000771F881F991F1AF0BA95C9F714C0B130F2
:100B400091F00E944306B1E008950C944306672F8C
:100B5000782F8827B85F39F0B93FCCF38695779521
:100B60006795B395D9F73EF490958095709561950A
:100B70007F4F8F4F9F4F0895E89409C097FB3EF435
:100B800090958095709561957F4F8F4F9F4F9923DA
:100B9000A9F0F92F96E9BB279395F6958795779558
:100BA0006795B795F111F8CFFAF4BB0F11F460FF18
:100BB0001BC06F5F7F4F8F4F9F4F16C0882311F070
:100BC00096E911C0772321F09EE8872F762F05C084
:100BD000662371F096E8862F70E060E02AF09A951F
:100BE000660F771F881FDAF7880F9695879597F914
:100BF000089597F99F6780E870E060E008959FEF9F
:100C000080EC089500240A941616170618060906A3
:100C1000089500240A941216130614060506089572
:100C2000092E0394000C11F4882352F0BB0F40F4FA
:100C3000BF2B11F460FF04C06F5F7F4F8F4F9F4F3A
:100C4000089557FD9058440F551F59F05F3F71F0BC
:100C50004795880F97FB991F61F09F3F79F0879523
:100C60000895121613061406551FF2CF4695F1DFAC
:100C700008C0161617061806991FF1CF869571053C
:100C8000610508940895E894BB2766277727CB0170
:100C900097F908950E945D060C9410060E940206C2
:100CA00038F00E94090620F0952311F00C94F90504
:100CB0000C94FF0511240C9444060E94210670F345
:100CC000959FC1F3950F50E0551F629FF001729FF1
:100CD000BB27F00DB11D639FAA27F00DB11DAA1F00
:100CE000649F6627B00DA11D661F829F2227B00D4D
:100CF000A11D621F739FB00DA11D621F839FA00DD8
:100D0000611D221F749F3327A00D611D231F849F27
:100D1000600D211D822F762F6A2F11249F5750407E
:100D20009AF0F1F088234AF0EE0FFF1FBB1F661FF9
:100D3000771F881F91505040A9F79E3F510580F0C2
:100D40000C94F9050C9444065F3FE4F3983ED4F309
:100D5000869577956795B795F795E7959F5FC1F766
:100D6000FE2B880F911D9695879597F90895AA1BDC
:100D7000BB1B51E107C0AA1FBB1FA617B70710F086
:100D8000A61BB70B881F991F5A95A9F780959095B8
:100D9000BC01CD010895052E97FB1EF400940E941E
:100DA000E20657FD07D00E94270707FC03D04EF448
:100DB0000C94E20650954095309521953F4F4F4F4A
:100DC0005F4F089590958095709561957F4F8F4FF7
:100DD0009F4F0895EE0FFF1F0590F491E02D0994A9
:100DE0002F923F924F925F926F927F928F929F923B
:100DF000AF92BF92CF92DF92EF92FF920F931F9329
:100E0000CF93DF93CDB7DEB7CA1BDB0B0FB6F894D9
:100E1000DEBF0FBECDBF09942A88398848885F8419
:100E20006E847D848C849B84AA84B984C884DF808A
:100E3000EE80FD800C811B81AA81B981CE0FD11D6E
:100E40000FB6F894DEBF0FBECDBFED010895A1E24D
:100E50001A2EAA1BBB1BFD010DC0AA1FBB1FEE1F34
:100E6000FF1FA217B307E407F50720F0A21BB30B7F
:100E7000E40BF50B661F771F881F991F1A9469F7FB
:100E800060957095809590959B01AC01BD01CF0157
:100E90000895FC010590061621F00020D9F7C00145
:100EA00008953197CF0108950F931F93CF93DF9348
:100EB000009731F46115710519F480E090E03AC0B3
:100EC0008B01EC016EE070E081E090E00E9465082B
:100ED000FC01892B91F380E883830115110571F0E2
:100EE0001387028781E88383809195019091960111
:100EF000892B21F4F0939601E09395012097C9F096
:100F0000D187C0878381826083838091970190918C
:100F10009801892B71F4F0939801E09397018091E7
:100F2000990190919A01892B21F4F0939A01E09311
:100F30009901CF01DF91CF911F910F9108950F93E8
:100F40001F93CF93DF93FB01238121FD03C08FEF1C
:100F50009FEF28C022FF16C046815781248135812A
:100F60004217530744F4A081B1819D012F5F3F4F89
:100F7000318320838C93268137812F5F3F4F3783C6
:100F8000268310C0EB01092F182F0084F185E02D76
:100F90000995892BE1F68E819F8101969F838E832F
:100FA000812F902FDF91CF911F910F9108950F9373
:100FB0001F93CF93DF93E0919701F09198012381E4
:100FC00021FF1BC08C01D0E0C0E0F80181918F01AE
:100FD0006091970170919801DB011896ED91FC9159
:100FE0001997882331F00995892B79F3DFEFCFEF3B
:100FF000ECCF8AE00995892B19F08FEF9FEF02C0A3
:101000008D2F9C2FDF91CF911F910F910895FA01A1
:10101000AA27283051F1203181F1E8946F936E7F37
:101020006E5F7F4F8F4F9F4FAF4FB1E03ED0B4E028
:101030003CD0670F781F891F9A1FA11D680F791F69
:101040008A1F911DA11D6A0F711D811D911DA11D7A
:1010500020D009F468943F912AE0269F112430198A
:10106000305D3193DEF6CF010895462F4770405D25
:101070004193B3E00FD0C9F7F6CF462F4F70405DD4
:101080004A3318F0495D31FD4052419302D0A9F72F
:10109000EACFB4E0A6959795879577956795BA9529
:1010A000C9F700976105710508959B01AC010A2EEF
:1010B00006945795479537952795BA95C9F7620FC6
:1010C000731F841F951FA01D08950F931F93CF9327
:1010D000DF93869F8001879F100D969F100D11242E
:1010E000C8010E948108EC01009729F0A80160E086
:1010F00070E00E94AE09CE01DF91CF911F910F9158
:101100000895CF93DF938230910510F482E090E050
:10111000E0919D01F0919E0120E030E0C0E0D0E040
:10112000309711F14081518148175907C0F0481795
:10113000590761F482819381209719F09B838A83F8
:101140002BC090939E0180939D0126C021153105EF
:1011500019F04217530718F49A01BE01DF01EF019D
:101160000280F381E02DDCCF2115310509F1281B28
:10117000390B2430310590F412968D919C91139780
:101180006115710521F0FB019383828304C0909364
:101190009E0180939D01FD01329644C0FD01E20F46
:1011A000F31F81939193225031092D933C933AC0C0
:1011B00020919B0130919C01232B41F4209102014D
:1011C0003091030130939C0120939B0120910001F9
:1011D000309101012115310541F42DB73EB7409101
:1011E000040150910501241B350BE0919B01F09106
:1011F0009C01E217F307A0F42E1B3F0B28173907B9
:1012000078F0AC014E5F5F4F2417350748F04E0F62
:101210005F1F50939C0140939B018193919302C067
:10122000E0E0F0E0CF01DF91CF9108950F931F939D
:10123000CF93DF93009709F48CC0FC01329713829F
:10124000128200919D0110919E010115110581F4FA
:1012500020813181820F931F20919B0130919C014D
:101260002817390779F5F0939C01E0939B0171C031
:10127000D80140E050E0AE17BF0750F412962D9110
:101280003C911397AD012115310509F1D901F3CF37
:101290009D01DA013383228360817181860F971F5C
:1012A0008217930769F4EC0128813981260F371FD3
:1012B0002E5F3F4F318320838A819B81938382837A
:1012C000452B29F4F0939E01E0939D0142C01396B3
:1012D000FC93EE931297ED01499159919E01240FD1
:1012E000351FE217F30771F480819181840F951FF8
:1012F000029611969C938E938281938113969C9370
:101300008E931297E0E0F0E0D80112968D919C91B7
:101310001397009719F0F8018C01F6CF8D919C91ED
:1013200098012E5F3F4F820F931F20919B013091B8
:101330009C012817390769F4309729F410929E010F
:1013400010929D0102C01382128210939C0100939F
:101350009B01DF91CF911F910F910895DC0101C096
:0E1360006D9341505040E0F70895F894FFCF90
:10136E0000009F0120000D0A53746172740D00007D
:00000001FF
