:100000000C944A000C9431010C947C010C94670010
:100010000C9467000C9467000C9467000C946700C4
:100020000C9467000C9467000C9467000C946700B4
:100030000C9467000C9467000C9467000C946700A4
:100040000C9467000C9467000C94C7010C94670033
:100050000C9467000C9467000C9467000C94670084
:100060000C9469000C946700B800D700BD00D7005D
:10007000C800D700CD00D700D200D700454647655D
:10008000666700202B2D2E30313233343536373829
:100090003968000011241FBECFEFD8E0DEBFCDBF0E
:1000A00011E0A0E0B1E0E8ECF1E102C005900D92B2
:1000B000A031B107D9F721E0A0E1B1E001C01D9264
:1000C000A939B207E1F70E94D0020C94E2080C941F
:1000D00000001F920F920FB60F9211248F939F93DF
:1000E000AF93BF93EF93FF938091B900887F8038DF
:1000F00079F048F4803609F06BC085EC8093BC0041
:10010000109223016DC0883A39F1883B29F160C013
:1001100080912301882341F08F3F09F050C08091E6
:10012000BB00809322014BC08091BB0080932301D0
:1001300080912301853019F481E080931901809129
:100140002301873019F481E0809318018091230105
:100150008150809323012FC08091230190E0FC0106
:100160003197EA30F10548F5EC5CFF4F0C945D06E1
:10017000809120019091210104C080911E019091F5
:100180001F0180931401909315019093BB0013C03D
:1001900080911C0190911D01F4CF80911A019091E2
:1001A0001B01EFCF8091160190911701EACF80914A
:1001B00014018093BB0085EC03C01092BB0085E85E
:1001C0008093BC00809123018F5F8093230108C03E
:1001D0008091BC008B7E8093BC0085EC8093BC003A
:1001E000FF91EF91BF91AF919F918F910F900FBEB3
:1001F0000F901F90189593E890937A0080937C005D
:1002000080917C00806480937C0080917A0080647F
:1002100080937A0080917A0086FDFCCF80917800EF
:100220009091790045E080E090E020917A00206490
:1002300020937A0020917A0026FDFCCF209178004F
:1002400030917900820F931F415079F720917A0005
:100250002F7720937A0065E070E00E942A06CB0198
:1002600008951F920F920FB60F9211242F933F9370
:100270004F935F936F937F938F939F93AF93BF93AE
:10028000EF93FF9380918400909185004A9B05C075
:1002900090931301809312011EC02091120130919E
:1002A0001301BC01621B730B80E090E00E943905D2
:1002B00027EE3CE840E350E40E94C70520E030E030
:1002C00040E05FE30E94A9040E940D0570931D01A8
:1002D00060931C01E89AFF91EF91BF91AF919F91BC
:1002E0008F917F916F915F914F913F912F910F90DF
:1002F0000FBE0F901F9018951F920F920FB60F927E
:1003000011242F933F934F935F936F937F938F931A
:100310009F93AF93BF93EF93FF938091840090914D
:1003200085004B9B05C090931101809310011EC066
:100330002091100130911101BC01621B730B80E010
:1003400090E00E94390527EE3CE840E350E40E942B
:10035000C70520E030E040E05FE30E94A9040E946E
:100360000D0570931B0160931A01E99AFF91EF91BB
:10037000BF91AF919F918F917F916F915F914F91BD
:100380003F912F910F900FBE0F901F9018951F92C5
:100390000F920FB60F9211248F939F93EF93FF93B9
:1003A0008091C00087FF17C0E0912601F0912701DE
:1003B0008091C600808381E0EB38F80730F43196F5
:1003C000F0932701E093260106C088E291E0909324
:1003D000270180932601FF91EF919F918F910F90BC
:1003E0000FBE0F901F9018959C01E1ECF0E080810A
:1003F00088618083808180688083E2ECF0E0808186
:100400008660808340E050E084E0220F331F441F69
:10041000551F8A95D1F760E074E284EF90E00E9466
:100420003E06DA01C9010197A109B109892F9A2F66
:10043000AB2FBB27A7FDBA958093C5002150209311
:10044000C40088E291E09093250180932401909369
:1004500027018093260108952091C00025FFFCCF3D
:10046000FC0180818093C6000895CF93DF931F9293
:10047000CDB7DEB78983CE0101960E942C0280E0C1
:1004800090E00F90DF91CF910895CF93DF93EC012F
:10049000CE012196FC012081222319F00E942C021A
:1004A000F7CFDF91CF9108958091C00087FFFCCFF7
:1004B0008091C60090E008950C9454026CE572E0BF
:1004C00085E392E00C949006CF93DF93FC01E25316
:1004D000FF4FA081B181EC01C453DF4F28813981E6
:1004E000A217B307B9F02091C00025FF13C02C91CB
:1004F0002093C60020813181AC0145535F4F241702
:10050000350718F42F5F3F4F03C09C0128593F4F18
:1005100031832083E0912401F0912501209126016F
:10052000309127012E173F07C1F1DC01AC59BF4FB5
:10053000CD91DC911197208128836D917C91119749
:100540009C012B523F4FE9013881EB012881321386
:1005500007C09C012C523F4FE90148814F5F4883FF
:100560009C012D593F4F6217730728F4EB01219628
:10057000CD93DC9302C08D939C93D1E0EB38FD07C3
:1005800030F43196F0932501E093240106C088E20F
:1005900091E09093250180932401DF91CF910895FC
:1005A0001092220180E895E20E94F4010E945E020E
:1005B00082E58093BA008091BC008B7E8093BC0062
:1005C00085EC8093BC001092800084E080938100D1
:1005D00085E08093690086E091E00E940D0783B773
:1005E000817F83BF7894C0E0D8E18091230183307C
:1005F00081F050F4813089F580E00E94FB009093F7
:1006000021018093200129C0893059F08F3FF1F0FA
:1006100024C081E00E94FB0090931F0180931E0183
:100620001CC082E00E94FB00BC0180E090E00E94C0
:10063000390528E431EE4AEB5FE30E94C7050E94CA
:100640000D05709317016093160107C08091220178
:10065000853A19F4F894FE010995809119018823CF
:1006600079F01092190110921D0110921C01529AFA
:100670005A9AF5E3FA95F1F700005A985298E89AD9
:1006800080911801882379F01092180110921B01B3
:1006900010921A01539A5B9A85E38A95F1F700004C
:1006A0005B985398E99A83B7816083BF889583B735
:1006B0008E7F83BF9ACF6F927F929F92AF92BF92AD
:1006C000CF92DF92EF92FF920F931F93CF93DF931E
:1006D000CDB7DEB72C970FB6F894DEBF0FBECDBFF7
:1006E0008C017B013A01FC0117821682838181FF14
:1006F00019C1CE0101965C01F801D380F701D3FC4A
:100700002591D3FE21917F01222309F407C12532CF
:1007100049F4D3FC2591D3FE21917F01253211F0BC
:10072000912C1BC0B801822F90E00E94DB06630170
:100730003601E2CF222309F4F1C0622F70E083E892
:1007400090E02C870E9485062C85892B49F0F701C3
:10075000D3FC2591D3FE21917F0197FEEBCF0CC0F6
:10076000233221F4F92DF0619F2EF1CF2C3639F48C
:10077000292D2068922EEBCF222309F4CFC0622FBF
:1007800070E08CE790E02C870E9485062C85892BF1
:1007900041F06301F4E0CF0ED11CB8018FE390E08B
:1007A00012C0233641F0233789F0233521F5F92D86
:1007B000F1609F2E0BC0630122E0C20ED11CB80174
:1007C000F301808191810E94DB06B2CF630122E0B8
:1007D000C20ED11CF30160807180F30190FC859101
:1007E00090FE81913F01882309F4A2CFB80190E0E7
:1007F0000E94DB06F2CF243611F0293639F5630169
:1008000097FE09C0F4E0CF0ED11CF3016081718125
:10081000828193810AC0F2E0CF0ED11CF301608186
:100820007181882777FD8095982FF92DFF7E9F2E67
:1008300097FF09C090958095709561957F4F8F4F78
:100840009F4FF0649F2E2AE030E038C02037A1F09F
:1008500040F42835D1F02F3609F060C028E030E0B0
:1008600019C0253719F0283751F058C0292D2F7E8F
:10087000922E2AE030E00EC0892D8061982E992DAD
:100880009462992E20E130E005C0E92DE4609E2EAF
:1008900020E132E0630197FE09C0F4E0CF0ED11CE5
:1008A000F301608171818281938108C0F2E0CF0EF3
:1008B000D11CF3016081718180E090E0A5010E946C
:1008C0003A07782E7A1896FE05C0B8018DE290E0BE
:1008D0000E94DB0694FE16C0FE01E70DF11D80812B
:1008E000803381F0B80180E390E00E94DB0692FE45
:1008F00009C0292D2072822F90E0B801885A9F4F9D
:100900000E94DB067A94F501E70DF11D8081B801A4
:1009100090E00E94DB067110F5CF0ACFF8018681C6
:10092000978102C08FEF9FEF2C960FB6F894DEBF31
:100930000FBECDBFDF91CF911F910F91FF90EF9030
:10094000DF90CF90BF90AF909F907F906F90089571
:100950005058BB27AA270ED0E0C0D1D030F0D6D057
:1009600020F031F49F3F11F41EF4C6C00EF4E09560
:10097000E7FBBCC0E92FE2D080F3BA176207730728
:100980008407950718F071F49EF5FAC00EF4E0950F
:100990000B2EBA2FA02D0B01B90190010C01CA0139
:1009A000A0011124FF27591B99F0593F50F4503EE4
:1009B00068F11A16F040A22F232F342F4427585FD6
:1009C000F3CF469537952795A795F0405395C9F7EE
:1009D0007EF41F16BA0B620B730B840BBAF09150A6
:1009E000A1F0FF0FBB1F661F771F881FC2F70EC045
:1009F000BA0F621F731F841F48F487957795679518
:100A0000B795F7959E3F08F0B3CF9395880F08F000
:100A10009927EE0F97958795089598D088F09F575E
:100A200090F0B92F9927B751A0F0D1F0660F771F3A
:100A3000881F991F1AF0BA95C9F712C0B13081F01A
:100A40009FD0B1E008959CC0672F782F8827B85FAA
:100A500039F0B93FCCF3869577956795B395D9F77B
:100A60003EF490958095709561957F4F8F4F9F4F85
:100A70000895E89409C097FB3EF490958095709591
:100A800061957F4F8F4F9F4F9923A9F0F92F96E9DA
:100A9000BB279395F695879577956795B795F1114F
:100AA000F8CFFAF4BB0F11F460FF1BC06F5F7F4FEC
:100AB0008F4F9F4F16C0882311F096E911C07723FE
:100AC00021F09EE8872F762F05C0662371F096E807
:100AD000862F70E060E02AF09A95660F771F881FD6
:100AE000DAF7880F9695879597F9089597F99F6794
:100AF00080E870E060E008959FEF80EC08950024A6
:100B00000A941616170618060906089500240A9472
:100B100012161306140605060895092E0394000CF8
:100B200011F4882352F0BB0F40F4BF2B11F460FF87
:100B300004C06F5F7F4F8F4F9F4F089557FD9058B0
:100B4000440F551F59F05F3F71F04795880F97FB91
:100B5000991F61F09F3F79F087950895121613064B
:100B60001406551FF2CF4695F1DF08C0161617067A
:100B70001806991FF1CF86957105610508940895AF
:100B8000E894BB2766277727CB0197F908950BD008
:100B9000C4CFB5DF28F0BADF18F0952309F0A6CF4F
:100BA000ABCF1124EECFCADFA0F3959FD1F3950F01
:100BB00050E0551F629FF001729FBB27F00DB11DE1
:100BC000639FAA27F00DB11DAA1F649F6627B00D71
:100BD000A11D661F829F2227B00DA11D621F739F5A
:100BE000B00DA11D621F839FA00D611D221F749F68
:100BF0003327A00D611D231F849F600D211D822FAF
:100C0000762F6A2F11249F5750408AF0E1F08823F5
:100C10004AF0EE0FFF1FBB1F661F771F881F915002
:100C20005040A9F79E3F510570F060CFAACF5F3FBB
:100C3000ECF3983EDCF3869577956795B795F79535
:100C4000E7959F5FC1F7FE2B880F911D96958795BD
:100C500097F90895AA1BBB1B51E107C0AA1FBB1F30
:100C6000A617B70710F0A61BB70B881F991F5A9538
:100C7000A9F780959095BC01CD010895052E97FBAD
:100C80001EF400940E94550657FD07D00E9463068B
:100C900007FC03D04EF40C945506509540953095C2
:100CA00021953F4F4F4F5F4F0895909580957095D8
:100CB00061957F4F8F4F9F4F0895EE0FFF1F059057
:100CC000F491E02D0994A1E21A2EAA1BBB1BFD0191
:100CD0000DC0AA1FBB1FEE1FFF1FA217B307E4071B
:100CE000F50720F0A21BB30BE40BF50B661F771F73
:100CF000881F991F1A9469F7609570958095909553
:100D00009B01AC01BD01CF010895FC0105900616C1
:100D100021F00020D9F7C00108953197CF0108953F
:100D20000F931F93CF93DF93EC018B01009731F466
:100D30006115710519F480E090E038C06EE070E054
:100D400081E090E00E949807FC010097A1F380E801
:100D500083830115110571F01387028781E883836E
:100D600080918F0190919001892B21F4F093900153
:100D7000E0938F012097C9F0D187C087838182607B
:100D800083838091910190919201892B71F4F0936A
:100D90009201E09391018091930190919401892BAC
:100DA00021F4F0939401E0939301CF01DF91CF916F
:100DB0001F910F9108950F931F93CF93DF93182FD7
:100DC000092FEB018B8181FD03C08FEF9FEF20C0C6
:100DD00082FF10C04E815F812C813D8142175307F5
:100DE0007CF4E881F9819F012F5F3F4F398328838D
:100DF000108306C0E885F985812F0995892B29F78D
:100E00002E813F812F5F3F4F3F832E83812F902F75
:100E1000DF91CF911F910F9108950F931F93CF935F
:100E2000DF93E0919101F0919201238121FF1BC09A
:100E3000EC0100E010E089916091910170919201C4
:100E4000DB011896ED91FC911997882331F00995F3
:100E5000892B89F30FEF1FEFEECF8AE00995892BDD
:100E600011F4C80102C08FEF9FEFDF91CF911F9166
:100E70000F910895FA01AA27283051F1203181F10C
:100E8000E8946F936E7F6E5F7F4F8F4F9F4FAF4F92
:100E9000B1E03ED0B4E03CD0670F781F891F9A1FA5
:100EA000A11D680F791F8A1F911DA11D6A0F711D59
:100EB000811D911DA11D20D009F468943F912AE065
:100EC000269F11243019305D3193DEF6CF0108954D
:100ED000462F4770405D4193B3E00FD0C9F7F6CF7E
:100EE000462F4F70405D4A3318F0495D31FD405246
:100EF000419302D0A9F7EACFB4E0A69597958795DC
:100F000077956795BA95C9F70097610571050895BA
:100F10009B01AC010A2E0694579547953795279566
:100F2000BA95C9F7620F731F841F951FA01D0895FE
:100F30000F931F93CF93DF93869F8001879F100DA0
:100F4000969F100D1124C8010E94B407EC01009770
:100F500029F0A80160E070E00E94DB08CE01DF917B
:100F6000CF911F910F910895CF93DF938230910518
:100F700010F482E090E0E0919701F091980120E078
:100F800030E0A0E0B0E0309739F14081518148175E
:100F90005907B8F04817590771F482819381109767
:100FA00029F013969C938E9312972CC090939801DE
:100FB0008093970127C02115310531F0421753075F
:100FC00018F0A901DB0101C0EF019A01BD01DF01A9
:100FD0000280F381E02DD7CF21153105F9F0281BD0
:100FE000390B2430310580F48A819B8161157105AC
:100FF00021F0FB019383828304C090939801809336
:101000009701FE01329644C0FE01E20FF31F819367
:10101000919322503109398328833AC02091950158
:1010200030919601232B41F420910201309103016C
:101030003093960120939501209100013091010198
:101040002115310541F42DB73EB74091040150916F
:101050000501241B350BE0919501F0919601E217F3
:10106000F307A0F42E1B3F0B2817390778F0AC01CB
:101070004E5F5F4F2417350748F04E0F5F1F5093A8
:101080009601409395018193919302C0E0E0F0E0D6
:10109000CF01DF91CF910895CF93DF93009709F4AB
:1010A00087C0FC01329713821282C0919701D091C0
:1010B0009801209781F420813181280F391F809178
:1010C0009501909196018217930779F5F093960117
:1010D000E09395016DC0DE0120E030E0AE17BF0760
:1010E00050F412964D915C9113979D014115510555
:1010F00009F1DA01F3CFB383A28340815181840FD8
:10110000951F8A179B0771F48D919C911197840FFD
:10111000951F02969183808312968D919C911397CF
:10112000938382832115310529F4F0939801E0938C
:1011300097013EC0D9011396FC93EE9312974D91FF
:101140005D91A40FB51FEA17FB0779F480819181A7
:10115000840F951F0296D90111969C938E938281DC
:10116000938113969C938E931297E0E0F0E08A812E
:101170009B81009719F0FE01EC01F9CFCE01029698
:1011800028813981820F931F20919501309196011A
:101190002817390769F4309729F4109298011092B2
:1011A000970102C013821282D0939601C0939501D9
:1011B000DF91CF910895DC0101C06D934150504003
:0811C000E0F70895F894FFCF59
:1011C8000000990120000D0A53746172740D00002B
:00000001FF
