:100000000C9440000C945D000C945D000C945D0019
:100010000C945D000C945D000C945D000C945D00EC
:100020000C945D000C945D000C945D000C945D00DC
:100030000C945D000C945D000C945D000C945D00CC
:100040000C945D000C945D000C9401010C945D0017
:100050000C945D000C945D000C945D000C945D00AC
:100060000C945F000C945D00454647656667002070
:100070002B2D2E3031323334353637383968000085
:1000800011241FBECFEFD8E0DEBFCDBF11E0A0E04E
:10009000B1E0EEE9FCE002C005900D92A031B1079D
:1000A000D9F721E0A0E1B1E001C01D92AD38B2075F
:1000B000E1F70E940A020C944D060C9400001F9276
:1000C0000F920FB60F9211248F939F938091B900D6
:1000D000887F803879F048F4803609F04DC085EC8F
:1000E0008093BC00109217014FC0883AC1F0883B42
:1000F000B1F042C080911701882339F08F3F99F504
:100100008091BB00809316012EC08091BB0080932C
:1001100017018091170181508093170120C08091B1
:1001200017018230C1F038F48130D9F48091140184
:100130009091150109C0833019F0843061F011C02D
:1001400080911201909113018093100190931101FD
:100150009093BB0004C0809110018093BB0085EC9C
:1001600003C01092BB0085E88093BC00809117010A
:100170008F5F8093170108C08091BC008B7E8093B5
:10018000BC0085EC8093BC009F918F910F900FBEB7
:100190000F901F90189593E890937A0080937C00BD
:1001A00080917C00806C80937C0080917A008064D8
:1001B00080937A0080917A0086FDFCCF8091780050
:1001C0009091790045E080E090E020917A002064F1
:1001D00020937A0020917A0026FDFCCF20917800B0
:1001E00030917900820F931F415079F720917A0066
:1001F0002F7720937A0065E070E00E949B03CB018B
:1002000008951F920F920FB60F9211248F939F9310
:10021000EF93FF938091C00087FF17C0E0911A0110
:10022000F0911B018091C600808381E0EF37F807D1
:1002300030F43196F0931B01E0931A0106C08CE173
:1002400091E090931B0180931A01FF91EF919F9190
:100250008F910F900FBE0F901F9018959C01E1ECAD
:10026000F0E0808188618083808180688083E2EC17
:10027000F0E080818660808340E050E084E0220FDF
:10028000331F441F551F8A95D1F760E074E284EF55
:1002900090E00E94AF03DA01C9010197A109B109F9
:1002A000892F9A2FAB2FBB27A7FDBA958093C50046
:1002B00021502093C4008CE191E090931901809328
:1002C000180190931B0180931A0108952091C0009A
:1002D00025FFFCCFFC0180818093C6000895CF9359
:1002E000DF931F92CDB7DEB78983CE0101960E94BE
:1002F000660180E090E00F90DF91CF910895CF9359
:10030000DF93EC01CE012196FC012081222319F01C
:100310000E946601F7CFDF91CF9108958091C000D0
:1003200087FFFCCF8091C60090E008950C948E0169
:1003300066E971E08FE691E00C94FB03CF93DF93C5
:10034000FC01E253FF4FA081B181EC01C453DF4FA8
:1003500028813981A217B307B9F02091C00025FF89
:1003600013C02C912093C60020813181AC014553EC
:100370005F4F2417350718F42F5F3F4F03C09C01D0
:1003800028593F4F31832083E0911801F0911901E2
:1003900020911A0130911B012E173F07C1F1DC019A
:1003A000AC59BF4FCD91DC911197208128836D917D
:1003B0007C9111979C012B523F4FE9013881EB0151
:1003C0002881321307C09C012C523F4FE90148811C
:1003D0004F5F48839C012D593F4F6217730728F4E4
:1003E000EB012196CD93DC9302C08D939C93D1E0D9
:1003F000EF37FD0730F43196F0931901E0931801BF
:1004000006C08CE191E09093190180931801DF916F
:10041000CF9108951092160180E895E20E942E0176
:100420000E94980182E58093BA008091BC008B7E87
:100430008093BC0085EC8093BC0086E091E00E9434
:10044000780483B7817F83BF7894C0E0D8E180913E
:100450001701833061F08F3F91F08130B9F480E073
:100460000E94CB0090931501809314010FC081E08E
:100470000E94CB00909313018093120107C08091DA
:100480001601853A19F4F894FE01099583B7816045
:1004900083BF889583B78E7F83BFD9CF6F927F92BA
:1004A0009F92AF92BF92CF92DF92EF92FF920F9303
:1004B0001F93CF93DF93CDB7DEB72C970FB6F89489
:1004C000DEBF0FBECDBF8C017B013A01FC0117825C
:1004D0001682838181FF19C1CE0101965C01F8016A
:1004E000D380F701D3FC2591D3FE21917F012223F4
:1004F00009F407C1253249F4D3FC2591D3FE21919B
:100500007F01253211F0912C1BC0B801822F90E0A1
:100510000E94460463013601E2CF222309F4F1C0B0
:10052000622F70E08FE690E02C870E94F0032C850C
:10053000892B49F0F701D3FC2591D3FE21917F014E
:1005400097FEEBCF0CC0233221F4F92DF0619F2EE2
:10055000F1CF2C3639F4292D2068922EEBCF2223AF
:1005600009F4CFC0622F70E088E690E02C870E94EB
:10057000F0032C85892B41F06301F4E0CF0ED11CF0
:10058000B8018FE390E012C0233641F0233789F0A1
:10059000233521F5F92DF1609F2E0BC0630122E078
:1005A000C20ED11CB801F301808191810E944604E2
:1005B000B2CF630122E0C20ED11CF30160807180D2
:1005C000F30190FC859190FE81913F01882309F40D
:1005D000A2CFB80190E00E944604F2CF243611F079
:1005E000293639F5630197FE09C0F4E0CF0ED11C1E
:1005F000F30160817181828193810AC0F2E0CF0EA4
:10060000D11CF30160817181882777FD8095982F37
:10061000F92DFF7E9F2E97FF09C0909580957095CC
:1006200061957F4F8F4F9F4FF0649F2E2AE030E0FF
:1006300038C02037A1F040F42835D1F02F3609F02A
:1006400060C028E030E019C0253719F0283751F094
:1006500058C0292D2F7E922E2AE030E00EC0892D21
:100660008061982E992D9462992E20E130E005C08A
:10067000E92DE4609E2E20E132E0630197FE09C07F
:10068000F4E0CF0ED11CF3016081718182819381EE
:1006900008C0F2E0CF0ED11CF3016081718180E0CF
:1006A00090E0A5010E94A504782E7A1896FE05C058
:1006B000B8018DE290E00E94460494FE16C0FE014F
:1006C000E70DF11D8081803381F0B80180E390E077
:1006D0000E94460492FE09C0292D2072822F90E0CC
:1006E000B801885A9F4F0E9446047A94F501E70D9D
:1006F000F11D8081B80190E00E9446047110F5CF91
:100700000ACFF8018681978102C08FEF9FEF2C9668
:100710000FB6F894DEBF0FBECDBFDF91CF911F9112
:100720000F91FF90EF90DF90CF90BF90AF909F9090
:100730007F906F900895AA1BBB1B51E107C0AA1FB1
:10074000BB1FA617B70710F0A61BB70B881F991F72
:100750005A95A9F780959095BC01CD010895052E75
:1007600097FB1EF400940E94C60357FD07D00E9419
:10077000CE0307FC03D04EF40C94C603509540956D
:10078000309521953F4F4F4F5F4F0895909580953D
:10079000709561957F4F8F4F9F4F0895A1E21A2E5C
:1007A000AA1BBB1BFD010DC0AA1FBB1FEE1FFF1F15
:1007B000A217B307E407F50720F0A21BB30BE40B65
:1007C000F50B661F771F881F991F1A9469F76095AC
:1007D0007095809590959B01AC01BD01CF01089566
:1007E000FC010590061621F00020D9F7C0010895FC
:1007F0003197CF0108950F931F93CF93DF93EC01AF
:100800008B01009731F46115710519F480E090E0D7
:1008100038C06EE070E081E090E00E940305FC01CA
:100820000097A1F380E883830115110571F0138708
:10083000028781E883838091830190918401892BD1
:1008400021F4F0938401E09383012097C9F0D187CC
:10085000C087838182608383809185019091860126
:10086000892B71F4F0938601E093850180918701D3
:1008700090918801892B21F4F0938801E0938701FE
:10088000CF01DF91CF911F910F9108950F931F9387
:10089000CF93DF93182F092FEB018B8181FD03C0CC
:1008A0008FEF9FEF20C082FF10C04E815F812C81AF
:1008B0003D81421753077CF4E881F9819F012F5F46
:1008C0003F4F39832883108306C0E885F985812F3F
:1008D0000995892B29F72E813F812F5F3F4F3F8359
:1008E0002E83812F902FDF91CF911F910F9108952B
:1008F0000F931F93CF93DF93E0918501F0918601D1
:10090000238121FF1BC0EC0100E010E08991609180
:10091000850170918601DB011896ED91FC91199784
:10092000882331F00995892B89F30FEF1FEFEECF64
:100930008AE00995892B11F4C80102C08FEF9FEF5F
:10094000DF91CF911F910F910895FA01AA272830C6
:1009500051F1203181F1E8946F936E7F6E5F7F4F8C
:100960008F4F9F4FAF4FB1E03ED0B4E03CD0670F08
:10097000781F891F9A1FA11D680F791F8A1F911D5B
:10098000A11D6A0F711D811D911DA11D20D009F4AB
:1009900068943F912AE0269F11243019305D3193ED
:1009A000DEF6CF010895462F4770405D4193B3E0D6
:1009B0000FD0C9F7F6CF462F4F70405D4A3318F07D
:1009C000495D31FD4052419302D0A9F7EACFB4E02E
:1009D000A6959795879577956795BA95C9F70097E6
:1009E0006105710508959B01AC010A2E0694579587
:1009F000479537952795BA95C9F7620F731F841FDE
:100A0000951FA01D08950F931F93CF93DF93869F8B
:100A10008001879F100D969F100D1124C8010E9420
:100A20001F05EC01009729F0A80160E070E00E942A
:100A30004606CE01DF91CF911F910F910895CF937C
:100A4000DF938230910510F482E090E0E0918B0119
:100A5000F0918C0120E030E0A0E0B0E0309739F177
:100A60004081518148175907B8F04817590771F468
:100A700082819381109729F013969C938E931297FD
:100A80002CC090938C0180938B0127C021153105D8
:100A900031F04217530718F0A901DB0101C0EF0143
:100AA0009A01BD01DF010280F381E02DD7CF21152E
:100AB0003105F9F0281B390B2430310580F48A8187
:100AC0009B816115710521F0FB019383828304C032
:100AD00090938C0180938B01FE01329644C0FE01FD
:100AE000E20FF31F819391932250310939832883B8
:100AF0003AC02091890130918A01232B41F4209141
:100B000002013091030130938A01209389012091E1
:100B10000001309101012115310541F42DB73EB797
:100B20004091040150910501241B350BE09189018E
:100B3000F0918A01E217F307A0F42E1B3F0B281750
:100B4000390778F0AC014E5F5F4F2417350748F046
:100B50004E0F5F1F50938A014093890181939193B7
:100B600002C0E0E0F0E0CF01DF91CF910895CF9394
:100B7000DF93009709F487C0FC0132971382128239
:100B8000C0918B01D0918C01209781F4208131811B
:100B9000280F391F8091890190918A01821793074C
:100BA00079F5F0938A01E09389016DC0DE0120E0C0
:100BB00030E0AE17BF0750F412964D915C91139739
:100BC0009D014115510509F1DA01F3CFB383A283E9
:100BD00040815181840F951F8A179B0771F48D9175
:100BE0009C911197840F951F029691838083129692
:100BF0008D919C911397938382832115310529F45C
:100C0000F0938C01E0938B013EC0D9011396FC93C5
:100C1000EE9312974D915D91A40FB51FEA17FB0754
:100C200079F480819181840F951F0296D9011196E4
:100C30009C938E938281938113969C938E931297AB
:100C4000E0E0F0E08A819B81009719F0FE01EC0161
:100C5000F9CFCE01029628813981820F931F20910E
:100C6000890130918A012817390769F4309729F4EE
:100C700010928C0110928B0102C013821282D093C9
:100C80008A01C0938901DF91CF910895DC0101C0F1
:0E0C90006D9341505040E0F70895F894FFCF67
:100C9E0000008D0120000D0A53746172740D000066
:00000001FF
