:100000000C9445000C9462000C9462000C94620005
:100010000C9462000C9462000C9462000C946200D8
:100020000C9462000C9452040C9462000C946200D4
:100030000C9462000C942D050C9462000C946200E8
:100040000C9462000C9462000C9462000C946400A6
:100050000C94620005A84CCDB2D44EB93836A90232
:100060000C50B9918688083CA6AAAA2ABE000000B6
:10007000803F45464765666700202B2D2E30313284
:100080003334353637383968000011241FBECFE5C8
:10009000D8E0DEBFCDBF10E0A0E6B0E0EAEAF6E2CD
:1000A00002C005900D92A837B107D9F721E0A8E763
:1000B000B0E001C01D92A736B207E1F70E94220608
:1000C0000C9453130C9400001F920F920FB60F92D2
:1000D00011242F933F934F935F936F937F938F934D
:1000E0009F93AF93BF93EF93FF9381B1887F803845
:1000F00081F040F4803609F0BFC385EC86BF1092D2
:10010000E800BFC3883A09F4B7C1883B09F4B4C119
:10011000B3C38091E8008A3209F418C108F047C0DF
:10012000803209F402C138F5843009F4C1C060F4AA
:10013000813009F4FAC008F4A6C0823009F4ACC0DA
:10014000833009F4F2C090C3863009F4BDC008F4CE
:10015000ECC0873009F4E9C0883009F085C383B169
:100160002091A60090E0922B9093E0008093DF0016
:100170001092D30071C3853209F4CAC060F4823290
:1001800009F4D3C008F4ACC0833209F4B6C0843299
:1001900009F4CBC069C3873209F4CBC008F4C5C0E9
:1001A000883209F416C1893209F4D0C05DC38435A0
:1001B00009F414C1E8F58F3209F4DFC060F48C3221
:1001C00009F407C108F4D9C08D3209F4BFC08E32DA
:1001D00009F4BCC049C3813509F4B8C020F48035A6
:1001E00009F4F7C041C3823509F4B0C0833509F082
:1001F0003BC323B18091A2009091A300A091A400E1
:10020000B091A500BA2FA92F982F8827822B809311
:10021000A2009093A300A093A400B093A5008093A4
:10022000E9009093EA00A093EB00B093EC0014C3B4
:10023000813909F411C178F4863509F4D4C008F481
:10024000D2C0873509F4E6C0803909F00DC383B107
:100250008093D20001C3843909F406C150F4823975
:1002600009F4FEC0833909F0FFC283B18093CF0047
:10027000F3C2853909F4FCC08F3F09F0F5C283B1A0
:100280008093E700F1C283B18093E8008091E80099
:1002900081508093E800E0C283B12091A60090E0F5
:1002A000922B9093E6008093E5001092D600D4C282
:1002B00083B12091A60090E0922B9093E40080936C
:1002C000E3001092D500C8C283B12091A60090E04F
:1002D000922B9093E2008093E1001092D400BCC274
:1002E00083B12091A60090E0922B9093CE00809352
:1002F000CD0081E08093D600AFC283B12091A600EB
:1003000090E0922B9093CC008093CB0081E05EC074
:1003100083B12091A60090E0922B9093CA00809325
:10032000C90081E08093D40097C283B18093A60076
:1003300093C283B12091A60090E0922B9093C800C5
:100340008093C70081E08093D30086C223B180915F
:10035000A2009091A300A091A400B091A500BA2F93
:10036000A92F982F8827822B8093A2009093A30017
:10037000A093A400B093A5006FC223B18091A20006
:100380009091A300A091A400B091A5006627782FBA
:10039000892F9A2F622B6093A2007093A300809301
:1003A000A4009093A5002AE931E043E555E40E94BA
:1003B00008100E94E80E7093CE006093CD007093F9
:1003C000CC006093CB0081E08093D6008093D50071
:1003D00043C283B190E0A0E0B0E0C6CF83B190E02B
:1003E000A0E0B0E00EC023B180919E0090919F00EC
:1003F000A091A000B091A100BA2FA92F982F882713
:10040000822B80939E0090939F00A093A000B093B6
:10041000A10022C223B180919E0090919F00A091E3
:10042000A000B091A100BA2FA92F982F8827822B66
:1004300080939E0090939F00A093A000B093A10092
:100440008093ED009093EE00A093EF00B093F00046
:1004500081E08093F10000C283B18093D100FCC1A0
:1004600083B18093D000F8C183B18093A800F4C118
:1004700083B18093A700F0C18091E800853309F42F
:1004800047C108F06BC0803209F415C180F5813195
:1004900009F40EC1C0F4863009F4F2C048F4823089
:1004A00009F4EBC0843009F0DEC188B599B5E9C024
:1004B000883009F4E8C0803109F0D5C18091DD00B1
:1004C0009091DE00F0C0843109F4E4C038F4823148
:1004D00009F4DBC0833109F4EBC0C5C1863109F4EE
:1004E000DEC008F4E5C0873109F4E2C0BCC1863241
:1004F00009F4F5C0D0F4833209F4E7C058F481322E
:1005000009F4DEC0823209F0AEC18091CB00909137
:10051000CC0007C1843209F4DDC0853209F0A3C1E3
:100520008091C9009091CA00ACC0813309F4E1C048
:1005300058F4873209F4D8C0803309F094C180910F
:10054000C4009091C500EDC0833309F4D7C008F012
:10055000DAC08091C2009091C300E3C0823409F4F4
:1005600022C108F043C08B3309F4F7C0F0F488339C
:1005700009F4D9C058F4863309F4CFC0873309F0A1
:1005800072C18091BE009091BF007BC0893309F495
:10059000DBC08A3309F067C18091A2009091A3006B
:1005A000A091A400B091A5003BC18E3309F4E9C02D
:1005B00078F48C3309F4D4C08D3309F054C18091A0
:1005C0009E0090919F00A091A000B091A10024C135
:1005D000803409F4DFC008F428C18091BA009091FA
:1005E000BB00A091BC00B091BD0016C1883409F4D5
:1005F000FEC010F5853409F4E8C078F4833409F4BA
:10060000DBC0843409F02FC18091B6009091B7000F
:10061000A091B800B091B900F2C0863409F4DEC0F0
:10062000873409F020C18091B6009091B700A09165
:10063000B800B091B90025C08B3409F4F6C078F445
:10064000893409F4E1C08A3409F00DC18091B20007
:100650009091B300A091B400B091B500E1C0813A8F
:1006600009F4ECC0823A09F4F9C0803A09F0FBC001
:1006700084B78F7083B914BEEFC08AB59BB501C033
:1006800083B583B9E9C08CB7FCCF8091DB00909132
:10069000DC0009C08091D9009091DA0004C08091FB
:1006A000D7009091D80090939D0080939C0039C012
:1006B00080919C00E6CF8091CD009091CE0031C01A
:1006C0008091CD009091CE00DCCF8091CB009091B5
:1006D000CC00D7CF8091C9009091CA0022C08091F0
:1006E000C7009091C8001DC08091C7009091C800BC
:1006F000C8CF8091C4009091C500C3CF8091C20043
:100700009091C300BECF8091C0009091C10009C0FC
:100710008091C0009091C100B4CF8091BE009091B3
:10072000BF0093B999C08091AE009091AF00A091A5
:10073000B000B091B1008093A2009093A300A09369
:10074000A400B093A5005BC08091A2009091A3008B
:10075000A091A400B091A5005FC08091A20091CFAC
:100760008091AA009091AB00A091AC00B091AD0037
:1007700080939E0090939F00A093A000B093A1004F
:100780003EC080919E0090919F00A091A000B091EA
:10079000A10046C08091BA009091BB00A091BC001E
:1007A000B091BD002CC08091BA009091BB00A09187
:1007B000BC00B091BD0034C08091BA009091BB00E4
:1007C000A091BC00B091BD005CCF8091B60090912B
:1007D000B700A091B800B091B9001EC08091B600DA
:1007E0009091B700A091B800B091B90019C0809164
:1007F000B2009091B300A091B400B091B5008B2FDE
:100800009927AA27BB273DCF8091B2009091B300D2
:10081000A091B400B091B500CD01AA27BB2731CF7C
:10082000892F9A2FAB2FBB272CCF8091B2009091AC
:10083000B300A091B400B091B50023CF80B326B32C
:10084000807490E033E0959587953A95E1F72770AD
:10085000282B20952F7023B985EC07C08091A90023
:1008600083B985EC86BF13B885E886BF8091E80020
:100870008F5F8093E80005C086B78B7E86BF85ECCE
:1008800086BFFF91EF91BF91AF919F918F917F9123
:100890006F915F914F913F912F910F900FBE0F90ED
:1008A0001F9018951F920F920FB60F9211242F933D
:1008B0003F934F935F938F939F9399B390FD02C0A3
:1008C00080E001C083E091FF02C091E08927209180
:1008D0009B00281B20FF1FC080939B008091D200AB
:1008E000422F4270882349F08091DD009091DE0014
:1008F000242F30E02150310908C08091DD00909113
:10090000DE0021E030E0241B3109820F931F909319
:10091000DE008093DD0099B392959F7090FD02C038
:1009200080E001C083E091FF02C091E0892720911F
:100930009A00281B20FF1FC080939A008091D1004D
:100940002270882359F08091DB009091DC0041E017
:1009500050E0421B5109840F951F09C08091DB00B4
:100960009091DC0030E021503109820F931F909369
:10097000DC008093DB0099B39695969590FD02C0BC
:1009800080E001C083E091FF02C091E089272091BF
:100990009900281B20FF1FC0809399008091D000F0
:1009A0002270882359F08091D9009091DA0041E0BB
:1009B00050E0421B5109840F951F09C08091D90056
:1009C0009091DA0030E021503109820F931F90930B
:1009D000DA008093D90099B3929596959695937085
:1009E00090FD02C080E001C083E0927011F091E0C0
:1009F000892720919800281B20FF1FC08093980012
:100A00008091CF00422F4270882349F08091D70017
:100A10009091D800242F30E02150310908C08091F6
:100A2000D7009091D80021E030E0241B3109820FDB
:100A3000931F9093D8008093D7008091C6008F5F5A
:100A40008093C6009F918F915F914F913F912F911D
:100A50000F900FBE0F901F9018951F920F920FB618
:100A60000F9211248F939F93EF93FF935F9B16C078
:100A7000E091F400F091F5008CB1808381E0E935DC
:100A8000F80730F43196F093F500E093F40006C0D7
:100A900086EF90E09093F5008093F400FF91EF9142
:100AA0009F918F910F900FBE0F901F9018959C01F2
:100AB0008AB188618AB9579A80B5866080BD40E066
:100AC00050E084E0220F331F441F551F8A95D1F751
:100AD00060E079E08DE390E00E94B510DA01C90191
:100AE0000197A109B109892F9A2FAB2FBB27A7FD29
:100AF000BA9580BD215029B986EF90E09093F3001C
:100B00008093F2009093F5008093F40008955D9B2C
:100B1000FECFFC0180818CB90895CF93DF931F92A3
:100B2000CDB7DEB78983CE0101960E94870580E0AC
:100B300090E00F90DF91CF910895CF93DF93EC0178
:100B4000CE012196FC012081222319F00E94870505
:100B5000F7CFDF91CF9108955F9BFECF8CB190E0EE
:100B600008950C94AC0561EB75E08DE895E00C946C
:100B70000111CF93DF93FC01E253FF4FA081B181BC
:100B8000EC01C453DF4F28813981A217B307A1F0CC
:100B90005D9B12C02C912CB920813181AC01455351
:100BA0005F4F2417350718F42F5F3F4F03C09C0198
:100BB00028593F4F31832083E091F200F091F300F8
:100BC0002091F4003091F5002E173F07C1F1DC01B0
:100BD000AC59BF4FCD91DC911197208128836D9145
:100BE0007C9111979C012B523F4FE9013881EB0119
:100BF0002881321307C09C012C523F4FE9014881E4
:100C00004F5F48839C012D593F4F6217730728F4AB
:100C1000EB012196CD93DC9302C08D939C93D1E0A0
:100C2000E935FD0730F43196F093F300E093F200DC
:100C300006C086EF90E09093F3008093F200DF917E
:100C4000CF910895CF93DF93CDB7DEB76E970FB6F0
:100C5000F894DEBF0FBECDBF88E087BB8CEF84BBAE
:100C60008CEB81BB1092E70080E895E20E9457056B
:100C70000E94B30580E582B986B78B7E86BF85EC7E
:100C800086BF81EF8FBD89E08EBD1BBC1ABC19BC2D
:100C900018BC89E785BD13BC83BF1CBE8EE690E0FF
:100CA0000E947E1185B78F7885BF84E089BF7894D4
:100CB00074E6272E312C8091E8008F3F41F480911B
:100CC000E700853A21F4F894E0E0F8E10995809195
:100CD000F100882309F4C7C0F894C090E900D090CF
:100CE000EA00E090EB00F090EC006091ED00709174
:100CF000EE008091EF009091F0001092F100789456
:100D00002BED3FE049E450E40E94081025E236E074
:100D100041E85EE30E94081020E030E040E05FE33D
:100D20000E940810A70196010E94150E4B015C015C
:100D3000A7019601C701B6010E94150EA5019401F5
:100D40000E94140E2AE931E043E555E40E940810A0
:100D50006B017C012AE931E043E555E4C501B401AA
:100D60000E9408104B015C018091A7009101281B93
:100D70003109B901882777FD8095982F0E941B0FB4
:100D80009B01AC01C701B6010E94081020E030E0D1
:100D900048EC52E40E94800E0E94E80E7093CE0050
:100DA0006093CD008091A800A101481B5109BA01B0
:100DB000882777FD8095982F0E941B0F9B01AC011F
:100DC000C701B6010E94081020E030E048EC52E470
:100DD0000E94800E0E94E80E7093CC006093CB00BE
:100DE0008091A800B101681B7109882777FD809563
:100DF000982F0E941B0F9B01AC01C501B4010E94FA
:100E0000081020E030E048EC52E40E94800E0E947E
:100E1000E80E7093CA006093C9008091A700B101E9
:100E2000681B7109882777FD8095982F0E941B0FFA
:100E30009B01AC01C501B4010E94081020E030E024
:100E400048EC52E40E94800E0E94E80E7093C800A5
:100E50006093C70051E05093D6005093D500509353
:100E6000D4005093D3008091C6008C3908F487C514
:100E70001092C600F8948091DD009091DE009A8374
:100E80008983E091DB00F091DC00FC83EB8320910F
:100E9000D9003091DA003E832D834091D7005091E4
:100EA000D80058874F83789480919600909197004E
:100EB000A980BA80A81AB90A8091940090919500EF
:100EC0008F01081B190B809192009091930079017A
:100ED000E81AF90A80919000909191006A01C81A6D
:100EE000D90AB501882777FD8095982F0E941B0F9E
:100EF0002AE037ED43E25CE30E94800E0E94E80E98
:100F000069877A878B879C87B801882777FD8095CA
:100F1000982F0E941B0F2AE037ED43E25CE30E940A
:100F2000800E0E94E80E6D877E878F87988BB701B1
:100F3000882777FD8095982F0E941B0F2AE037EDB8
:100F400043E25CE30E94800E0E94E80E698B7A8B7C
:100F50008B8B9C8BB601882777FD8095982F0E94FC
:100F60001B0F2AE037ED43E25CE30E94800E0E94F3
:100F7000E80E6D8B7E8B8F8B988FB501600F711F84
:100F8000882777FD8095982F0E941B0F2AE931E072
:100F900043ED55E40E94800E4B015C01B7016C0DDE
:100FA0007D1D882777FD8095982F0E941B0F2AE9C9
:100FB00031E043ED55E40E94800E2B013C01C090CE
:100FC000B200D090B300E090B400F090B500A5015D
:100FD00094010E94140E25E236E041E85EE30E948F
:100FE000800E9B01AC01C701B6010E94150E6B017A
:100FF0007C012BED3FE049EC50E40E9404102BED06
:101000003FE049EC50E418162CF4C701B6010E94E9
:10101000140E0EC0C701B6010E94790E87FF0AC0E8
:101020002BED3FE049EC50E4C701B6010E94150EDC
:101030006B017C01A3019201C501B4010E94150E50
:1010400020E030E040E05FE30E9408104B015C01CB
:101050004090BA005090BB006090BC007090BD0002
:10106000C701B6010E947D0EA50194010E940810DF
:101070009B01AC01C301B2010E94150E698F7A8FEA
:101080008B8F9C8F4090B6005090B7006090B80056
:101090007090B900C701B6010E946B10A5019401C0
:1010A0000E9408109B01AC01C301B2010E94150E01
:1010B0002B013C010D851E8589859A85080F191F16
:1010C00017FF02C00F5F1F4F159507954D895E8969
:1010D000E989FA894E0F5F1F57FF02C04F5F5F4FCC
:1010E0009A01359527953E8F2D8FB901600F711F9D
:1010F000882777FD8095982F0E941B0F2AE931E001
:1011000043ED55E40E94800E4B015C016D8D7E8D98
:10111000601B710B882777FD8095982F0E941B0F0D
:101120002BEB3CE047E255E40E94800EF894C0921D
:10113000B200D092B300E092B400F092B500298DD5
:101140003A8D4B8D5C8D2093BA003093BB00409359
:10115000BC005093BD004092B6005092B700609220
:10116000B8007092B90049855A855093C5004093E4
:10117000C400ED85FE85F093C300E093C200298989
:101180003A893093C1002093C0004D895E89509305
:10119000BF004093BE008092AE009092AF00A0923C
:1011A000B000B092B1006093AA007093AB0080933E
:1011B000AC009093AD00789489819A8190939700C8
:1011C00080939600EB81FC81F0939500E09394006E
:1011D0002D813E8130939300209392004F8158855A
:1011E00050939100409390008091D600813009F097
:1011F000ABC08091CD009091CE00892B89F41092E4
:10120000E6001092E50010928F0010928E0010926E
:101210008A0010928B0010928C0010928D0094C066
:101220000091CD001091CE008091C4009091C50036
:10123000081B190B2801662457FC6094762CC0907B
:101240008A00D0908B00E0908C00F0908D00C40C50
:10125000D51CE61CF71CC0928A00D0928B00E0924D
:101260008C00F0928D008091E5009091E600BC0129
:10127000882777FD8095982F0E941B0F4B015C01FA
:10128000C301B2010E941B0F2CEB34E743E15CE386
:101290000E9408102B013C01C701B6010E941B0FE0
:1012A0002BE631ED46E05AE30E9408109B01AC01A9
:1012B000C301B2010E94150E6B017C0180918E006A
:1012C00090918F00F801E81BF90BBF01882777FD8B
:1012D0008095982F0E941B0F2CE234ED4AE15DE3CC
:1012E0000E9408109B01AC01C701B6010E94150EB7
:1012F0009B01AC01C501B4010E94150E0E94E80ECD
:101300007093E6006093E50010938F0000938E00C9
:101310008091E5009091E6008F3F910541F03CF00F
:101320002FEF30E03093E6002093E5000DC0809170
:10133000E5009091E60081309F4F34F441E05FEF8B
:101340005093E6004093E5008091D500813009F08C
:10135000ABC08091CB009091CC00892B89F4109286
:10136000E4001092E300109289001092880010921D
:10137000840010928500109286001092870094C01D
:101380000091CB001091CC008091C2009091C300DD
:10139000081B190B2801662457FC6094762CC0901A
:1013A0008400D0908500E0908600F0908700C40C07
:1013B000D51CE61CF71CC0928400D0928500E092F8
:1013C0008600F09287008091E3009091E400BC01D8
:1013D000882777FD8095982F0E941B0F4B015C0199
:1013E000C301B2010E941B0F2CEB34E743E15CE325
:1013F0000E9408102B013C01C701B6010E941B0F7F
:101400002BE631ED46E05AE30E9408109B01AC0147
:10141000C301B2010E94150E6B017C01809188000E
:1014200090918900F801E81BF90BBF01882777FD2F
:101430008095982F0E941B0F2CE234ED4AE15DE36A
:101440000E9408109B01AC01C701B6010E94150E55
:101450009B01AC01C501B4010E94150E0E94E80E6B
:101460007093E4006093E300109389000093880078
:101470008091E3009091E4008F3F910541F03CF0B2
:101480002FEF30E03093E4002093E3000DC0809113
:10149000E3009091E40081309F4F34F441E05FEF2E
:1014A0005093E4004093E3008091D400813009F030
:1014B000ABC08091C9009091CA00892B89F4109229
:1014C000E2001092E10010928300109282001092CC
:1014D0007E0010927F00109280001092810094C0D4
:1014E0000091C9001091CA008091C0009091C10084
:1014F000081B190B2801662457FC6094762CC090B9
:101500007E00D0907F00E0908000F0908100C40CBD
:10151000D51CE61CF71CC0927E00D0927F00E092A2
:101520008000F09281008091E1009091E200BC0186
:10153000882777FD8095982F0E941B0F4B015C0137
:10154000C301B2010E941B0F2CEB34E743E15CE3C3
:101550000E9408102B013C01C701B6010E941B0F1D
:101560002BE631ED46E05AE30E9408109B01AC01E6
:10157000C301B2010E94150E6B017C0180918200B3
:1015800090918300F801E81BF90BBF01882777FDD4
:101590008095982F0E941B0F2CE234ED4AE15DE309
:1015A0000E9408109B01AC01C701B6010E94150EF4
:1015B0009B01AC01C501B4010E94150E0E94E80E0A
:1015C0007093E2006093E100109383000093820027
:1015D0008091E1009091E2008F3F910541F03CF055
:1015E0002FEF30E03093E2002093E1000DC08091B6
:1015F000E1009091E20081309F4F34F441E05FEFD1
:101600005093E2004093E1008091D300813009F0D3
:10161000ABC08091C7009091C800892B89F41092CB
:10162000E0001092DF0010927D0010927C0010927A
:1016300078001092790010927A0010927B0094C08A
:101640000091C7001091C8008091BE009091BF002A
:10165000081B190B2801662457FC6094762CC09057
:101660007800D0907900E0907A00F0907B00C40C74
:10167000D51CE61CF71CC0927800D0927900E0924D
:101680007A00F0927B008091DF009091E000BC0135
:10169000882777FD8095982F0E941B0F4B015C01D6
:1016A000C301B2010E941B0F2CEB34E743E15CE362
:1016B0000E9408102B013C01C701B6010E941B0FBC
:1016C0002BE631ED46E05AE30E9408109B01AC0185
:1016D000C301B2010E94150E6B017C0180917C0058
:1016E00090917D00F801E81BF90BBF01882777FD79
:1016F0008095982F0E941B0F2CE234ED4AE15DE3A8
:101700000E9408109B01AC01C701B6010E94150E92
:101710009B01AC01C501B4010E94150E0E94E80EA8
:101720007093E0006093DF0010937D0000937C00D5
:101730008091DF009091E0008F3F910541F03CF0F7
:101740002FEF30E03093E0002093DF000DC0809158
:10175000DF009091E00081309F4F34F441E05FEF73
:101760005093E0004093DF008091E5009091E60007
:10177000209166003091670028173907B9F18091F0
:10178000E5009091E600892B19F485B38C6017C0B1
:101790008091D200811107C08091E5009091E60010
:1017A0001816190654F08091D200882351F08091C8
:1017B000E5009091E60097FF04C085B3837F85BB69
:1017C00002C0AA98AB9A8091E5009091E6009093B0
:1017D0006700809366008091E5009091E60097FF96
:1017E00003C09195819591099BBD8ABD8091E300CD
:1017F0009091E4002091640030916500281739072A
:10180000B9F18091E3009091E400892B19F485B33C
:10181000806317C08091D100811107C08091E300DF
:101820009091E4001816190654F08091D100882395
:1018300051F08091E3009091E40097FF04C085B3DC
:101840008F7C85BB02C0AC98AD9A8091E3009091EB
:10185000E40090936500809364008091E300909190
:10186000E40097FF03C091958195910999BD88BDCA
:101870008091E1009091E20020916200309163003C
:1018800028173907B1F18091E1009091E200892B8E
:1018900019F485B3806C17C08091D000811107C006
:1018A0008091E1009091E2001816190654F08091A1
:1018B000D000882351F08091E1009091E20097FFE1
:1018C00004C085B38F7385BB02C0AE98AF9A809178
:1018D000E1009091E2009093630080936200809118
:1018E000E1009091E20097FF03C0919581959109E5
:1018F00083BD8091DF009091E000209160003091E5
:10190000610028173907B1F18091DF009091E00064
:10191000892B19F482B38C6017C08091CF0081119C
:1019200007C08091DF009091E0001816190654F06E
:101930008091CF00882351F08091DF009091E000EA
:1019400097FF04C082B3837F82BB02C09298939AB0
:101950008091DF009091E00090936100809360009F
:101960008091DF009091E00097FF03C091958195F1
:1019700091098CBF8091A9008F5F8093A90085B7E2
:10198000806885BF889585B78F7785BF94C96F922A
:101990007F929F92AF92BF92CF92DF92EF92FF928F
:1019A0000F931F93CF93DF93CDB7DEB72C970FB66E
:1019B000F894DEBF0FBECDBF8C017B013A01FC0164
:1019C00017821682838181FF19C1CE0101965C01C5
:1019D000F801D380F701D3FC2591D3FE21917F013B
:1019E000222309F407C1253249F4D3FC2591D3FE03
:1019F00021917F01253211F0912C1BC0B801822F5B
:101A000090E00E944C1163013601E2CF222309F4D9
:101A1000F1C0622F70E089E790E02C870E94F610F9
:101A20002C85892B49F0F701D3FC2591D3FE219118
:101A30007F0197FEEBCF0CC0233221F4F92DF0612A
:101A40009F2EF1CF2C3639F4292D2068922EEBCF22
:101A5000222309F4CFC0622F70E082E790E02C8748
:101A60000E94F6102C85892B41F06301F4E0CF0E23
:101A7000D11CB8018FE390E012C0233641F0233728
:101A800089F0233521F5F92DF1609F2E0BC06301FC
:101A900022E0C20ED11CB801F301808191810E9425
:101AA0004C11B2CF630122E0C20ED11CF301608061
:101AB0007180F30190FC859190FE81913F01882314
:101AC00009F4A2CFB80190E00E944C11F2CF243665
:101AD00011F0293639F5630197FE09C0F4E0CF0E05
:101AE000D11CF30160817181828193810AC0F2E08F
:101AF000CF0ED11CF30160817181882777FD80951D
:101B0000982FF92DFF7E9F2E97FF09C09095809505
:101B1000709561957F4F8F4F9F4FF0649F2E2AE005
:101B200030E038C02037A1F040F42835D1F02F360E
:101B300009F060C028E030E019C0253719F02837D7
:101B400051F058C0292D2F7E922E2AE030E00EC091
:101B5000892D8061982E992D9462992E20E130E094
:101B600005C0E92DE4609E2E20E132E0630197FE7E
:101B700009C0F4E0CF0ED11CF30160817181828134
:101B8000938108C0F2E0CF0ED11CF3016081718116
:101B900080E090E0A5010E94AB11782E7A1896FEA5
:101BA00005C0B8018DE290E00E944C1194FE16C071
:101BB000FE01E70DF11D8081803381F0B80180E3E3
:101BC00090E00E944C1192FE09C0292D2072822FB4
:101BD00090E0B801885A9F4F0E944C117A94F50109
:101BE000E70DF11D8081B80190E00E944C11711049
:101BF000F5CF0ACFF8018681978102C08FEF9FEF62
:101C00002C960FB6F894DEBF0FBECDBFDF91CF91FB
:101C10001F910F91FF90EF90DF90CF90BF90AF900A
:101C20009F907F906F9008955058BB27AA270ED0A1
:101C3000A0C169D130F06ED120F031F49F3F11F492
:101C40001EF45EC10EF4E095E7FB54C1E92FB3D159
:101C500080F3BA17620773078407950718F071F4C9
:101C60009EF5CBC10EF4E0950B2EBA2FA02D0B01E3
:101C7000B90190010C01CA01A0011124FF27591BD1
:101C800099F0593F50F4503E68F11A16F040A22FD7
:101C9000232F342F4427585FF3CF46953795279548
:101CA000A795F0405395C9F77EF41F16BA0B620B47
:101CB000730B840BBAF09150A1F0FF0FBB1F661F8E
:101CC000771F881FC2F70EC0BA0F621F731F841FD1
:101CD00048F4879577956795B795F7959E3F08F0F7
:101CE000B3CF9395880F08F09927EE0F97958795B6
:101CF0000895DCD008F481E0089514D1E3954AC139
:101D00000CD037C107D140F0FED030F021F45F3F56
:101D100019F0F0C0511172C1F3C04DD198F399235D
:101D2000C9F35523B1F3951B550BBB27AA2762179F
:101D30007307840738F09F5F5F4F220F331F441FE4
:101D4000AA1FA9F333D00E2E3AF0E0E830D091501C
:101D50005040E695001CCAF729D0FE2F27D0660F09
:101D6000771F881FBB1F261737074807AB07B0E848
:101D700009F0BB0B802DBF01FF2793585F4F2AF05E
:101D80009E3F510568F0B6C039C15F3FECF3983E05
:101D9000DCF3869577956795B795F7959F5FC9F7BB
:101DA000880F911D9695879597F90895E1E0660F44
:101DB000771F881FBB1F621773078407BA0720F0BD
:101DC000621B730B840BBA0BEE1F88F7E095089526
:101DD00004D06894B11112C10895F5D088F09F57CE
:101DE00090F0B92F9927B751A0F0D1F0660F771F67
:101DF000881F991F1AF0BA95C9F712C0B13081F047
:101E0000FCD0B1E00895F9C0672F782F8827B85F1C
:101E100039F0B93FCCF3869577956795B395D9F7A7
:101E20003EF490958095709561957F4F8F4F9F4FB1
:101E30000895E89409C097FB3EF4909580957095BD
:101E400061957F4F8F4F9F4F9923A9F0F92F96E906
:101E5000BB279395F695879577956795B795F1117B
:101E6000F8CFFAF4BB0F11F460FF1BC06F5F7F4F18
:101E70008F4F9F4F16C0882311F096E911C077232A
:101E800021F09EE8872F762F05C0662371F096E833
:101E9000862F70E060E02AF09A95660F771F881F02
:101EA000DAF7880F9695879597F90895990F0008A6
:101EB000550FAA0BE0E8FEEF16161706E807F9071C
:101EC000C0F012161306E407F50798F0621B730BB7
:101ED000840B950B39F40A2661F0232B242B252B38
:101EE00021F408950A2609F4A140A6958FEF811DDB
:101EF000811D089597F99F6780E870E060E008957C
:101F00009FEF80EC089500240A9416161706180611
:101F10000906089500240A941216130614060506ED
:101F20000895EECF50D0E8F3E894E0E0BB279F5748
:101F3000F0F02AED3FE049EC06C0EE0FBB0F661F44
:101F4000771F881F28F0B23A62077307840728F0CA
:101F5000B25A620B730B840BE3959A9572F7803833
:101F600030F49A95BB0F661F771F881FD2F79048F1
:101F7000BAC0092E0394000C11F4882352F0BB0F51
:101F800040F4BF2B11F460FF04C06F5F7F4F8F4F91
:101F90009F4F0895EF93E0FF06C0A2EA2AED3FE0CD
:101FA00049EC5FEB53DEE5DF0F90039401FC9058A2
:101FB000E4E5F0E0A4C057FD9058440F551F59F0D8
:101FC0005F3F71F04795880F97FB991F61F09F3F26
:101FD00079F087950895121613061406551FF2CF4F
:101FE0004695F1DF08C0161617061806991FF1CF9F
:101FF00086957105610508940895E894BB276627C6
:102000007727CB0197F9089551DF08F48FEF0895F2
:102010000BD0AFCF78DF28F07DDF18F0952309F0E3
:1020200069CF6ECF1124EACFC6DFA0F3959FD1F31D
:10203000950F50E0551F629FF001729FBB27F00D76
:10204000B11D639FAA27F00DB11DAA1F649F6627CB
:10205000B00DA11D661F829F2227B00DA11D621F1A
:10206000739FB00DA11D621F839FA00D611D221FD4
:10207000749F3327A00D611D231F849F600D211DB8
:10208000822F762F6A2F11249F5750408AF0E1F05B
:1020900088234AF0EE0FFF1FBB1F661F771F881FA4
:1020A00091505040A9F79E3F510570F023CFA6CF25
:1020B0005F3FECF3983EDCF3869577956795B7958F
:1020C000F795E7959F5FC1F7FE2B880F911D9695B9
:1020D000879597F908959F9325DF0F9007FCEE5F92
:1020E00059CF9F3F31F0915020F4879577956795B0
:1020F000B795880F911D9695879597F908959F93A9
:102100008F937F936F93FF93EF939B01AC0180DFDD
:10211000EF91FF9105D02F913F914F915F9178CF33
:10212000DF93CF931F930F93FF92EF92DF927B0188
:102130008C01689405C0DA2EEF0176DFFE01E89489
:10214000A5912591359145915591AEF3EF017EDD35
:10215000FE019701A801DA9479F7DF90EF90FF90E4
:102160000F911F91CF91DF910895052E97FB1EF4DB
:1021700000940E94CC1057FD07D00E94D41007FC99
:1021800003D04EF40C94CC10509540953095219589
:102190003F4F4F4F5F4F0895909580957095619593
:1021A0007F4F8F4F9F4F0895A1E21A2EAA1BBB1B92
:1021B000FD010DC0AA1FBB1FEE1FFF1FA217B30713
:1021C000E407F50720F0A21BB30BE40BF50B661F29
:1021D000771F881F991F1A9469F7609570958095ED
:1021E00090959B01AC01BD01CF010895FC010590C4
:1021F000061621F00020D9F7C00108953197CF01CC
:1022000008950F931F93CF93DF93EC018B010097F9
:1022100031F46115710519F480E090E038C06EE08A
:1022200070E081E090E00E940912FC010097A1F3A8
:1022300080E883830115110571F01387028781E817
:10224000838380915D0190915E01892B21F4F0934D
:102250005E01E0935D012097C9F0D187C08783813B
:102260008260838380915F0190916001892B71F47A
:10227000F0936001E0935F018091610190916201B0
:10228000892B21F4F0936201E0936101CF01DF918A
:10229000CF911F910F9108950F931F93CF93DF93C9
:1022A000182F092FEB018B8181FD03C08FEF9FEF6A
:1022B00020C082FF10C04E815F812C813D8142177A
:1022C00053077CF4E881F9819F012F5F3F4F3983E9
:1022D0002883108306C0E885F985812F0995892B0D
:1022E00029F72E813F812F5F3F4F3F832E83812F20
:1022F000902FDF91CF911F910F9108950F931F930E
:10230000CF93DF93E0915F01F0916001238121FF82
:102310001BC0EC0100E010E0899160915F017091B9
:102320006001DB011896ED91FC911997882331F03B
:102330000995892B89F30FEF1FEFEECF8AE00995FE
:10234000892B11F4C80102C08FEF9FEFDF91CF916D
:102350001F910F910895FA01AA27283051F12031D9
:1023600081F1E8946F936E7F6E5F7F4F8F4F9F4F29
:10237000AF4FB1E03ED0B4E03CD0670F781F891F6B
:102380009A1FA11D680F791F8A1F911DA11D6A0F39
:10239000711D811D911DA11D20D009F468943F91EC
:1023A0002AE0269F11243019305D3193DEF6CF01EB
:1023B0000895462F4770405D4193B3E00FD0C9F7B1
:1023C000F6CF462F4F70405D4A3318F0495D31FD1E
:1023D0004052419302D0A9F7EACFB4E0A695979571
:1023E000879577956795BA95C9F700976105710547
:1023F00008959B01AC010A2E069457954795379591
:102400002795BA95C9F7620F731F841F951FA01DEA
:1024100008950F931F93CF93DF93869F8001879F2B
:10242000100D969F100D1124C8010E942512EC0179
:10243000009729F0A80160E070E00E944C13CE01E3
:10244000DF91CF911F910F910895CF93DF93823049
:10245000910510F482E090E0E0916501F091660151
:1024600020E030E0A0E0B0E0309739F140815181C8
:1024700048175907B8F04817590771F482819381BA
:10248000109729F013969C938E9312972CC09093DB
:1024900066018093650127C02115310531F042178F
:1024A000530718F0A901DB0101C0EF019A01BD013A
:1024B000DF010280F381E02DD7CF21153105F9F03E
:1024C000281B390B2430310580F48A819B816115EA
:1024D000710521F0FB019383828304C09093660110
:1024E00080936501FE01329644C0FE01E20FF31FA6
:1024F0008193919322503109398328833AC02091E6
:10250000630130916401232B41F420916A003091E2
:102510006B00309364012093630120916800309137
:1025200069002115310541F42DB73EB740916C008B
:1025300050916D00241B350BE0916301F091640113
:10254000E217F307A0F42E1B3F0B2817390778F08A
:10255000AC014E5F5F4F2417350748F04E0F5F1FE9
:1025600050936401409363018193919302C0E0E032
:10257000F0E0CF01DF91CF910895CF93DF930097E3
:1025800009F487C0FC01329713821282C091650161
:10259000D0916601209781F420813181280F391F65
:1025A00080916301909164018217930779F5F0930C
:1025B0006401E09363016DC0DE0120E030E0AE17FE
:1025C000BF0750F412964D915C9113979D014115F0
:1025D000510509F1DA01F3CFB383A2834081518120
:1025E000840F951F8A179B0771F48D919C91119709
:1025F000840F951F02969183808312968D919C91F2
:102600001397938382832115310529F4F093660192
:10261000E09365013EC0D9011396FC93EE931297A7
:102620004D915D91A40FB51FEA17FB0779F48081E6
:102630009181840F951F0296D90111969C938E93D8
:102640008281938113969C938E931297E0E0F0E041
:102650008A819B81009719F0FE01EC01F9CFCE0130
:10266000029628813981820F931F20916301309156
:1026700064012817390769F4309729F4109266012C
:102680001092650102C013821282D0936401C0933C
:102690006301DF91CF910895DC0101C06D9341503A
:0A26A0005040E0F70895F894FFCFD2
:1026AA0000800080008000800000670120000D0A81
:0826BA0053746172740D0000FD
:00000001FF
