:100000000C94E6000C9403010C9403010C9403017E
:100010000C9403010C9403010C9403010C94030150
:100020000C9403010C9453040C9403010C940301ED
:100030000C9403010C943E050C9403010C940301F1
:100040000C9403010C9403010C9403010C9405011E
:100050000C940301ED02F702F002F702F302F7023B
:10006000F502F70234043404340434043404340450
:10007000F9021103FE021103030311030803110324
:1000800034043404340434043404340434043404B0
:10009000140319031E03230328032D03320337031C
:1000A0003404340434043404340434043404340490
:1000B0003C03410346034B03500355035A036003BB
:1000C000650376037F0388038B03A003A9031C0445
:1000D000B203BB03C403CD03D603DF03E803F1037C
:1000E000FA0303040F041C043404340434043404F9
:1000F0003404340434043404340434043404340440
:10010000340434043404340434043404340434042F
:10011000340434043404340434043404340434041F
:10012000340434043404340434043404340434040F
:1001300034043404340434043404340434043404FF
:1001400034043404340434043404340434043404EF
:1001500034043404340434043404340434043404DF
:1001600034043404340434043404340434043404CF
:1001700034043404340434043404340434043404BF
:1001800034043404340434043404340434043404AF
:1001900025042A042F0405A84CCDB2D44EB9383614
:1001A000A9020C50B9918688083CA6AAAA2ABE00CA
:1001B0000000803F45464765666700202B2D2E30A6
:1001C00031323334353637383968000011241FBED8
:1001D000CFE5D8E0DEBFCDBF10E0A0E6B0E0EEE4B2
:1001E000F7E202C005900D92AA37B107D9F721E0D6
:1001F000AAE7B0E001C01D92A836B207E1F70E945D
:1002000034060C94A5130C9400001F920F920FB6A5
:100210000F9211242F933F934F935F936F937F938C
:100220008F939F93AF93BF93EF93FF9381B1887F99
:10023000803881F040F4803609F01FC385EC86BF1A
:100240001092E9001FC3883A09F4B9C1883B09F448
:10025000B6C113C38091E9008A3209F44BC108F09A
:1002600047C0803209F402C138F5843009F4C1C0B6
:1002700060F4813009F4FAC008F4A6C0823009F4B1
:10028000ACC0833009F4F2C0F0C2863009F4BDC0BE
:1002900008F4ECC0873009F4E9C0883009F0E5C201
:1002A00083B12091A80090E0922B9093E10080937D
:1002B000E0001092D400D1C2853209F4CAC060F4C3
:1002C000823209F4D3C008F4ACC0833209F4B6C05A
:1002D000843209F4CBC0C9C2873209F4CBC008F418
:1002E000C5C0883209F401C1893209F403C1BDC215
:1002F000843509F416C1E8F58F3209F4C8C060F4FA
:100300008C3209F4F2C008F4C2C08D3209F4F2C094
:100310008E3209F4EFC0A9C2813509F4EBC020F494
:10032000803509F4E2C0A1C2823509F4E3C0833507
:1003300009F09BC223B18091A4009091A500A091E7
:10034000A600B091A700BA2FA92F982F8827822B3B
:100350008093A4009093A500A093A600B093A7005B
:100360008093EA009093EB00A093EC00B093ED0033
:1003700074C2813909F410C178F4863509F4D6C005
:1003800008F4D4C0873509F4E8C0803909F06DC29B
:1003900083B18093690061C2843909F405C150F4C6
:1003A000823909F4FDC0833909F05FC283B18093BB
:1003B000D20053C2853909F4FBC08F3F09F055C202
:1003C00083B18093E80051C283B18093E9008091AA
:1003D000E90081508093E90040C283B12091A800D8
:1003E00090E0922B9093E7008093E6001092D70064
:1003F00034C283B12091A80090E0922B9093E50045
:100400008093E4001092D60028C283B12091A80006
:1004100090E0922B9093E3008093E2001092D5003D
:100420001CC283B12091A80090E0922B9093D10040
:100430008093D00081E08093D7000FC283B12091D8
:10044000A80090E0922B9093CF008093CE0081E0A3
:1004500049C083B12091A80090E0922B9093CD00E9
:100460008093CC0081E08093D500F7C183B1809365
:10047000A800F3C183B12091A80090E0922B909343
:10048000CB008093CA0081E08093D400E6C123B101
:100490008091A4009091A500A091A600B091A70022
:1004A000BA2FA92F982F8827BC01CD01622B60930A
:1004B000A4007093A5008093A6009093A70023E367
:1004C0003BE542E855E40E94FD0F0E94D10E709377
:1004D000D1006093D0007093CF006093CE0081E094
:1004E0008093D7008093D600B8C183B190E0A0E09C
:1004F000B0E00EC023B18091A4009091A500A0911E
:10050000A600B091A700BA2FA92F982F8827822B79
:100510008093A4009093A500A093A600B093A70099
:100520009CC183B190E0A0E0B0E00EC023B1809107
:10053000A0009091A100A091A200B091A300BA2FB9
:10054000A92F982F8827822B8093A0009093A10039
:10055000A093A200B093A30080C123B18091A0001A
:100560009091A100A091A200B091A300BA2FA92F51
:10057000982F8827822B8093A0009093A100A093AE
:10058000A200B093A3008093EE009093EF00A0939D
:10059000F000B093F1000FC083B1809368005DC19B
:1005A00083B18093D30059C183B18093AB0003C062
:1005B00083B18093AA0081E08093F2004EC1E09164
:1005C000E9008E2F90E0FC013297E13AF10508F046
:1005D0004BC1E65DFF4F0C94DA108AB59BB53CC168
:1005E00088B599B539C183B537C18CB735C113B852
:1005F00034C18091DE009091DF000EC08091DC005C
:100600009091DD0009C08091DA009091DB0004C078
:100610008091D8009091D90090939F0080939E0084
:100620004DC080919E0018C18091D0009091D10062
:1006300045C08091D0009091D1000EC18091CE0034
:100640009091CF003BC08091CE009091CF0004C12B
:100650008091CC009091CD0031C08091CC009091E0
:10066000CD00FAC08091CA009091CB0027C0809144
:10067000CA009091CB00F0C08091C7009091C80053
:100680001DC08091C7009091C800E6C08091C50050
:100690009091C60013C08091C5009091C600DCC047
:1006A0008091C3009091C40009C08091C3009091D3
:1006B000C400D2C08091C1009091C20093B9CDC056
:1006C0008091C1009091C200C7C08091B10090910B
:1006D000B200A091B300B091B4008093A4009093B5
:1006E000A500A093A600B093A70025C08091A40008
:1006F0009091A500A091A600B091A7008CC0809118
:10070000A4009091A500A091A600B091A7008FC071
:100710008091A400A1C08091AD009091AE00A09105
:10072000AF00B091B0008093A0009093A100A0937F
:10073000A200B093A3008B2F9927AA27BB278CC0B8
:100740008091A0009091A100A091A200B091A3007F
:1007500062C08091A0009091A100A091A200B091F0
:10076000A30065C08091BD009091BE00A091BF0024
:10077000B091C000E0CF8091BD009091BE00A091EB
:10078000BF00B091C00047C08091BD009091BE00F5
:10079000A091BF00B091C0004AC08091BD0090916F
:1007A000BE00A091BF00B091C00056C08091B900BA
:1007B0009091BA00A091BB00B091BC00BCCF8091D9
:1007C000B9009091BA00A091BB00B091BC0023C0C9
:1007D0008091B9009091BA00A091BB00B091BC008B
:1007E00026C08091B9009091BA00A091BB00B09151
:1007F000BC0032C08091B5009091B600A091B700C6
:10080000B091B80098CF8091B5009091B600A091BA
:10081000B700B091B800CD01AA27BB271DC08091B9
:10082000B5009091B600A091B700B091B800892FA3
:100830009A2FAB2FBB2710C08091B5009091B600C6
:10084000A091B700B091B80007C084B78F7083B98A
:1008500014BE03C08091A90083B985EC07C08091C4
:10086000AC0083B985EC86BF13B885E886BF80915C
:10087000E9008F5F8093E90005C086B78B7E86BF55
:1008800085EC86BFFF91EF91BF91AF919F918F91C2
:100890007F916F915F914F913F912F910F900FBE7C
:1008A0000F901F9018951F920F920FB60F92112460
:1008B0002F933F934F935F936F937F938F939F9368
:1008C00089B380FF02C093E001C090E081FF02C0C5
:1008D00081E0982780919D00891B80FF22C0909322
:1008E0009D0020916900982F9270222351F0209151
:1008F000DE003091DF00892F90E00197820F931F77
:100900000CC04091DE005091DF0021E030E0B901E1
:10091000691B7109CB01840F951F9093DF008093B1
:10092000DE0089B382958F7080FF02C093E001C022
:1009300090E081FF02C081E0982780919C00891B94
:1009400080FF22C090939C0020916800982F9270A5
:10095000222369F04091DC005091DD0021E030E07D
:10096000B901691B7109CB01840F951F09C0209142
:10097000DC003091DD00892F90E00197820F931FFA
:100980009093DD008093DC0089B38695869580FF87
:1009900002C093E001C090E081FF02C081E098278F
:1009A00080919B00891B80FF22C090939B00209127
:1009B000D300982F9270222369F04091DA00509171
:1009C000DB0021E030E0B901691B7109CB01840F24
:1009D000951F09C02091DA003091DB00892F90E04B
:1009E0000197820F931F9093DB008093DA0089B305
:1009F000829586958695837080FF02C093E001C042
:100A000090E0827011F081E0982780919A00891B14
:100A100080FF22C090939A002091D200982F92706C
:100A2000222351F02091D8003091D900892F90E0F5
:100A30000197820F931F0CC04091D8005091D900AC
:100A400021E030E0B901691B7109CB01840F951FCA
:100A50009093D9008093D8008091C9008F5F8093D4
:100A6000C9009F918F917F916F915F914F913F91BD
:100A70002F910F900FBE0F901F9018951F920F92FD
:100A80000FB60F9211248F939F93EF93FF935F9B69
:100A900016C0E091F500F091F6008CB1808381E002
:100AA000EA35F80730F43196F093F600E093F5005C
:100AB00006C087EF90E09093F6008093F500FF91D9
:100AC000EF919F918F910F900FBE0F901F901895EF
:100AD0009C018AB188618AB9579A80B5866080BDC9
:100AE000C901A0E0B0E09C01AD0184E0220F331FFA
:100AF000441F551F8A95D1F760E079E08DE390E0BF
:100B00000E94BB10DA01C9010197A109B109892F1F
:100B10009A2FAB2FBB27A7FDBA9580BD215029B9CD
:100B200087EF90E09093F4008093F3009093F600A9
:100B30008093F50008955D9BFECFFC0180818CB908
:100B40000895CF93DF931F92CDB7DEB78983CE018F
:100B500001960E949B0580E090E00F90DF91CF917D
:100B60000895CF93DF93EC01CE012196FC01208103
:100B7000222319F00E949B05F7CFDF91CF910895B2
:100B80005F9BFECF8CB190E008950C94C00565EC9E
:100B900075E081EA95E00C944411CF93DF93FC015A
:100BA000E253FF4FA081B181EC01C453DF4F288194
:100BB0003981A217B307A1F05D9B12C02C912CB90B
:100BC00020813181AC0145535F4F2417350718F45C
:100BD0002F5F3F4F03C09C0128593F4F3183208333
:100BE000E091F300F091F4002091F5003091F600CF
:100BF0002E173F07B1F1EC01CC59DF4FA881B98125
:100C000020812C93688179819C012B523F4FD9011F
:100C10003C91DB012C91321307C0AC014C525F4F69
:100C2000DA012C912F5F2C939C012D593F4F6217B5
:100C3000730728F4DB011196B983A88302C0998356
:100C40008883B1E0EA35FB0730F43196F093F40085
:100C5000E093F30006C087EF90E09093F400809358
:100C6000F300DF91CF910895CF93DF93CDB7DEB737
:100C70006E970FB6F894DEBF0FBECDBF88E087BB7E
:100C80008CEF84BB8CEB81BB87E088BB80E482BBAC
:100C90001092E80080E895E20E9468050E94C7056E
:100CA00080E582B986B78B7E86BF85EC86BF81EAF8
:100CB0008FBD89E08EBD1BBC1ABC19BC18BC89E66F
:100CC00085BD13BC83BF1CBE80E790E00E94C711A6
:100CD00085B78F7885BF84E089BF789464E6262E37
:100CE000312C8091E9008F3F41F48091E800853AF2
:100CF00021F4F894E0E0F8E109958091F20088236E
:100D000009F4E3C0F8948090EA009090EB00A09082
:100D1000EC00B090ED006091EE007091EF008091DA
:100D2000F0009091F1001092F20078942BED3FE0EA
:100D300049E450E40E94FD0F27EB3BE04DEB5EE3FE
:100D40000E94FD0F20E030E040E05FE30E94FD0FD5
:100D5000A50194010E94E90D6B017C01A50194019C
:100D6000C501B4010E94E90DA70196010E94E80D9A
:100D700023E33BE542E855E40E94FD0F4B015C0193
:100D800023E33BE542E855E4C701B6010E94FD0FAD
:100D90006B017C018091AA008823A9F18091AA00AF
:100DA000B101681B7109072E000C880B990B0E947A
:100DB000090F9B01AC01C501B4010E94FD0F20E0A9
:100DC00030E048EC52E40E945F0E0E94D10E709316
:100DD000D1006093D0008091AA00B101681B710915
:100DE000072E000C880B990B0E94090F9B01AC0188
:100DF000C701B6010E94FD0F20E030E048EC52E44C
:100E00000E945F0E0AC0C501B4010E94D10E70930A
:100E1000D1006093D000C701B6010E94D10E70933B
:100E2000CB006093CA008091AB008823A9F1809128
:100E3000AB00B101681B7109072E000C880B990BE0
:100E40000E94090F9B01AC01C501B4010E94FD0F76
:100E500020E030E048EC52E40E945F0E0E94D10E88
:100E60007093CF006093CE008091AB00B101681BFE
:100E70007109072E000C880B990B0E94090F9B012A
:100E8000AC01C701B6010E94FD0F20E030E048EC44
:100E900052E40E945F0E0AC0C501B4010E94D10E47
:100EA0007093CF006093CE00C701B6010E94D10EAF
:100EB0007093CD006093CC00F1E0F093D700F093F5
:100EC000D600F093D500F093D4008091C9008C39FE
:100ED00008F450C51092C900F8942091DE003091BA
:100EE000DF003A8329834091DC005091DD005C8370
:100EF0004B838091DA009091DB009E838D83E0919B
:100F0000D800F091D900F887EF8378948091980009
:100F1000909199005901A81AB90A80919600909170
:100F200097008A01081B190B8091940090919500FD
:100F3000ED80FE80E81AF90A80919200909193006A
:100F40006F01C81AD90AB5010B2C000C880B990B3C
:100F50000E94090F2AE037ED43E25CE30E945F0E36
:100F60000E94D10E69877A878B879C87B801012EF2
:100F7000000C880B990B0E94090F2AE037ED43E221
:100F80005CE30E945F0E0E94D10E6D877E878F8783
:100F9000988BB7010F2C000C880B990B0E94090F3E
:100FA0002AE037ED43E25CE30E945F0E0E94D10E1F
:100FB000698B7A8B8B8B9C8BB6010D2C000C880B6C
:100FC000990B0E94090F2AE037ED43E25CE30E948F
:100FD0005F0E0E94D10E6D8B7E8B8F8B988FB5012B
:100FE000600F711F072E000C880B990B0E94090FD0
:100FF00023E33BE542E056E40E945F0E4B015C01B7
:10100000B7016C0D7D1D072E000C880B990B0E94FB
:10101000090F23E33BE542E056E40E945F0E2B01FB
:101020003C01C090B500D090B600E090B700F090C1
:10103000B800A50194010E94E80D27EB3BE04DEBC1
:101040005EE30E945F0E9B01AC01C701B6010E94E6
:10105000E90D6B017C012BED3FE049EC50E40E946F
:10106000F80F18164CF42BED3FE049EC50E4C701A3
:10107000B6010E94E80D12C02BED3FE049EC50ECA8
:10108000C701B6010E94550E87FF0AC02BED3FE055
:1010900049EC50E4C701B6010E94E90D6B017C01E7
:1010A000A3019201C501B4010E94E90D20E030E0E6
:1010B00040E05FE30E94FD0F4B015C014090BD00EA
:1010C0005090BE006090BF007090C000C701B60194
:1010D0000E945A0EA50194010E94FD0F9B01AC01D4
:1010E000C301B2010E94E90D698F7A8F8B8F9C8FAB
:1010F0004090B9005090BA006090BB007090BC0066
:10110000C701B6010E946A10A50194010E94FD0F5B
:101110009B01AC01C301B2010E94E90D2B013C010E
:101120000D851E8529853A85020F131F17FF02C002
:101130000F5F1F4F159507954D895E8989899A899B
:10114000480F591F57FF02C04F5F5F4FFA01F595D7
:10115000E795FE8FED8FBF01600F711F072E000C0A
:10116000880B990B0E94090F23E33BE542E056E40C
:101170000E945F0E4B015C016D8D7E8D601B710BBB
:10118000072E000C880B990B0E94090F29E935E303
:1011900047E955E40E945F0EF894C092B500D092E2
:1011A000B600E092B700F092B800298D3A8D4B8DD1
:1011B0005C8D2093BD003093BE004093BF005093E0
:1011C000C0004092B9005092BA006092BB00709289
:1011D000BC0049855A855093C8004093C700ED85EF
:1011E000FE85F093C600E093C50029893A893093C3
:1011F000C4002093C3004D895E895093C200409380
:10120000C1008092B1009092B200A092B300B0925F
:10121000B4006093AD007093AE008093AF009093E4
:10122000B000789489819A81909399008093980076
:10123000EB81FC81F0939700E09396002D813E8135
:1012400030939500209394004F81588550939300DC
:10125000409392008091D700813009F096C0809130
:10126000D0009091D100892B89F41092E700109260
:10127000E600109291001092900010928C00109253
:101280008D0010928E0010928F007FC02091D000B0
:101290003091D1008091C7009091C8008901081B4E
:1012A000190BB801012E000C880B990BC0908C0013
:1012B000D0908D00E0908E00F0908F00C60ED71E6B
:1012C000E81EF91EC0928C00D0928D00E0928E0034
:1012D000F0928F000E94090F2CEE31E548E35DE3A8
:1012E0000E94FD0F4B015C01C701B6010E94090F6E
:1012F0002EE830E44CEB5CE30E94FD0F9B01AC0157
:10130000C501B4010E94E90D6B017C018091900040
:1013100090919100B801681B790B072E000C880B87
:10132000990B0E94090F2AE037ED43E25DE30E942A
:10133000FD0F9B01AC01C701B6010E94E90D0E949F
:10134000D10E7093E7006093E60010939100009334
:1013500090008091E6009091E7008F3F910541F069
:101360003CF08FEF90E09093E7008093E6000DC093
:101370008091E6009091E70081309F4F34F421E0A6
:101380003FEF3093E7002093E6008091D600813054
:1013900009F096C08091CE009091CF00892B89F4FE
:1013A0001092E5001092E40010928B0010928A00D7
:1013B0001092860010928700109288001092890087
:1013C0007FC02091CE003091CF008091C5009091D8
:1013D000C6008901081B190BB801012E000C880BEF
:1013E000990BC0908600D0908700E0908800F09024
:1013F0008900C60ED71EE81EF91EC0928600D09244
:101400008700E0928800F09289000E94090F2CEE7C
:1014100031E548E35DE30E94FD0F4B015C01C7012C
:10142000B6010E94090F2EE830E44CEB5CE30E9409
:10143000FD0F9B01AC01C501B4010E94E90D6B01D8
:101440007C0180918A0090918B00B801681B790B18
:10145000072E000C880B990B0E94090F2AE037ED2C
:1014600043E25DE30E94FD0F9B01AC01C701B601A1
:101470000E94E90D0E94D10E7093E5006093E40094
:1014800010938B0000938A008091E4009091E50016
:101490008F3F910541F03CF04FEF50E05093E50055
:1014A0004093E4000DC08091E4009091E50081300C
:1014B0009F4F34F481E09FEF9093E5008093E40028
:1014C0008091D500813009F096C08091CC00909138
:1014D000CD00892B89F41092E3001092E200109263
:1014E000850010928400109280001092810010926A
:1014F0008200109283007FC02091CC003091CD00FB
:101500008091C3009091C4008901081B190BB80198
:10151000012E000C880B990BC0908000D0908100A8
:10152000E0908200F0908300C60ED71EE81EF91EE0
:10153000C0928000D0928100E0928200F0928300FD
:101540000E94090F2CEE31E548E35DE30E94FD0F98
:101550004B015C01C701B6010E94090F2EE830E47F
:101560004CEB5CE30E94FD0F9B01AC01C501B40193
:101570000E94E90D6B017C018091840090918500AF
:10158000B801681B790B072E000C880B990B0E9481
:10159000090F2AE037ED43E25DE30E94FD0F9B0156
:1015A000AC01C701B6010E94E90D0E94D10E7093F3
:1015B000E3006093E2001093850000938400809123
:1015C000E2009091E3008F3F910541F03CF0EFEF96
:1015D000F0E0F093E300E093E2000DC08091E200C0
:1015E0009091E30081309F4F34F421E03FEF30933E
:1015F000E3002093E2008091D400813009F096C08E
:101600008091CA009091CB00892B89F41092E1005F
:101610001092E00010927F0010927E0010927A00EB
:1016200010927B0010927C0010927D007FC0209170
:10163000CA003091CB008091C1009091C200890115
:10164000081B190BB801012E000C880B990BC090D8
:101650007A00D0907B00E0907C00F0907D00C60E78
:10166000D71EE81EF91EC0927A00D0927B00E0924D
:101670007C00F0927D000E94090F2CEE31E548E3DA
:101680005DE30E94FD0F4B015C01C701B6010E94A2
:10169000090F2EE830E44CEB5CE30E94FD0F9B0148
:1016A000AC01C501B4010E94E90D6B017C01809180
:1016B0007E0090917F00B801681B790B072E000C0B
:1016C000880B990B0E94090F2AE037ED43E25DE396
:1016D0000E94FD0F9B01AC01C701B6010E94E90DFC
:1016E0000E94D10E7093E1006093E00010937F00A0
:1016F00000937E008091E0009091E1008F3F910582
:1017000041F03CF04FEF50E05093E1004093E00097
:101710000DC08091E0009091E10081309F4F34F442
:1017200081E09FEF9093E1008093E00090B326B3B7
:101730009074892F90E033E0959587953A95E1F77D
:10174000922F9770892B80958F708093A90080913C
:10175000E6009091E700209166003091670028171D
:101760003907C9F18091E6009091E700892B19F4BF
:1017700085B3837F1CC080916900811107C080916F
:10178000E6009091E7001816190654F08091690060
:10179000882351F08091E6009091E70097FF04C004
:1017A00085B3877F846003C085B38B7F886085BBEA
:1017B0008091E6009091E700909367008093660027
:1017C0008091E6009091E70097FF03C09195819585
:1017D00091099BBD8ABD8091E4009091E500209124
:1017E00064003091650028173907C9F18091E40041
:1017F0009091E500892B19F485B38F7C1CC08091F2
:101800006800811107C08091E4009091E5001816EE
:10181000190654F080916800882351F08091E4000B
:101820009091E50097FF04C085B38F7D806103C070
:1018300085B38F7E806285BB8091E4009091E50046
:1018400090936500809364008091E4009091E5009E
:1018500097FF03C091958195910999BD88BD8091AD
:10186000E2009091E300209162003091630028171C
:101870003907C1F18091E2009091E300892B19F4BE
:1018800085B38F731CC08091D300811107C08091F4
:10189000E2009091E3001816190654F08091D300ED
:1018A000882351F08091E2009091E30097FF04C0FB
:1018B00085B38F77806403C085B38F7B806885BBD9
:1018C0008091E2009091E300909363008093620026
:1018D0008091E2009091E30097FF03C0919581957C
:1018E000910983BD8091E0009091E100209160001A
:1018F0003091610028173907C1F18091E000909183
:10190000E100892B19F482B3837F1CC08091D2003F
:10191000811107C08091E0009091E100181619062E
:1019200054F08091D200882351F08091E000909192
:10193000E10097FF04C082B3877F846003C082B355
:101940008B7F886082BB8091E0009091E100909352
:101950006100809360008091E0009091E10097FF2A
:1019600003C09195819591098CBF8091AC008F5FE8
:101970008093AC0085B7806885BF889585B78F77E1
:1019800085BFAFC9ACE0B0E0E8ECFCE00C94E4103B
:101990006C015B017A01FC0117821682838181FF51
:1019A0000EC1CE0101964C01F6010381F50103FD44
:1019B000159103FF11915F01112309F4FCC0153249
:1019C00049F403FD159103FF11915F01153211F0E8
:1019D00020E01BC0B601812F90E00E948F113701DB
:1019E0007301E2CF112309F4E6C0612F70E08BEBA5
:1019F00091E02C870E9439112C85892B49F0F50143
:101A000003FD159103FF11915F0127FFEBCF09C083
:101A1000133229F01C3609F0D5C02068F0CF20E140
:101A2000EECF022F112309F4C6C0612F70E084EBC2
:101A300091E02C870E9439112C85892B41F03701C8
:101A4000F4E06F0E711CB6018FE390E011C0133605
:101A500039F0133781F0133519F5022F01600BC0EF
:101A6000370182E0680E711CB601F7018081918117
:101A70000E948F11B5CF3701F2E06F0E711CF70194
:101A8000E080F180F70100FD859100FF81917F01E9
:101A9000882309F4A5CFB60190E00E948F11F2CF00
:101AA000143611F0193629F5370127FF09C0F4E083
:101AB0006F0E711CF70160817181828193810AC070
:101AC000F2E06F0E711CF70160817181072E000C2E
:101AD000880B990B022F0F7E97FF08C09095809579
:101AE000709561957F4F8F4F9F4F00642AE030E0E3
:101AF00033C0103799F040F41835B1F01F3609F0B3
:101B00005AC028E030E014C0153719F0183741F0FA
:101B100052C0022F0F7E2AE030E00AC0022F00617F
:101B2000046220E130E004C0022F046020E132E0D2
:101B3000370107FF09C0F4E06F0E711CF7016081E7
:101B400071818281938108C0F2E06F0E711CF701F0
:101B50006081718180E090E0A4010E94F711182F4C
:101B6000181906FF05C0B6018DE290E00E948F11A2
:101B700004FF15C0FE01E10FF11D8081803379F073
:101B8000B60180E390E00E948F1102FF08C000724E
:101B9000802F90E0B601885A9F4F0E948F111150FC
:101BA000F401E10FF11D8081B60190E00E948F11D8
:101BB0001111F5CF15CFF6018681978105C08FEF02
:101BC0009FEF02C0022F31CF2C96EEE00C94001153
:101BD0005058BB27AA270E94000E0C94AA0F0E94FF
:101BE000710F38F00E94780F20F039F49F3F19F4FC
:101BF00026F40C946E0F0EF4E095E7FB0C94680F3E
:101C0000E92F0E94CF0F58F3BA17620773078407B2
:101C1000950720F079F4A6F50C94F10F0EF4E095F9
:101C20000B2EBA2FA02D0B01B90190010C01CA0196
:101C3000A0011124FF27591B99F0593F50F4503E41
:101C400068F11A16F040A22F232F342F4427585F33
:101C5000F3CF469537952795A795F0405395C9F74B
:101C60007EF41F16BA0B620B730B840BBAF0915003
:101C7000A1F0FF0FBB1F661F771F881FC2F70EC0A2
:101C8000BA0F621F731F841F48F487957795679575
:101C9000B795F7959E3F08F0B0CF9395880F08F061
:101CA0009927EE0F9795879508950E94440F08F4A1
:101CB00081E008950E94810FE3950C94BB0F0E9470
:101CC000730E0C94AA0F0E94780F58F00E94710FA7
:101CD00040F029F45F3F29F00C94680F51110C94E7
:101CE000F20F0C946E0F0E94CF0F68F39923B1F39B
:101CF000552391F3951B550BBB27AA276217730732
:101D0000840738F09F5F5F4F220F331F441FAA1FC5
:101D1000A9F335D00E2E3AF0E0E832D09150504081
:101D2000E695001CCAF72BD0FE2F29D0660F771F2F
:101D3000881FBB1F261737074807AB07B0E809F015
:101D4000BB0B802DBF01FF2793585F4F3AF09E3F9A
:101D5000510578F00C94680F0C94F20F5F3FE4F398
:101D6000983ED4F3869577956795B795F7959F5FDD
:101D7000C9F7880F911D9695879597F90895E1E029
:101D8000660F771F881FBB1F621773078407BA0788
:101D900020F0621B730B840BBA0BEE1F88F7E095E3
:101DA00008950E94D80E6894B1110C94F20F089512
:101DB0000E94D70F88F09F5798F0B92F9927B751F5
:101DC000B0F0E1F0660F771F881F991F1AF0BA95DF
:101DD000C9F714C0B13091F00E94F10FB1E008953D
:101DE0000C94F10F672F782F8827B85F39F0B93F2F
:101DF000CCF3869577956795B395D9F73EF4909592
:101E00008095709561957F4F8F4F9F4F0895E8940F
:101E100009C097FB3EF490958095709561957F4F32
:101E20008F4F9F4F9923A9F0F92F96E9BB279395E0
:101E3000F695879577956795B795F111F8CFFAF4F0
:101E4000BB0F11F460FF1BC06F5F7F4F8F4F9F4F21
:101E500016C0882311F096E911C0772321F09EE87F
:101E6000872F762F05C0662371F096E8862F70E0E5
:101E700060E02AF09A95660F771F881FDAF7880FBF
:101E80009695879597F90895990F0008550FAA0B15
:101E9000E0E8FEEF16161706E807F907C0F012167D
:101EA0001306E407F50798F0621B730B840B950B80
:101EB00039F40A2661F0232B242B252B21F40895D5
:101EC0000A2609F4A140A6958FEF811D811D089572
:101ED00097F99F6780E870E060E008959FEF80ECDD
:101EE000089500240A941616170618060906089580
:101EF00000240A94121613061406050608950C947D
:101F00006E0F0E94D70FD8F3E894E0E0BB279F57ED
:101F1000F0F02AED3FE049EC06C0EE0FBB0F661F64
:101F2000771F881F28F0B23A62077307840728F0EA
:101F3000B25A620B730B840BE3959A9572F7803853
:101F400030F49A95BB0F661F771F881FD2F7904811
:101F50000C947410092E0394000C11F4882352F091
:101F6000BB0F40F4BF2B11F460FF04C06F5F7F4FC5
:101F70008F4F9F4F0895EF93E0FF07C0A2EA2AED2D
:101F80003FE049EC5FEB0E94000E0E94AA0F0F9009
:101F9000039401FC9058E6E9F1E00C94801057FDA1
:101FA0009058440F551F59F05F3F71F04795880FC7
:101FB00097FB991F61F09F3F79F08795089512165E
:101FC00013061406551FF2CF4695F1DF08C016160A
:101FD00017061806991FF1CF8695710561050894BB
:101FE0000895E894BB2766277727CB0197F90895D2
:101FF0000E94440F08F48FEF08950E9410100C9473
:10200000AA0F0E94710F38F00E94780F20F09523DC
:1020100011F00C94680F0C946E0F11240C94F20FB5
:102020000E94CF0F70F3959FC1F3950F50E0551F9D
:10203000629FF001729FBB27F00DB11D639FAA271D
:10204000F00DB11DAA1F649F6627B00DA11D661F6C
:10205000829F2227B00DA11D621F739FB00DA11D8D
:10206000621F839FA00D611D221F749F3327A00D47
:10207000611D231F849F600D211D822F762F6A2FE3
:1020800011249F5750409AF0F1F088234AF0EE0F48
:10209000FF1FBB1F661F771F881F91505040A9F775
:1020A0009E3F510580F00C94680F0C94F20F5F3F37
:1020B000E4F3983ED4F3869577956795B795F795B1
:1020C000E7959F5FC1F7FE2B880F911D9695879529
:1020D00097F908959F930E94810F0F9007FCEE5F80
:1020E0000C94BB0F9F3F31F0915020F4879577956A
:1020F0006795B795880F911D9695879597F90895DF
:102100009F938F937F936F93FF93EF939B01AC010A
:102110000E94FD0FEF91FF910E9494102F913F912B
:102120004F915F910C94FD0FDF93CF931F930F930B
:10213000FF92EF92DF927B018C01689406C0DA2E49
:10214000EF010E941010FE01E894A59125913591B0
:1021500045915591A6F3EF010E94000EFE019701F3
:10216000A801DA9469F7DF90EF90FF900F911F912B
:10217000CF91DF910895052E97FB1EF400940E94E5
:10218000D21057FD07D00E94171107FC03D04EF460
:102190000C94D21050954095309521953F4F4F4F5C
:1021A0005F4F089590958095709561957F4F8F4F03
:1021B0009F4F0895EE0FFF1F0590F491E02D0994B5
:1021C0002F923F924F925F926F927F928F929F9247
:1021D000AF92BF92CF92DF92EF92FF920F931F9335
:1021E000CF93DF93CDB7DEB7CA1BDB0B0FB6F894E6
:1021F000DEBF0FBECDBF09942A88398848885F8426
:102200006E847D848C849B84AA84B984C884DF8096
:10221000EE80FD800C811B81AA81B981CE0FD11D7A
:102220000FB6F894DEBF0FBECDBFED010895A1E259
:102230001A2EAA1BBB1BFD010DC0AA1FBB1FEE1F40
:10224000FF1FA217B307E407F50720F0A21BB30B8B
:10225000E40BF50B661F771F881F991F1A9469F707
:1022600060957095809590959B01AC01BD01CF0163
:102270000895FC010590061621F00020D9F7C00151
:1022800008953197CF0108950F931F93CF93DF9354
:10229000009731F46115710519F480E090E03AC0BF
:1022A0008B01EC016EE070E081E090E00E9455123D
:1022B000FC01892B91F380E883830115110571F0EE
:1022C0001387028781E8838380915E0190915F018B
:1022D000892B21F4F0935F01E0935E012097C9F010
:1022E000D187C087838182608383809160019091D0
:1022F0006101892B71F4F0936101E0936001809199
:10230000620190916301892B21F4F0936301E093C2
:102310006201CF01DF91CF911F910F9108950F932B
:102320001F93CF93DF93FB01238121FD03C08FEF28
:102330009FEF28C022FF16C0468157812481358136
:102340004217530744F4A081B1819D012F5F3F4F95
:10235000318320838C93268137812F5F3F4F3783D2
:10236000268310C0EB01092F182F0084F185E02D82
:102370000995892BE1F68E819F8101969F838E833B
:10238000812F902FDF91CF911F910F9108950F937F
:102390001F93CF93DF93E0916001F091610123815E
:1023A00021FF1BC08C01D0E0C0E0F80181918F01BA
:1023B0006091600170916101DB011896ED91FC91D3
:1023C0001997882331F00995892B79F3DFEFCFEF47
:1023D000ECCF8AE00995892B19F08FEF9FEF02C0AF
:1023E0008D2F9C2FDF91CF911F910F910895FA01AE
:1023F000AA27283051F1203181F1E8946F936E7F44
:102400006E5F7F4F8F4F9F4FAF4FB1E03ED0B4E034
:102410003CD0670F781F891F9A1FA11D680F791F75
:102420008A1F911DA11D6A0F711D811D911DA11D86
:1024300020D009F468943F912AE0269F1124301996
:10244000305D3193DEF6CF010895462F4770405D31
:102450004193B3E00FD0C9F7F6CF462F4F70405DE0
:102460004A3318F0495D31FD4052419302D0A9F73B
:10247000EACFB4E0A6959795879577956795BA9535
:10248000C9F700976105710508959B01AC010A2EFB
:1024900006945795479537952795BA95C9F7620FD2
:1024A000731F841F951FA01D08950F931F93CF9333
:1024B000DF93869F8001879F100D969F100D11243A
:1024C000C8010E947112EC01009729F0A80160E098
:1024D00070E00E949E13CE01DF91CF911F910F916A
:1024E0000895CF93DF938230910510F482E090E05D
:1024F000E0916601F091670120E030E0C0E0D0E0BB
:10250000309711F14081518148175907C0F04817A1
:10251000590761F482819381209719F09B838A8304
:102520002BC0909367018093660126C02115310569
:1025300019F04217530718F49A01BE01DF01EF01A9
:102540000280F381E02DDCCF2115310509F1281B34
:10255000390B2430310590F412968D919C9113978C
:102560006115710521F0FB019383828304C0909370
:10257000670180936601FD01329644C0FD01E20FC0
:10258000F31F81939193225031092D933C933AC0CC
:102590002091640130916501232B41F420916C005E
:1025A00030916D00309365012093640120916A00A1
:1025B00030916B002115310541F42DB73EB74091A4
:1025C0006E0050916F00241B350BE0916401F09177
:1025D0006501E217F307A0F42E1B3F0B28173907FC
:1025E00078F0AC014E5F5F4F2417350748F04E0F6F
:1025F0005F1F50936501409364018193919302C0E2
:10260000E0E0F0E0CF01DF91CF9108950F931F93A9
:10261000CF93DF93009709F48CC0FC0132971382AB
:10262000128200916601109167010115110581F474
:1026300020813181820F931F2091640130916501C7
:102640002817390779F5F0936501E093640171C0AB
:10265000D80140E050E0AE17BF0750F412962D911C
:102660003C911397AD012115310509F1D901F3CF43
:102670009D01DA013383228360817181860F971F68
:102680008217930769F4EC0128813981260F371FDF
:102690002E5F3F4F318320838A819B819383828386
:1026A000452B29F4F0936701E093660142C013962D
:1026B000FC93EE931297ED01499159919E01240FDD
:1026C000351FE217F30771F480819181840F951F04
:1026D000029611969C938E938281938113969C937C
:1026E0008E931297E0E0F0E0D80112968D919C91C4
:1026F0001397009719F0F8018C01F6CF8D919C91FA
:1027000098012E5F3F4F820F931F209164013091FB
:1027100065012817390769F4309729F41092670189
:102720001092660102C01382128210936501009319
:102730006401DF91CF911F910F910895DC0101C0D9
:0E2740006D9341505040E0F70895F894FFCF9C
:10274E0000800080008000800101000068012000F0
:0A275E000D0A53746172740D00003F
:00000001FF
