:100000000C945C000C9479000C9479000C947900A9
:100010000C9479000C9479000C9479000C9479007C
:100020000C9479000C94F0040C9479000C947900F1
:100030000C9479000C94CD050C9479000C94790003
:100040000C9479000C9479000C9479000C947B004A
:100050000C9479007901C9017C01C9017F01C901B2
:100060008101C901C901C901C901C901C901C90188
:1000700083019C0188019C0192019C0197019C01D4
:10008000C901C901C901C901C901C901C901C90120
:100090009F01A401A901AE01B301B801BD01C201D4
:1000A00045464765666700202B2D2E3031323334AC
:1000B000353637383968000011241FBECFE5D8E047
:1000C000DEBFCDBF10E0A0E6B0E0E0EFFBE102C094
:1000D00005900D92A837B107D9F721E0A8E7B0E065
:1000E00001C01D92A034B207E1F70E94C2060C9431
:1000F000F60D0C9400001F920F920FB60F92112470
:100100002F938F939F93AF93BF93EF93FF9381B1FF
:10011000887F803881F040F4803609F043C185EC57
:1001200086BF1092CA0043C1883A09F4D5C0883B03
:1001300009F4D2C037C18091CA00813209F495C058
:1001400068F5843009F479C060F4813009F4A7C0FF
:1001500008F45EC0823009F464C0833009F49FC0A3
:1001600019C1873009F49BC090F4853009F497C019
:10017000863009F00FC183B120919E0090E0922B50
:100180009093C4008093C3001092B60000C18830E1
:1001900009F45FC0803209F482C0FCC0873209F4E0
:1001A00082C0F0F4843209F47AC098F4823209F4FF
:1001B00076C0833209F0EEC083B120919E0090E0BA
:1001C000922B9093AE008093AD0081E08093B700B6
:1001D000DEC0853209F456C0863209F460C0DAC048
:1001E000823909F471C050F4803909F469C0813949
:1001F00009F0D0C083B18093B300C9C0833909F43A
:1002000067C08F3F09F0C6C083B18093C900C2C0E8
:1002100083B18093CA008091CA0081508093CA0044
:10022000B6C083B120919E0090E0922B9093C800BD
:100230008093C7001092B800AAC083B120919E009D
:1002400090E0922B9093C6008093C5001092B70067
:100250009EC083B120919E0090E0922B9093C200AB
:100260008093C1001092B50092C083B120919E008E
:1002700090E0922B9093B0008093AF0081E0809348
:10028000B80085C083B120919E0090E0922B90939E
:10029000AC008093AB0081E08093B60078C083B15E
:1002A00080939E0074C083B120919E0090E0922BB9
:1002B0009093AA008093A90081E08093B50067C065
:1002C00083B18093B40063C083B18093B2005FC0F8
:1002D00083B18093B1005BC08091CA0090E0FC01C3
:1002E0003297E632F10508F054C0E65DFF4F0C94FA
:1002F000710B8AB59BB54AC088B599B547C083B51F
:1003000045C08CB743C08091BF009091C00004C02D
:100310008091BD009091BE0090939D0080939C00C1
:1003200093B935C08091BB009091BC00F5CF80910E
:10033000B9009091BA00F0CF80919C0027C08091C5
:10034000AF009091B000ECCF8091AF009091B000E1
:100350001DC08091AD009091AE00E2CF8091AD00C4
:100360009091AE0013C08091AB009091AC00D8CFBB
:100370008091AB009091AC0009C08091A900909150
:10038000AA00CECF8091A9009091AA0083B985ECF4
:1003900002C013B885E886BF8091CA008F5F809342
:1003A000CA0005C086B78B7E86BF85EC86BFFF91ED
:1003B000EF91BF91AF919F918F912F910F900FBEB1
:1003C0000F901F9018954F925F926F927F928F922D
:1003D0009F92AF92BF92CF92DF92EF92FF92CF9314
:1003E000DF938091B800813009F0B7C06091BF0001
:1003F0007091C00080919A0090919B00681B790BCE
:10040000882777FD8095982F0E94630A2AE037EDB0
:1004100043EA5CE30E94C8090E94300A7093A60078
:100420006093A5002091AF003091B000232B29F4F8
:100430001092C8001092C70088C0C091AF00D09140
:10044000B000C61BD70B4E01AA2497FCA094BA2C6F
:10045000C0909600D0909700E0909800F09099009E
:10046000C80CD91CEA1CFB1CC0929600D0929700C5
:10047000E0929800F09299006091C7007091C800D6
:10048000882777FD8095982F0E94630A2B013C01F5
:10049000C501B4010E94630A20E030E040E251E46B
:1004A0000E94EF0A4B015C01C701B6010E94630A7A
:1004B00020E030E0A9010E94EF0A9B01AC01C501D8
:1004C000B4010E9464096B017C01809194009091B9
:1004D0009500BE01681B790B882777FD8095982FC2
:1004E0000E94630A20E030E0A9010E94EF0A9B010C
:1004F000AC01C701B6010E9464099B01AC01C301B4
:10050000B2010E9464090E94300A7093C80060938F
:10051000C700D0939500C09394008091C70090913C
:10052000C8008F3F910521F01CF08FEF90E009C0CB
:100530008091C7009091C80081309F4F34F481E0D2
:100540009FEF9093C8008093C7008091BF00909167
:10055000C00090939B0080939A008091B7008130F7
:1005600009F0B7C06091BD007091BE00809192000B
:1005700090919300681B790B882777FD8095982FC1
:100580000E94630A2AE037ED43EA5CE30E94C8094F
:100590000E94300A7093A4006093A3002091AD00E4
:1005A0003091AE00232B29F41092C6001092C500A2
:1005B00088C0C091AD00D091AE00C61BD70B4E01D4
:1005C000AA2497FCA094BA2CC0908E00D0908F00E3
:1005D000E0909000F0909100C80CD91CEA1CFB1C24
:1005E000C0928E00D0928F00E0929000F092910025
:1005F0006091C5007091C600882777FD8095982F7F
:100600000E94630A2B013C01C501B4010E94630AE8
:1006100020E030E040E251E40E94EF0A4B015C012F
:10062000C701B6010E94630A20E030E0A9010E94E0
:10063000EF0A9B01AC01C501B4010E9464096B0182
:100640007C0180918C0090918D00BE01681B790B1C
:10065000882777FD8095982F0E94630A20E030E07C
:10066000A9010E94EF0A9B01AC01C701B6010E94DB
:1006700064099B01AC01C301B2010E9464090E949C
:10068000300A7093C6006093C500D0938D00C0936C
:100690008C008091C5009091C6008F3F910521F09C
:1006A0001CF08FEF90E009C08091C5009091C600CA
:1006B00081309F4F34F481E09FEF9093C600809388
:1006C000C5008091BD009091BE00909393008093EF
:1006D00092008091B600813009F0B7C06091BB00F4
:1006E0007091BC0080918A0090918B00681B790BFF
:1006F000882777FD8095982F0E94630A2AE037EDBE
:1007000043EA5CE30E94C8090E94300A7093A20089
:100710006093A1002091AB003091AC00232B29F411
:100720001092C4001092C30088C0C091AB00D09159
:10073000AC00C61BD70B4E01AA2497FCA094BA2C80
:10074000C0908600D0908700E0908800F0908900EB
:10075000C80CD91CEA1CFB1CC0928600D0928700F2
:10076000E0928800F09289006091C3007091C4000B
:10077000882777FD8095982F0E94630A2B013C0102
:10078000C501B4010E94630A20E030E040E251E478
:100790000E94EF0A4B015C01C701B6010E94630A87
:1007A00020E030E0A9010E94EF0A9B01AC01C501E5
:1007B000B4010E9464096B017C01809184009091D6
:1007C0008500BE01681B790B882777FD8095982FDF
:1007D0000E94630A20E030E0A9010E94EF0A9B0119
:1007E000AC01C701B6010E9464099B01AC01C301C1
:1007F000B2010E9464090E94300A7093C4006093A1
:10080000C300D0938500C09384008091C300909171
:10081000C4008F3F910521F01CF08FEF90E009C0DC
:100820008091C3009091C40081309F4F34F481E0E7
:100830009FEF9093C4008093C3008091BB00909180
:10084000BC0090938B0080938A008091B50081302A
:1008500009F0B7C06091B9007091BA008091820030
:1008600090918300681B790B882777FD8095982FDE
:100870000E94630A2AE037ED43EA5CE30E94C8095C
:100880000E94300A7093A00060939F002091A900FD
:100890003091AA00232B29F41092C2001092C100BB
:1008A00088C0C091A900D091AA00C61BD70B4E01E9
:1008B000AA2497FCA094BA2CC0907E00D0907F0010
:1008C000E0908000F0908100C80CD91CEA1CFB1C51
:1008D000C0927E00D0927F00E0928000F092810072
:1008E0006091C1007091C200882777FD8095982F94
:1008F0000E94630A2B013C01C501B4010E94630AF6
:1009000020E030E040E251E40E94EF0A4B015C013C
:10091000C701B6010E94630A20E030E0A9010E94ED
:10092000EF0A9B01AC01C501B4010E9464096B018F
:100930007C0180917C0090917D00BE01681B790B49
:10094000882777FD8095982F0E94630A20E030E089
:10095000A9010E94EF0A9B01AC01C701B6010E94E8
:1009600064099B01AC01C301B2010E9464090E94A9
:10097000300A7093C2006093C100D0937D00C09391
:100980007C008091C1009091C2008F3F910521F0C1
:100990001CF08FEF90E009C08091C1009091C200DF
:1009A00081309F4F34F481E09FEF9093C200809399
:1009B000C1008091B9009091BA0090938300809318
:1009C0008200DF91CF91FF90EF90DF90CF90BF90AA
:1009D000AF909F908F907F906F905F904F90089511
:1009E0001F920F920FB60F9211242F933F934F93A4
:1009F0008F939F9399B390FD02C080E001C083E084
:100A000091FF02C091E0892720917B00281B20FFE5
:100A10001FC080937B008091B400422F42708823D6
:100A200049F08091BF009091C000242F30E0215008
:100A3000310908C08091BF009091C00021E030E0F2
:100A4000241B3109820F931F9093C0008093BF0035
:100A500099B39695969590FD02C080E001C083E021
:100A600091FF02C091E0892720917A00281B20FF86
:100A70001FC080937A008091B300422F4270882378
:100A800049F08091BD009091BE00242F30E02150AC
:100A9000310908C08091BD009091BE0021E030E096
:100AA000241B3109820F931F9093BE008093BD00D9
:100AB00099B392959F7090FD02C080E001C083E0E1
:100AC00091FF02C091E0892720917900281B20FF27
:100AD0001FC0809379008091B200422F427088231A
:100AE00049F08091BB009091BC00242F30E0215050
:100AF000310908C08091BB009091BC0021E030E03A
:100B0000241B3109820F931F9093BC008093BB007C
:100B100099B3929596959695937090FD02C080E05A
:100B200001C083E0927011F091E089272091780054
:100B3000281B20FF1FC0809378008091B100422FB6
:100B40004270882349F08091B9009091BA00242F17
:100B500030E02150310908C08091B9009091BA006D
:100B600021E030E0241B3109820F931F9093BA00DB
:100B70008093B9008091A7009091A800019690936E
:100B8000A8008093A7009F918F914F913F912F9143
:100B90000F900FBE0F901F9018951F920F920FB6D7
:100BA0000F9211248F939F93EF93FF935F9B16C037
:100BB000E091CD00F091CE008CB1808381E0E233F2
:100BC000F80730F43196F093CE00E093CD0006C0E4
:100BD0008FEC90E09093CE008093CD00FF91EF9149
:100BE0009F918F910F900FBE0F901F9018959C01B1
:100BF0008AB188618AB9579A80B5866080BD40E025
:100C000050E084E0220F331F441F551F8A95D1F70F
:100C100060E072E18AE790E00E94520BDA01C901BC
:100C20000197A109B109892F9A2FAB2FBB27A7FDE7
:100C3000BA9580BD215029B98FEC90E09093CC00FB
:100C40008093CB009093CE008093CD0008955D9B60
:100C5000FECFFC0180818CB90895CF93DF931F9262
:100C6000CDB7DEB78983CE0101960E94270680E0CA
:100C700090E00F90DF91CF910895CF93DF93EC0137
:100C8000CE012196FC012081222319F00E94270623
:100C9000F7CFDF91CF9108955F9BFECF8CB190E0AD
:100CA00008950C944C0661E576E08DE296E00C9494
:100CB000A40BCF93DF93FC01E253FF4FA081B181DE
:100CC000EC01C453DF4F28813981A217B307A1F08B
:100CD0005D9B12C02C912CB920813181AC01455310
:100CE0005F4F2417350718F42F5F3F4F03C09C0157
:100CF00028593F4F31832083E091CB00F091CC0005
:100D00002091CD003091CE002E173F07C1F1DC01BC
:100D1000AC59BF4FCD91DC911197208128836D9103
:100D20007C9111979C012B523F4FE9013881EB01D7
:100D30002881321307C09C012C523F4FE9014881A2
:100D40004F5F48839C012D593F4F6217730728F46A
:100D5000EB012196CD93DC9302C08D939C93D1E05F
:100D6000E233FD0730F43196F093CC00E093CB00F2
:100D700006C08FEC90E09093CC008093CB00DF9185
:100D8000CF91089588E087BB8CEF84BB8CEB81BB4F
:100D90001092C90080E895E20E94F7050E94530670
:100DA00080E582B986B78B7E86BF85EC86BF81EFF2
:100DB0008FBD89E08EBD1BBC1ABC19BC18BC89E76D
:100DC00085BD13BC83BF1CBE8EE690E00E94210C43
:100DD00085B78F7885BF84E089BF7894C0E0D8E17B
:100DE0008091CA008F3F39F48091C900853A19F487
:100DF000F894FE0109958091A7009091A8008D308C
:100E0000934030F01092A8001092A7000E94E301D6
:100E10008091C7009091C8002091660030916700D2
:100E200028173907B9F18091C7009091C800892B24
:100E300019F485B38C6017C08091B400811107C08C
:100E40008091C7009091C8001816190654F080913F
:100E5000B400882351F08091C7009091C80097FF9B
:100E600004C085B3837F85BB02C0AA98AB9A8091EA
:100E7000C7009091C80090936700809366008091AE
:100E8000C7009091C80097FF03C091958195910983
:100E90009BBD8ABD8091C5009091C60020916400E1
:100EA0003091650028173907B9F18091C5009091FC
:100EB000C600892B19F485B3806317C08091B300F5
:100EC000811107C08091C5009091C60018161906BF
:100ED00054F08091B300882351F08091C500909127
:100EE000C60097FF04C085B38F7C85BB02C0AC9859
:100EF000AD9A8091C5009091C60090936500809353
:100F000064008091C5009091C60097FF03C0919541
:100F10008195910999BD88BD8091C3009091C400CD
:100F2000209162003091630028173907B1F1809158
:100F3000C3009091C400892B19F485B3806C17C04D
:100F40008091B200811107C08091C3009091C400CC
:100F50001816190654F08091B200882351F0809140
:100F6000C3009091C40097FF04C085B38F7385BB05
:100F700002C0AE98AF9A8091C3009091C400909344
:100F80006300809362008091C3009091C40097FF3A
:100F900003C091958195910983BD8091C100909185
:100FA000C200209160003091610028173907B1F12B
:100FB0008091C1009091C200892B19F482B38C609A
:100FC00017C08091B100811107C08091C10090913C
:100FD000C2001816190654F08091B100882351F010
:100FE0008091C1009091C20097FF04C082B3837FBB
:100FF00082BB02C09298939A8091C1009091C200E6
:1010000090936100809360008091C1009091C20034
:1010100097FF03C09195819591098CBF85B7806832
:1010200085BF889585B78F7785BFDACE6F927F921F
:101030009F92AF92BF92CF92DF92EF92FF920F9367
:101040001F93CF93DF93CDB7DEB72C970FB6F894ED
:10105000DEBF0FBECDBF8C017B013A01FC011782C0
:101060001682838181FF19C1CE0101965C01F801CE
:10107000D380F701D3FC2591D3FE21917F01222358
:1010800009F407C1253249F4D3FC2591D3FE2191FF
:101090007F01253211F0912C1BC0B801822F90E006
:1010A0000E94EF0B63013601E2CF222309F4F1C065
:1010B000622F70E087EA90E02C870E94990B2C85C4
:1010C000892B49F0F701D3FC2591D3FE21917F01B3
:1010D00097FEEBCF0CC0233221F4F92DF0619F2E47
:1010E000F1CF2C3639F4292D2068922EEBCF222314
:1010F00009F4CFC0622F70E080EA90E02C870E9454
:10110000990B2C85892B41F06301F4E0CF0ED11CA3
:10111000B8018FE390E012C0233641F0233789F005
:10112000233521F5F92DF1609F2E0BC0630122E0DC
:10113000C20ED11CB801F301808191810E94EF0B96
:10114000B2CF630122E0C20ED11CF3016080718036
:10115000F30190FC859190FE81913F01882309F471
:10116000A2CFB80190E00E94EF0BF2CF243611F02D
:10117000293639F5630197FE09C0F4E0CF0ED11C82
:10118000F30160817181828193810AC0F2E0CF0E08
:10119000D11CF30160817181882777FD8095982F9C
:1011A000F92DFF7E9F2E97FF09C090958095709531
:1011B00061957F4F8F4F9F4FF0649F2E2AE030E064
:1011C00038C02037A1F040F42835D1F02F3609F08F
:1011D00060C028E030E019C0253719F0283751F0F9
:1011E00058C0292D2F7E922E2AE030E00EC0892D86
:1011F0008061982E992D9462992E20E130E005C0EF
:10120000E92DE4609E2E20E132E0630197FE09C0E3
:10121000F4E0CF0ED11CF301608171818281938152
:1012200008C0F2E0CF0ED11CF3016081718180E033
:1012300090E0A5010E944E0C782E7A1896FE05C00B
:10124000B8018DE290E00E94EF0B94FE16C0FE0103
:10125000E70DF11D8081803381F0B80180E390E0DB
:101260000E94EF0B92FE09C0292D2072822F90E080
:10127000B801885A9F4F0E94EF0B7A94F501E70D51
:10128000F11D8081B80190E00E94EF0B7110F5CF45
:101290000ACFF8018681978102C08FEF9FEF2C96CD
:1012A0000FB6F894DEBF0FBECDBFDF91CF911F9177
:1012B0000F91FF90EF90DF90CF90BF90AF909F90F5
:1012C0007F906F9008955058BB27AA270ED04DC12C
:1012D0003ED130F043D120F031F49F3F11F41EF4A1
:1012E00033C10EF4E095E7FB29C1E92F4FD180F31C
:1012F000BA17620773078407950718F071F49EF513
:1013000067C10EF4E0950B2EBA2FA02D0B01B90189
:1013100090010C01CA01A0011124FF27591B99F06B
:10132000593F50F4503E68F11A16F040A22F232F77
:10133000342F4427585FF3CF469537952795A795C7
:10134000F0405395C9F77EF41F16BA0B620B730B6E
:10135000840BBAF09150A1F0FF0FBB1F661F771FDF
:10136000881FC2F70EC0BA0F621F731F841F48F494
:10137000879577956795B795F7959E3F08F0B3CF1A
:101380009395880F08F09927EE0F97958795089504
:101390000CD0EBC0E3D040F0DAD030F021F45F3F66
:1013A00019F0CCC0511115C1CFC0F0D098F39923DA
:1013B000C9F35523B1F3951B550BBB27AA27621719
:1013C0007307840738F09F5F5F4F220F331F441F5E
:1013D000AA1FA9F333D00E2E3AF0E0E830D0915096
:1013E0005040E695001CCAF729D0FE2F27D0660F83
:1013F000771F881FBB1F261737074807AB07B0E8C2
:1014000009F0BB0B802DBF01FF2793585F4F2AF0D7
:101410009E3F510568F092C0DCC05F3FECF3983E00
:10142000DCF3869577956795B795F7959F5FC9F734
:10143000880F911D9695879597F90895E1E0660FBD
:10144000771F881FBB1F621773078407BA0720F036
:10145000621B730B840BBA0BEE1F88F7E09508959F
:1014600004D06894B111B5C0089598D088F09F5702
:1014700090F0B92F9927B751A0F0D1F0660F771FE0
:10148000881F991F1AF0BA95C9F712C0B13081F0C0
:101490009FD0B1E008959CC0672F782F8827B85F50
:1014A00039F0B93FCCF3869577956795B395D9F721
:1014B0003EF490958095709561957F4F8F4F9F4F2B
:1014C0000895E89409C097FB3EF490958095709537
:1014D00061957F4F8F4F9F4F9923A9F0F92F96E980
:1014E000BB279395F695879577956795B795F111F5
:1014F000F8CFFAF4BB0F11F460FF1BC06F5F7F4F92
:101500008F4F9F4F16C0882311F096E911C07723A3
:1015100021F09EE8872F762F05C0662371F096E8AC
:10152000862F70E060E02AF09A95660F771F881F7B
:10153000DAF7880F9695879597F9089597F99F6739
:1015400080E870E060E008959FEF80EC089500244B
:101550000A941616170618060906089500240A9418
:1015600012161306140605060895092E0394000C9E
:1015700011F4882352F0BB0F40F4BF2B11F460FF2D
:1015800004C06F5F7F4F8F4F9F4F089557FD905856
:10159000440F551F59F05F3F71F04795880F97FB37
:1015A000991F61F09F3F79F08795089512161306F1
:1015B0001406551FF2CF4695F1DF08C01616170620
:1015C0001806991FF1CF8695710561050894089555
:1015D000E894BB2766277727CB0197F908950BD0AE
:1015E000C4CFB5DF28F0BADF18F0952309F0A6CFF5
:1015F000ABCF1124EECFCADFA0F3959FD1F3950FA7
:1016000050E0551F629FF001729FBB27F00DB11D86
:10161000639FAA27F00DB11DAA1F649F6627B00D16
:10162000A11D661F829F2227B00DA11D621F739FFF
:10163000B00DA11D621F839FA00D611D221F749F0D
:101640003327A00D611D231F849F600D211D822F54
:10165000762F6A2F11249F5750408AF0E1F088239B
:101660004AF0EE0FFF1FBB1F661F771F881F9150A8
:101670005040A9F79E3F510570F060CFAACF5F3F61
:10168000ECF3983EDCF3869577956795B795F795DB
:10169000E7959F5FC1F7FE2B880F911D9695879563
:1016A00097F90895052E97FB1EF400940E94690B8C
:1016B00057FD07D00E94770B07FC03D04EF40C9423
:1016C000690B50954095309521953F4F4F4F5F4F97
:1016D000089590958095709561957F4F8F4F9F4F9E
:1016E0000895EE0FFF1F0590F491E02D0994A1E2FB
:1016F0001A2EAA1BBB1BFD010DC0AA1FBB1FEE1F8C
:10170000FF1FA217B307E407F50720F0A21BB30BD6
:10171000E40BF50B661F771F881F991F1A9469F752
:1017200060957095809590959B01AC01BD01CF01AE
:101730000895FC010590061621F00020D9F7C0019C
:1017400008953197CF0108950F931F93CF93DF939F
:10175000EC018B01009731F46115710519F480E0FB
:1017600090E038C06EE070E081E090E00E94AC0C48
:10177000FC010097A1F380E883830115110571F046
:101780001387028781E88383809136019091370126
:10179000892B21F4F0933701E09336012097C9F0AB
:1017A000D187C08783818260838380913801909143
:1017B0003901892B71F4F0933901E093380180915C
:1017C0003A0190913B01892B21F4F0933B01E09386
:1017D0003A01CF01DF91CF911F910F9108950F939F
:1017E0001F93CF93DF93182F092FEB018B8181FD7E
:1017F00003C08FEF9FEF20C082FF10C04E815F813A
:101800002C813D81421753077CF4E881F9819F01C7
:101810002F5F3F4F39832883108306C0E885F98501
:10182000812F0995892B29F72E813F812F5F3F4F0B
:101830003F832E83812F902FDF91CF911F910F91A6
:1018400008950F931F93CF93DF93E0913801F091A8
:101850003901238121FF1BC0EC0100E010E08991D8
:101860006091380170913901DB011896ED91FC917E
:101870001997882331F00995892B89F30FEF1FEF12
:10188000EECF8AE00995892B11F4C80102C08FEFD1
:101890009FEFDF91CF911F910F910895FA01AA2731
:1018A000283051F1203181F1E8946F936E7F6E5FA3
:1018B0007F4F8F4F9F4FAF4FB1E03ED0B4E03CD051
:1018C000670F781F891F9A1FA11D680F791F8A1F34
:1018D000911DA11D6A0F711D811D911DA11D20D09B
:1018E00009F468943F912AE0269F11243019305D55
:1018F0003193DEF6CF010895462F4770405D419346
:10190000B3E00FD0C9F7F6CF462F4F70405D4A3392
:1019100018F0495D31FD4052419302D0A9F7EACF5A
:10192000B4E0A6959795879577956795BA95C9F789
:1019300000976105710508959B01AC010A2E06947C
:101940005795479537952795BA95C9F7620F731F35
:10195000841F951FA01D08950F931F93CF93DF93AE
:10196000869F8001879F100D969F100D1124C8013E
:101970000E94C80CEC01009729F0A80160E070E01B
:101980000E94EF0DCE01DF91CF911F910F9108952D
:10199000CF93DF938230910510F482E090E0E091E4
:1019A0003E01F0913F0120E030E0A0E0B0E0309750
:1019B00039F14081518148175907B8F04817590744
:1019C00071F482819381109729F013969C938E93E2
:1019D00012972CC090933F0180933E0127C02115A0
:1019E000310531F04217530718F0A901DB0101C09E
:1019F000EF019A01BD01DF010280F381E02DD7CF15
:101A000021153105F9F0281B390B2430310580F4FC
:101A10008A819B816115710521F0FB01938382838B
:101A200004C090933F0180933E01FE01329644C072
:101A3000FE01E20FF31F8193919322503109398304
:101A400028833AC020913C0130913D01232B41F481
:101A500020916A0030916B0030933D0120933C014E
:101A600020916800309169002115310541F42DB7AE
:101A70003EB740916C0050916D00241B350BE091F6
:101A80003C01F0913D01E217F307A0F42E1B3F0B40
:101A90002817390778F0AC014E5F5F4F24173507E0
:101AA00048F04E0F5F1F50933D0140933C018193DE
:101AB000919302C0E0E0F0E0CF01DF91CF91089573
:101AC000CF93DF93009709F487C0FC01329713820C
:101AD0001282C0913E01D0913F01209781F4208174
:101AE0003181280F391F80913C0190913D0182176F
:101AF000930779F5F0933D01E0933C016DC0DE0161
:101B000020E030E0AE17BF0750F412964D915C9183
:101B100013979D014115510509F1DA01F3CFB38304
:101B2000A28340815181840F951F8A179B0771F40E
:101B30008D919C911197840F951F029691838083BC
:101B400012968D919C911397938382832115310571
:101B500029F4F0933F01E0933E013EC0D901139672
:101B6000FC93EE9312974D915D91A40FB51FEA1768
:101B7000FB0779F480819181840F951F0296D9012A
:101B800011969C938E938281938113969C938E934E
:101B90001297E0E0F0E08A819B81009719F0FE0146
:101BA000EC01F9CFCE01029628813981820F931F73
:101BB00020913C0130913D012817390769F4309795
:101BC00029F410923F0110923E0102C0138212824A
:101BD000D0933D01C0933C01DF91CF910895DC018A
:101BE00001C06D9341505040E0F70895F894FFCF45
:101BF00000800080008000800000400120000D0A6D
:081C000053746172740D0000C1
:00000001FF
