:100000000C9445000C9462000C9462000C94620005
:100010000C9462000C9462000C9462000C946200D8
:100020000C9462000C94DF030C9462000C94620048
:100030000C9462000C94CA040C9462000C9462004C
:100040000C9462000C9462000C9462000C946400A6
:100050000C94620005A84CCDB2D44EB93836A90232
:100060000C50B9918688083CA6AAAA2ABE000000B6
:10007000803F45464765666700202B2D2E30313284
:100080003334353637383968000011241FBECFE5C8
:10009000D8E0DEBFCDBF10E0A0E6B0E0EEE3F2E2D4
:1000A00002C005900D92A437B107D9F721E0A4E76B
:1000B000B0E001C01D92AD34B207E1F70E94C00567
:1000C0000C941D110C9400001F920F920FB60F920A
:1000D00011240F931F932F933F934F935F936F932D
:1000E0007F938F939F93AF93BF93EF93FF9381B1D0
:1000F000887F803881F040F4803609F048C385EC71
:1001000086BF1092CE0048C3883A09F46EC1883B7E
:1001100009F46BC13CC38091CE008C3209F4E9C074
:10012000D8F5813209F48CC0A0F4823009F470C093
:1001300038F4882309F463C0813009F48EC01FC3EA
:10014000843009F471C008F488C0803209F485C095
:1001500016C3883209F4CDC088F4823209F47DC018
:10016000833209F00CC383B12091960090E0922B6A
:100170009093BB008093BA0081E0A7C040919200A9
:100180005091930060919400709195008A3209F427
:1001900068C008F466C074C0833509F4C6C0A0F412
:1001A0008F3209F495C038F48D3209F4A7C08E322D
:1001B00009F4A4C0E4C2813509F4A0C008F09EC0CF
:1001C000803509F496C0DBC2873509F4E4C050F4E9
:1001D000853509F4C9C008F0C7C083B190E0A0E03C
:1001E000B0E0D0C0813909F4F8C08F3F09F4F9C0FC
:1001F000803909F0C4C283B18093BE00BDC283B10F
:100200008093CE008091CE0081508093CE00B4C206
:1002100083B12091960090E0922B9093CC00809334
:10022000CB001092C000A8C283B12091960090E04C
:10023000922B9093CA008093C9001092BF009CC279
:1002400083B12091960090E0922B9093BD00809313
:10025000BC0081E08093C0008FC283B18093960080
:100260008BC283B1762F652F542F4427482B4093A0
:1002700092005093930060939400709395007CC219
:1002800083B1762F652F542F44278A019B01082BB9
:10029000C901B80160939200709393008093940019
:1002A0009093950023E33BE542E855E40E947B0DE3
:1002B0000E944F0C7093BD006093BC007093BB0014
:1002C0006093BA0081E08093C0008093BF0054C265
:1002D00023B18091920090919300A0919400B091ED
:1002E0009500BA2FA92F982F8827BC01CD01622B2A
:1002F000D1CF83B190E0A0E0B0E00EC023B18091F7
:10030000920090919300A0919400B0919500BA2F23
:10031000A92F982F8827822B809392009093930087
:10032000A0939400B093950027C223B180919200CE
:1003300090919300A0919400B0919500BA2FA92FAD
:10034000982F8827822B8093920090939300A093FC
:100350009400B09395008093CF009093D000A09329
:10036000D100B093D20008C223B180918E00909149
:100370008F00A0919000B0919100BA2FA92F982FD3
:100380008827822B80938E0090938F00A0939000FB
:10039000B0939100F1C123B180918E0090918F00B4
:1003A000A0919000B0919100BA2FA92F982F882783
:1003B000822B80938E0090938F00A0939000B09337
:1003C00091008093D3009093D400A093D500B09374
:1003D000D60081E08093D700CFC183B180936400C1
:1003E000CBC183B18093CD00CAC18091CE00883348
:1003F00009F426C108F067C0803209F4F9C058F545
:10040000823109F4E3C088F4843009F4D7C030F4B1
:10041000823009F0B3C18AB59BB5ADC1803109F412
:10042000D0C0813109F4E1C0A9C1853109F4DDC032
:1004300058F4833109F4D9C0843109F09FC1809107
:10044000C3009091C400C6C0863109F4C9C0873189
:1004500009F4CBC093C1823309F4DEC0D0F48332F7
:1004600009F4D0C058F4813209F4C7C0823209F0CF
:1004700085C18091BA009091BB00B0C0803309F46F
:10048000C6C0813309F07AC18091B7009091B8005D
:1004900072C1853309F4CAC058F4833309F4C1C06A
:1004A000843309F06BC18091B3009091B40096C081
:1004B000863309F4C0C0873309F060C18091B10070
:1004C0009091B20058C1833409F408C1D0F58D333E
:1004D00009F4E9C0E0F48A3309F4CCC008F4C1C0DF
:1004E0008B3309F4D0C08C3309F048C18091990056
:1004F00090919A00A0919B00B0919C0080938E00F7
:1005000090938F00A0939000B0939100C7C0803467
:1005100009F4BCC038F48E3309F4CEC08F3309F42B
:100520001AC12CC1813409F4D0C0823409F026C12B
:100530008091A9009091AA00A091AB00B091AC006D
:1005400005C1893409F4EEC010F5863409F4D8C029
:1005500078F4843409F4CBC0853409F00FC180915C
:10056000A5009091A600A091A700B091A800E2C0BC
:10057000873409F4CEC0883409F000C18091A1000D
:100580009091A200A091A300B091A40087C0803AEE
:1005900009F4EAC038F48A3409F4D0C08B3409F481
:1005A000DAC0ECC0813A09F4E4C0823A09F0E6C04E
:1005B0008091980083B985EC86BFE0C088B599B575
:1005C000DAC08091C7009091C80004C08091C50036
:1005D0009091C60090938D0080938C0093B9CCC00D
:1005E0008091C1009091C200F5CF80918C00C3C072
:1005F0008091BC009091BD00F1CF8091BC009091A2
:10060000BD00B9C08091BA009091BB00B4C0809188
:10061000B7009091B800E2CF8091B5009091B600FC
:10062000DDCF8091B5009091B600A5C08091B30058
:100630009091B400A0C08091B1009091B200CECF53
:1006400080919D0090919E00A0919F00B091A0008C
:100650008093920090939300A0939400B0939500A0
:100660001DC08091920090919300A0919400B09150
:10067000950060C08091920090919300A0919400A9
:10068000B091950063C08091920075C08091A900DF
:100690009091AA00A091AB00B091AC008B2F99274C
:1006A000AA27BB2768C080918E0090918F00A091EF
:1006B0009000B09191003EC080918E0090918F008B
:1006C000A0919000B091910041C08091A9009091BB
:1006D000AA00A091AB00B091AC002CC08091A90001
:1006E0009091AA00A091AB00B091AC0044C0809161
:1006F000A5009091A600A091A700B091A800CECF30
:100700008091A5009091A600A091A700B091A800AB
:100710001DC08091A5009091A600A091A700B09166
:10072000A80029C08091A1009091A200A091A300EF
:10073000B091A400CD01AA27BB271DC08091A100C4
:100740009091A200A091A300B091A400892F9A2FAC
:10075000AB2FBB2710C08091A1009091A200A09167
:10076000A300B091A40007C084B78F7083B914BEF2
:1007700003C08091970083B985EC02C013B885E867
:1007800086BF8091CE008F5F8093CE0005C086B774
:100790008B7E86BF85EC86BFFF91EF91BF91AF91B5
:1007A0009F918F917F916F915F914F913F912F9189
:1007B0001F910F910F900FBE0F901F9018951F92D1
:1007C0000F920FB60F9211242F933F934F935F9385
:1007D0006F937F938F939F9389B380FF02C093E0C1
:1007E00001C090E081FF02C081E0982780918B00DA
:1007F000891B80FF22C090938B002091BE00982F10
:100800009270222369F04091C7005091C80021E006
:1008100030E0B901691B7109CB01840F951F09C034
:100820002091C7003091C800892F90E00197820F76
:10083000931F9093C8008093C70089B382958F70EF
:1008400080FF02C093E001C090E081FF02C081E020
:10085000982780918A00891B80FF22C090938A008C
:100860002091BE00982F9270222369F04091C5001C
:100870005091C60021E030E0B901691B7109CB013C
:10088000840F951F09C02091C5003091C600892FA3
:1008900090E00197820F931F9093C6008093C5004C
:1008A00089B38695869580FF02C093E001C090E0F1
:1008B00081FF02C081E0982780918900891B80FF19
:1008C00022C09093890020916400982F9270222377
:1008D00051F02091C3003091C400892F90E001971E
:1008E000820F931F0CC04091C3005091C40021E0BF
:1008F00030E0B901691B7109CB01840F951F9093FA
:10090000C4008093C30089B38295869586958370D1
:1009100080FF02C093E001C090E0827011F081E09E
:10092000982780918800891B80FF22C090938800BF
:1009300020916400982F9270222369F04091C100A9
:100940005091C20021E030E0B901691B7109CB016F
:10095000840F951F09C02091C1003091C200892FDA
:1009600090E00197820F931F9093C2008093C10083
:100970008091B9008F5F8093B9009F918F917F9193
:100980006F915F914F913F912F910F900FBE0F90FC
:100990001F9018951F920F920FB60F9211248F93EC
:1009A0009F93EF93FF935F9B16C0E091DA00F09165
:1009B000DB008CB1808381E0EF33F80730F43196AF
:1009C000F093DB00E093DA0006C08CED90E09093AA
:1009D000DB008093DA00FF91EF919F918F910F9050
:1009E0000FBE0F901F9018959C018AB188618AB93B
:1009F000579A80B5866080BDC901A0E0B0E09C0137
:100A0000AD0184E0220F331F441F551F8A95D1F793
:100A100060E079E08DE390E00E94390EDA01C901CF
:100A20000197A109B109892F9A2FAB2FBB27A7FDE9
:100A3000BA9580BD215029B98CED90E09093D900F2
:100A40008093D8009093DB008093DA0008955D9B3B
:100A5000FECFFC0180818CB90895CF93DF931F9264
:100A6000CDB7DEB78983CE0101960E94270580E0CD
:100A700090E00F90DF91CF910895CF93DF93EC0139
:100A8000CE012196FC012081222319F00E94270526
:100A9000F7CFDF91CF9108955F9BFECF8CB190E0AF
:100AA00008950C944C0561E575E08DE295E00C9499
:100AB000BC0ECF93DF93FC01E253FF4FA081B181C5
:100AC000EC01C453DF4F28813981A217B307A1F08D
:100AD0005D9B12C02C912CB920813181AC01455312
:100AE0005F4F2417350718F42F5F3F4F03C09C0159
:100AF00028593F4F31832083E091D800F091D900ED
:100B00002091DA003091DB002E173F07B1F1EC01A4
:100B1000CC59DF4FA881B98120812C9368817981DC
:100B20009C012B523F4FD9013C91DB012C91321398
:100B300007C0AC014C525F4FDA012C912F5F2C9310
:100B40009C012D593F4F6217730728F4DB01119662
:100B5000B983A88302C099838883B1E0EF33FB0790
:100B600030F43196F093D900E093D80006C08CEDB4
:100B700090E09093D9008093D800DF91CF910895B1
:100B8000CF93DF93CDB7DEB76C970FB6F894DEBF87
:100B90000FBECDBF88E087BB8CEF84BB8CEB81BBE5
:100BA0001092CD0080E895E20E94F4040E94530563
:100BB00080E582B986B78B7E86BF85EC86BF81EAE9
:100BC0008FBD89E08EBD1BBC1ABC19BC18BC8BE65E
:100BD00090E00E943F0F85B78F7885BF84E089BF82
:100BE00078942224239433243A940FEF10E08091D8
:100BF000CE008F3F41F48091CD00853A21F4F894E6
:100C0000E0E0F8E109958091D700882309F455C008
:100C1000F894C090CF00D090D000E090D100F09038
:100C2000D2006091D3007091D4008091D500909152
:100C3000D6001092D70078942BED3FE049E450E4C1
:100C40000E947B0D27EB3BE04DEB5EE30E947B0DAA
:100C500020E030E040E05FE30E947B0DA7019601B9
:100C60000E94670B4B015C01A7019601C701B60109
:100C70000E94670BA50194010E94660B23E33BE5EC
:100C800042E855E40E947B0D0E944F0C7093BD001A
:100C90006093BC0023E33BE542E855E4C501B401A1
:100CA0000E947B0D0E944F0C7093BB006093BA00B2
:100CB000F1E0F093C000F093BF008091B9008C394F
:100CC00008F4D6C31092B900F8942091C70030916F
:100CD000C8003A8329834091C5005091C6005C83C7
:100CE0004B838091C3009091C4009E838D83E091DB
:100CF000C100F091C200FC8FEB8F78948091860048
:100D0000909187007901E81AF90A80918400909106
:100D100085006A01C81AD90A8091820090918300E7
:100D20006D807E80681A790A8091800090918100A0
:100D30002F01481A590AB7010F2C000C880B990B88
:100D40000E94870C2AE037ED43E25CE30E94DD0B52
:100D50000E944F0C6F83788789879A87B6010D2C84
:100D6000000C880B990B0E94870C2AE037ED43E2B8
:100D70005CE30E94DD0B0E944F0C6B877C878D87A4
:100D80009E87B301072C000C880B990B0E94870CDF
:100D90002AE037ED43E25CE30E94DD0B0E944F0C3A
:100DA0006F87788B898B9A8BB201052C000C880B8E
:100DB000990B0E94870C2AE037ED43E25CE30E9426
:100DC000DD0B0E944F0C6B8B7C8B8D8B9E8BB70148
:100DD0006C0D7D1D072E000C880B990B0E94870C53
:100DE00023E33BE542E056E40E94DD0B4B015C014E
:100DF000B301640D751D072E000C880B990B0E9422
:100E0000870C23E33BE542E056E40E94DD0B2B0117
:100E10003C01C090A100D090A200E090A300F0900F
:100E2000A400A50194010E94660B27EB3BE04DEB6B
:100E30005EE30E94DD0B9B01AC01C701B6010E947D
:100E4000670B6B017C012BED3FE049EC50E40E9405
:100E5000760D18164CF42BED3FE049EC50E4C70139
:100E6000B6010E94660B12C02BED3FE049EC50EC3E
:100E7000C701B6010E94D30B87FF0AC02BED3FE0EC
:100E800049EC50E4C701B6010E94670B6B017C017D
:100E9000A3019201C501B4010E94670B20E030E07C
:100EA00040E05FE30E947B0D4B015C014090A90094
:100EB0005090AA006090AB007090AC00C701B601E2
:100EC0000E94D80BA50194010E947B0D9B01AC01EF
:100ED000C301B2010E94670B6F8B788F898F9A8F45
:100EE0004090A5005090A6006090A7007090A800C8
:100EF000C701B6010E94E80DA50194010E947B0D77
:100F00009B01AC01C301B2010E94670B2B013C01A4
:100F10008B859C852F813885820F931F97FD0196C5
:100F2000959587959093B0008093AF008B899C89AD
:100F30004F855889840F951F97FD01969595879544
:100F40009093AE008093AD006091AF007091B000BF
:100F50008091AD009091AE00680F791F072E000CB4
:100F6000880B990B0E94870C23E33BE542E056E493
:100F70000E94DD0B4B015C016091AD007091AE00F1
:100F80008091AF009091B000681B790B072E000C88
:100F9000880B990B0E94870C29E935E347E955E452
:100FA0000E94DD0BF894C092A100D092A200E092C2
:100FB000A300F092A4002F89388D498D5A8D20937B
:100FC000A9003093AA004093AB005093AC0040922C
:100FD000A5005092A6006092A7007092A8004F81D1
:100FE00058855093B8004093B700EB85FC85F0938B
:100FF000B600E093B5002F8538893093B400209374
:10100000B3004B895C895093B2004093B100809249
:101010009D0090929E00A0929F00B092A0006093CD
:10102000990070939A0080939B0090939C00789411
:1010300089819A819093870080938600EB81FC815F
:10104000F0938500E09384002D813E8130938300EE
:10105000209382004B8D5C8D5093810040938000E3
:101060008091C000813009F091C08091BC009091C6
:10107000BD00892B89F41092CC001092CB00109205
:101080007F0010927E0010927A0010927B001092E6
:101090007C0010927D007AC0E090BC00F090BD0012
:1010A0008091AF009091B000E81AF90AB7010F2CB7
:1010B000000C880B990B80907A0090907B00A09098
:1010C0007C00B0907D00860E971EA81EB91E8092EF
:1010D0007A0090927B00A0927C00B0927D000E94EA
:1010E000870C2CEE31E548E35DE30E947B0D2B017C
:1010F0003C01C501B4010E94870C2EE830E44CEBA2
:101100005CE30E947B0D9B01AC01C301B2010E9414
:10111000670B4B015C0180917E0090917F00B701CD
:10112000681B790B072E000C880B990B0E94870C0B
:101130002AE037ED43E25DE30E947B0D9B01AC01A9
:10114000C501B4010E94670B0E944F0C7093CC0044
:101150006093CB00F0927F00E0927E008091CB0004
:101160009091CC008F3F910531F02CF01093CC0082
:101170000093CB000BC08091CB009091CC008130CC
:101180009F4F24F43092CC002092CB008091BF007E
:10119000813009F091C08091BA009091BB00892BF9
:1011A00089F41092CA001092C9001092790010922E
:1011B00078001092740010927500109276001092D0
:1011C00077007AC0E090BA00F090BB008091AD004B
:1011D0009091AE00E81AF90AB7010F2C000C880BA9
:1011E000990B8090740090907500A0907600B0905C
:1011F0007700860E971EA81EB91E809274009092EA
:101200007500A0927600B09277000E94870C2CEEB9
:1012100031E548E35DE30E947B0D2B013C01C501F4
:10122000B4010E94870C2EE830E44CEB5CE30E9492
:101230007B0D9B01AC01C301B2010E94670B4B0106
:101240005C018091780090917900B701681B790B5F
:10125000072E000C880B990B0E94870C2AE037EDB3
:1012600043E25DE30E947B0D9B01AC01C501B4012B
:101270000E94670B0E944F0C7093CA006093C900D4
:10128000F0927900E09278008091C9009091CA00B4
:101290008F3F910531F02CF01093CA000093C900E4
:1012A0000BC08091C9009091CA0081309F4F24F4F7
:1012B0003092CA002092C90086B3837080958093D3
:1012C00097002091C00080916200909163002130CE
:1012D00009F52091970020FF1DC0009729F010927A
:1012E000CC001092CB0016C02091CB003091CC00E6
:1012F000121613062CF41093CC000093CB000AC0F6
:101300002091CB003091CC0037FF04C03092CC004C
:101310002092CB002091BF00213029F52091970029
:1013200021FF21C02091600030916100232B29F022
:101330001092CA001092C90016C02091C9003091C5
:10134000CA00121613062CF41093CA000093C900A9
:101350000AC02091C9003091CA0037FF04C0309202
:10136000CA002092C9002091CB003091CC00821796
:101370009307B9F18091CB009091CC00892B21F497
:1013800085B3837F85BB1AC08091BE00811107C0E1
:101390008091CB009091CC001816190654F08091E2
:1013A000BE00882349F08091CB009091CC0097FF3C
:1013B00003C0AA9AAB9802C0AA98AB9A8091CB00BE
:1013C0009091CC0090936300809362008091CB0059
:1013D0009091CC0097FF03C09195819591099BBD99
:1013E0008ABD8091C9009091CA002091600030911F
:1013F000610028173907B9F18091C9009091CA009E
:10140000892B21F485B38F7C85BB1AC08091640041
:10141000811107C08091C9009091CA001816190661
:1014200054F080916400882349F08091C900909124
:10143000CA0097FF03C0AC9AAD9802C0AC98AD9AB1
:101440008091C9009091CA009093610080936000E0
:101450008091C9009091CA0097FF03C09195819532
:10146000910999BD88BD809198008F5F8093980005
:1014700085B7806885BF889585B78F7785BFB7CBDF
:10148000ACE0B0E0E6E4FAE00C945C0E6C015B01C9
:101490007A01FC0117821682838181FF0EC1CE0181
:1014A00001964C01F6010381F50103FD159103FF3F
:1014B00011915F01112309F4FCC0153249F403FDB9
:1014C000159103FF11915F01153211F020E01BC04F
:1014D000B601812F90E00E94070F37017301E2CF20
:1014E000112309F4E6C0612F70E089E790E02C87B2
:1014F0000E94B10E2C85892B49F0F50103FD159151
:1015000003FF11915F0127FFEBCF09C0133229F0D0
:101510001C3609F0D5C02068F0CF20E1EECF022FB5
:10152000112309F4C6C0612F70E082E790E02C8798
:101530000E94B10E2C85892B41F03701F4E06F0E2B
:10154000711CB6018FE390E011C0133639F01337E8
:1015500081F0133519F5022F01600BC0370182E0CD
:10156000680E711CB601F701808191810E94070FFE
:10157000B5CF3701F2E06F0E711CF701E080F1800A
:10158000F70100FD859100FF81917F01882309F417
:10159000A5CFB60190E00E94070FF2CF143611F0EC
:1015A000193629F5370127FF09C0F4E06F0E711CC9
:1015B000F70160817181828193810AC0F2E06F0E30
:1015C000711CF70160817181072E000C880B990B4B
:1015D000022F0F7E97FF08C09095809570956195BA
:1015E0007F4F8F4F9F4F00642AE030E033C01037A9
:1015F00099F040F41835B1F01F3609F05AC028E0D0
:1016000030E014C0153719F0183741F052C0022FDE
:101610000F7E2AE030E00AC0022F0061046220E160
:1016200030E004C0022F046020E132E0370107FF00
:1016300009C0F4E06F0E711CF70160817181828135
:10164000938108C0F2E06F0E711CF7016081718117
:1016500080E090E0A4010E946F0F182F181906FF78
:1016600005C0B6018DE290E00E94070F04FF15C08F
:10167000FE01E10FF11D8081803379F0B60180E336
:1016800090E00E94070F02FF08C00072802F90E0D8
:10169000B601885A9F4F0E94070F1150F401E10FC5
:1016A000F11D8081B60190E00E94070F1111F5CF66
:1016B00015CFF6018681978105C08FEF9FEF02C09D
:1016C000022F31CF2C96EEE00C94780E5058BB27A9
:1016D000AA270E947E0B0C94280D0E94EF0C38F074
:1016E0000E94F60C20F039F49F3F19F426F40C9474
:1016F000EC0C0EF4E095E7FB0C94E60CE92F0E944D
:101700004D0D58F3BA17620773078407950720F049
:1017100079F4A6F50C946F0D0EF4E0950B2EBA2F0C
:10172000A02D0B01B90190010C01CA01A0011124E7
:10173000FF27591B99F0593F50F4503E68F11A1693
:10174000F040A22F232F342F4427585FF3CF469524
:1017500037952795A795F0405395C9F77EF41F1646
:10176000BA0B620B730B840BBAF09150A1F0FF0F10
:10177000BB1F661F771F881FC2F70EC0BA0F621FFC
:10178000731F841F48F4879577956795B795F795EC
:101790009E3F08F0B0CF9395880F08F09927EE0F81
:1017A0009795879508950E94C20C08F481E00895EA
:1017B0000E94FF0CE3950C94390D0E94F10B0C94E0
:1017C000280D0E94F60C58F00E94EF0C40F029F40E
:1017D0005F3F29F00C94E60C51110C94700D0C94A1
:1017E000EC0C0E944D0D68F39923B1F3552391F34E
:1017F000951B550BBB27AA2762177307840738F080
:101800009F5F5F4F220F331F441FAA1FA9F335D0DC
:101810000E2E3AF0E0E832D091505040E695001C90
:10182000CAF72BD0FE2F29D0660F771F881FBB1F4A
:10183000261737074807AB07B0E809F0BB0B802D28
:10184000BF01FF2793585F4F3AF09E3F510578F054
:101850000C94E60C0C94700D5F3FE4F3983ED4F3C7
:10186000869577956795B795F7959F5FC9F7880F28
:10187000911D9695879597F90895E1E0660F771F7A
:10188000881FBB1F621773078407BA0720F0621B0B
:10189000730B840BBA0BEE1F88F7E09508950E9436
:1018A000560C6894B1110C94700D08950E94550D5A
:1018B00088F09F5798F0B92F9927B751B0F0E1F011
:1018C000660F771F881F991F1AF0BA95C9F714C0C1
:1018D000B13091F00E946F0DB1E008950C946F0D3E
:1018E000672F782F8827B85F39F0B93FCCF38695FA
:1018F00077956795B395D9F73EF490958095709557
:1019000061957F4F8F4F9F4F0895E89409C097FBD3
:101910003EF490958095709561957F4F8F4F9F4FC6
:101920009923A9F0F92F96E9BB279395F69587950A
:1019300077956795B795F111F8CFFAF4BB0F11F4CD
:1019400060FF1BC06F5F7F4F8F4F9F4F16C0882374
:1019500011F096E911C0772321F09EE8872F762FAA
:1019600005C0662371F096E8862F70E060E02AF0EB
:101970009A95660F771F881FDAF7880F96958795D7
:1019800097F90895990F0008550FAA0BE0E8FEEFAC
:1019900016161706E807F907C0F012161306E40733
:1019A000F50798F0621B730B840B950B39F40A262C
:1019B00061F0232B242B252B21F408950A2609F40A
:1019C000A140A6958FEF811D811D089597F99F670E
:1019D00080E870E060E008959FEF80EC08950024B7
:1019E0000A941616170618060906089500240A9484
:1019F000121613061406050608950C94EC0C0E94AA
:101A0000550DD8F3E894E0E0BB279F57F0F02AED9E
:101A10003FE049EC06C0EE0FBB0F661F771F881F23
:101A200028F0B23A62077307840728F0B25A620BB3
:101A3000730B840BE3959A9572F7803830F49A957E
:101A4000BB0F661F771F881FD2F790480C94F20DCA
:101A5000092E0394000C11F4882352F0BB0F40F4BC
:101A6000BF2B11F460FF04C06F5F7F4F8F4F9F4FFC
:101A70000895EF93E0FF07C0A2EA2AED3FE049ECAA
:101A80005FEB0E947E0B0E94280D0F90039401FCD7
:101A90009058E4E5F0E00C94FE0D57FD9058440F8B
:101AA000551F59F05F3F71F04795880F97FB991FBD
:101AB00061F09F3F79F0879508951216130614067A
:101AC000551FF2CF4695F1DF08C016161706180607
:101AD000991FF1CF86957105610508940895E894E2
:101AE000BB2766277727CB0197F908950E94C20C80
:101AF00008F48FEF08950E948E0D0C94280D0E941B
:101B0000EF0C38F00E94F60C20F0952311F00C94A5
:101B1000E60C0C94EC0C11240C94700D0E944D0DED
:101B200070F3959FC1F3950F50E0551F629FF00130
:101B3000729FBB27F00DB11D639FAA27F00DB11D49
:101B4000AA1F649F6627B00DA11D661F829F2227D2
:101B5000B00DA11D621F739FB00DA11D621F839F59
:101B6000A00D611D221F749F3327A00D611D231F2F
:101B7000849F600D211D822F762F6A2F11249F577D
:101B800050409AF0F1F088234AF0EE0FFF1FBB1F80
:101B9000661F771F881F91505040A9F79E3F51053F
:101BA00080F00C94E60C0C94700D5F3FE4F3983ECB
:101BB000D4F3869577956795B795F795E7959F5FE9
:101BC000C1F7FE2B880F911D9695879597F908957B
:101BD0009F930E94FF0C0F9007FCEE5F0C94390D51
:101BE0009F3F31F0915020F4879577956795B79591
:101BF000880F911D9695879597F908959F938F93D8
:101C00007F936F93FF93EF939B01AC010E947B0D39
:101C1000EF91FF910E94120E2F913F914F915F9192
:101C20000C947B0DDF93CF931F930F93FF92EF9252
:101C3000DF927B018C01689406C0DA2EEF010E94CE
:101C40008E0DFE01E894A591259135914591559110
:101C5000A6F3EF010E947E0BFE019701A801DA9422
:101C600069F7DF90EF90FF900F911F91CF91DF9177
:101C70000895052E97FB1EF400940E94500E57FD08
:101C800007D00E948F0E07FC03D04EF40C94500E28
:101C900050954095309521953F4F4F4F5F4F089598
:101CA00090958095709561957F4F8F4F9F4F0895C8
:101CB0002F923F924F925F926F927F928F929F925C
:101CC000AF92BF92CF92DF92EF92FF920F931F934A
:101CD000CF93DF93CDB7DEB7CA1BDB0B0FB6F894FB
:101CE000DEBF0FBECDBF09942A88398848885F843B
:101CF0006E847D848C849B84AA84B984C884DF80AC
:101D0000EE80FD800C811B81AA81B981CE0FD11D8F
:101D10000FB6F894DEBF0FBECDBFED010895A1E26E
:101D20001A2EAA1BBB1BFD010DC0AA1FBB1FEE1F55
:101D3000FF1FA217B307E407F50720F0A21BB30BA0
:101D4000E40BF50B661F771F881F991F1A9469F71C
:101D500060957095809590959B01AC01BD01CF0178
:101D60000895FC010590061621F00020D9F7C00166
:101D700008953197CF0108950F931F93CF93DF9369
:101D8000009731F46115710519F480E090E03AC0D4
:101D90008B01EC016EE070E081E090E00E94CD0FDD
:101DA000FC01892B91F380E883830115110571F003
:101DB0001387028781E883838091430190914401D6
:101DC000892B21F4F0934401E09343012097C9F05B
:101DD000D187C08783818260838380914501909100
:101DE0004601892B71F4F0934601E09345018091FF
:101DF000470190914801892B21F4F0934801E09329
:101E00004701CF01DF91CF911F910F9108950F935B
:101E10001F93CF93DF93FB01238121FD03C08FEF3D
:101E20009FEF28C022FF16C046815781248135814B
:101E30004217530744F4A081B1819D012F5F3F4FAA
:101E4000318320838C93268137812F5F3F4F3783E7
:101E5000268310C0EB01092F182F0084F185E02D97
:101E60000995892BE1F68E819F8101969F838E8350
:101E7000812F902FDF91CF911F910F9108950F9394
:101E80001F93CF93DF93E0914501F09146012381A9
:101E900021FF1BC08C01D0E0C0E0F80181918F01CF
:101EA0006091450170914601DB011896ED91FC911E
:101EB0001997882331F00995892B79F3DFEFCFEF5C
:101EC000ECCF8AE00995892B19F08FEF9FEF02C0C4
:101ED0008D2F9C2FDF91CF911F910F910895FA01C3
:101EE000AA27283051F1203181F1E8946F936E7F59
:101EF0006E5F7F4F8F4F9F4FAF4FB1E03ED0B4E04A
:101F00003CD0670F781F891F9A1FA11D680F791F8A
:101F10008A1F911DA11D6A0F711D811D911DA11D9B
:101F200020D009F468943F912AE0269F11243019AB
:101F3000305D3193DEF6CF010895462F4770405D46
:101F40004193B3E00FD0C9F7F6CF462F4F70405DF5
:101F50004A3318F0495D31FD4052419302D0A9F750
:101F6000EACFB4E0A6959795879577956795BA954A
:101F7000C9F700976105710508959B01AC010A2E10
:101F800006945795479537952795BA95C9F7620FE7
:101F9000731F841F951FA01D08950F931F93CF9348
:101FA000DF93869F8001879F100D969F100D11244F
:101FB000C8010E94E90FEC01009729F0A80160E038
:101FC00070E00E941611CE01DF91CF911F910F9109
:101FD0000895CF93DF938230910510F482E090E072
:101FE000E0914B01F0914C0120E030E0C0E0D0E006
:101FF000309711F14081518148175907C0F04817B7
:10200000590761F482819381209719F09B838A8319
:102010002BC090934C0180934B0126C021153105B4
:1020200019F04217530718F49A01BE01DF01EF01BE
:102030000280F381E02DDCCF2115310509F1281B49
:10204000390B2430310590F412968D919C911397A1
:102050006115710521F0FB019383828304C0909385
:102060004C0180934B01FD01329644C0FD01E20F0B
:10207000F31F81939193225031092D933C933AC0E1
:102080002091490130914A01232B41F420916700AE
:102090003091680030934A012093490120916500F6
:1020A000309166002115310541F42DB73EB74091BE
:1020B000690050916A00241B350BE0914901F091B1
:1020C0004A01E217F307A0F42E1B3F0B281739072C
:1020D00078F0AC014E5F5F4F2417350748F04E0F84
:1020E0005F1F50934A01409349018193919302C02D
:1020F000E0E0F0E0CF01DF91CF9108950F931F93BF
:10210000CF93DF93009709F48CC0FC0132971382C0
:10211000128200914B0110914C010115110581F4BF
:1021200020813181820F931F2091490130914A0112
:102130002817390779F5F0934A01E093490171C0F6
:10214000D80140E050E0AE17BF0750F412962D9131
:102150003C911397AD012115310509F1D901F3CF58
:102160009D01DA013383228360817181860F971F7D
:102170008217930769F4EC0128813981260F371FF4
:102180002E5F3F4F318320838A819B81938382839B
:10219000452B29F4F0934C01E0934B0142C0139678
:1021A000FC93EE931297ED01499159919E01240FF2
:1021B000351FE217F30771F480819181840F951F19
:1021C000029611969C938E938281938113969C9391
:1021D0008E931297E0E0F0E0D80112968D919C91D9
:1021E0001397009719F0F8018C01F6CF8D919C910F
:1021F00098012E5F3F4F820F931F2091490130912C
:102200004A012817390769F4309729F410924C01D4
:1022100010924B0102C01382128210934A01009364
:102220004901DF91CF911F910F910895DC0101C009
:0E2230006D9341505040E0F70895F894FFCFB1
:10223E00008000800100004D0120000D0A537461E2
:04224E0072740D0099
:00000001FF
