:100000000C9445000C9462000C9462000C94620005
:100010000C9462000C9462000C9462000C946200D8
:100020000C9462000C9448040C9462000C946200DE
:100030000C9462000C9433050C9462000C946200E2
:100040000C9462000C9462000C9462000C946400A6
:100050000C94620005A84CCDB2D44EB93836A90232
:100060000C50B9918688083CA6AAAA2ABE000000B6
:10007000803F45464765666700202B2D2E30313284
:100080003334353637383968000011241FBECFE5C8
:10009000D8E0DEBFCDBF10E0A0E6B0E0E6E6F8E2D3
:1000A00002C005900D92A837B107D9F721E0A8E763
:1000B000B0E001C01D92A836B207E1F70E94290600
:1000C0000C9431140C9400001F920F920FB60F92F3
:1000D00011242F933F934F935F936F937F938F934D
:1000E0009F93AF93BF93EF93FF9381B1887F803845
:1000F00081F040F4803609F0B5C385EC86BF1092DC
:10010000E900B5C3883A09F4B9C1883B09F4B6C11E
:10011000A9C38091E9008A3209F44BC108F047C0B5
:10012000803209F402C138F5843009F4C1C060F4AA
:10013000813009F4FAC008F4A6C0823009F4ACC0DA
:10014000833009F4F2C086C3863009F4BDC008F4D8
:10015000ECC0873009F4E9C0883009F07BC383B173
:100160002091A60090E0922B9093E1008093E00014
:100170001092D40067C3853209F4CAC060F4823299
:1001800009F4D3C008F4ACC0833209F4B6C0843299
:1001900009F4CBC05FC3873209F4CBC008F4C5C0F3
:1001A000883209F401C1893209F403C153C384358B
:1001B00009F416C1E8F58F3209F4C8C060F48C3236
:1001C00009F4F2C008F4C2C08D3209F4F2C08E32D4
:1001D00009F4EFC03FC3813509F4EBC020F480354A
:1001E00009F4E2C037C3823509F4E3C0833509F06E
:1001F00031C323B18091A2009091A300A091A400EB
:10020000B091A500BA2FA92F982F8827822B809311
:10021000A2009093A300A093A400B093A5008093A4
:10022000EA009093EB00A093EC00B093ED000AC3BA
:10023000813909F410C178F4863509F4D6C008F480
:10024000D4C0873509F4E8C0803909F003C383B10D
:100250008093D300F7C2843909F405C150F4823980
:1002600009F4FDC0833909F0F5C283B18093D00051
:10027000E9C2853909F4FBC08F3F09F0EBC283B1B5
:100280008093E800E7C283B18093E9008091E900A0
:1002900081508093E900D6C283B12091A60090E0FE
:1002A000922B9093E7008093E6001092D700CAC289
:1002B00083B12091A60090E0922B9093E50080936B
:1002C000E4001092D600BEC283B12091A60090E057
:1002D000922B9093E3008093E2001092D500B2C27B
:1002E00083B12091A60090E0922B9093CF00809351
:1002F000CE0081E08093D700A5C283B12091A600F3
:1003000090E0922B9093CD008093CC0081E049C087
:1003100083B12091A60090E0922B9093CB00809324
:10032000CA0081E08093D5008DC283B18093A6007E
:1003300089C283B12091A60090E0922B9093C900CE
:100340008093C80081E08093D4007CC223B1809167
:10035000A2009091A300A091A400B091A500BA2F93
:10036000A92F982F8827BC01CD01622B6093A20092
:100370007093A3008093A4009093A50023E33BE532
:1003800042E855E40E948F100E94630F7093CF00E3
:100390006093CE007093CD006093CC0081E0809399
:1003A000D7008093D6004EC283B190E0A0E0B0E0C9
:1003B0000EC023B18091A2009091A300A091A4004F
:1003C000B091A500BA2FA92F982F8827822B809350
:1003D000A2009093A300A093A400B093A50032C202
:1003E00083B190E0A0E0B0E00EC023B180919E0008
:1003F00090919F00A091A000B091A100BA2FA92FC9
:10040000982F8827822B80939E0090939F00A09323
:10041000A000B093A10016C223B180919E009091DC
:100420009F00A091A000B091A100BA2FA92F982FF2
:100430008827822B80939E0090939F00A093A0001A
:10044000B093A1008093EE009093EF00A093F00092
:10045000B093F1000FC083B18093D200F3C183B198
:100460008093D100EFC183B18093A90003C083B111
:100470008093A80081E08093F200E4C18091E900BC
:10048000853309F447C108F06BC0803209F415C107
:1004900080F5813109F40EC1C0F4863009F4F2C050
:1004A00048F4823009F4EBC0843009F0D2C188B539
:1004B00099B5C7C1883009F4E7C0803109F0C9C1D6
:1004C0008091DE009091DF00E5C0843109F4E8C03E
:1004D00038F4823109F4DAC0833109F4EBC0B9C1D0
:1004E000863109F4E2C008F4E5C0873109F4E2C0BE
:1004F000B0C1863209F4F5C0D0F4833209F4E7C004
:1005000058F4813209F4DEC0823209F0A2C1809130
:10051000CC009091CD00C2C0843209F4DDC0853298
:1005200009F097C18091CA009091CB008AC18133B4
:1005300009F4E1C058F4873209F4D8C0803309F0D7
:1005400088C18091C5009091C600A8C0833309F48A
:10055000D7C008F0DAC08091C3009091C4009EC05B
:10056000823409F425C108F043C08B3309F4F6C086
:10057000F0F4883309F4D8C058F4863309F4CFC0B6
:10058000873309F066C18091BF009091C00059C1C6
:10059000893309F4DAC08A3309F05BC18091A20083
:1005A0009091A300A091A400B091A5003AC18E3310
:1005B00009F4ECC078F48C3309F4D3C08D3309F01E
:1005C00048C180919E0090919F00A091A000B091A1
:1005D000A10023C1803409F4E2C008F427C180914E
:1005E000BB009091BC00A091BD00B091BE0015C1B0
:1005F000883409F401C110F5853409F4EBC078F4AE
:10060000833409F4DEC0843409F023C18091B7003B
:100610009091B800A091B900B091BA00B2C08634F0
:1006200009F4E1C0873409F014C18091B7009091BA
:10063000B800A091B900B091BA0003C18B3409F49D
:10064000F5C078F4893409F4E0C08A3409F001C1B6
:100650008091B3009091B400A091B500B091B60024
:10066000E0C0813A09F4EBC0823A09F4EDC0803A67
:1006700009F0EFC084B78F7083B914BEE3C08AB5A8
:100680009BB5DFC083B5DDC08CB7DBC08091DC00DB
:100690009091DD0090939D0080939C0093B9D2C00F
:1006A0008091DA009091DB00F5CF8091D800909195
:1006B000D900F0CF80919C00C4C08091CE00909171
:1006C000CF00ECCF8091CE009091CF00BAC0809146
:1006D000CC009091CD00B5C08091CA009091CB0024
:1006E000DDCF8091C8009091C900D8CF8091C8001B
:1006F0009091C900A6C08091C5009091C600A1C08C
:100700008091C3009091C4009CC08091C1009091E1
:10071000C200C4CF8091C1009091C20092C080916C
:10072000BF009091C000BACF8091AF009091B0000F
:10073000A091B100B091B2008093A2009093A30069
:10074000A093A400B093A5001CC08091A20090913A
:10075000A300A091A400B091A5005FC08091A20069
:1007600070C08091AB009091AC00A091AD00B091B1
:10077000AE0080939E0090939F00A093A000B09342
:10078000A1008B2F9927AA27BB275BC080919E00D1
:1007900090919F00A091A000B091A10042C08091D3
:1007A000BB009091BC00A091BD00B091BE00E9CF0C
:1007B0008091BB009091BC00A091BD00B091BE00A3
:1007C00030C08091BB009091BC00A091BD00B09161
:1007D000BE0037C08091B7009091B800A091B900D9
:1007E000B091BA001AC08091B7009091B800A09162
:1007F000B900B091BA0015C08091B3009091B400D7
:10080000A091B500B091B600BCCF8091B30090919B
:10081000B400A091B500B091B600CD01AA27BB27C6
:1008200010C0892F9A2FAB2FBB270BC08091B3002C
:100830009091B400A091B500B091B60002C0809133
:10084000A70083B985EC07C08091AA0083B985EC25
:1008500086BF13B885E886BF8091E9008F5F8093DB
:10086000E90005C086B78B7E86BF85EC86BFFF9109
:10087000EF91BF91AF919F918F917F916F915F9118
:100880004F913F912F910F900FBE0F901F90189591
:100890001F920F920FB60F9211242F933F934F93F5
:1008A0005F936F937F938F939F9389B380FF02C071
:1008B00093E001C090E081FF02C081E09827809121
:1008C0009B00891B80FF22C090939B002091D30046
:1008D000982F9270222351F02091DE003091DF009A
:1008E000892F90E00197820F931F0CC04091DE008A
:1008F0005091DF0021E030E0B901691B7109CB01A3
:10090000840F951F9093DF008093DE0089B382955A
:100910008F7080FF02C093E001C090E081FF02C0B1
:1009200081E0982780919A00891B80FF22C09093D4
:100930009A002091D200982F9270222369F0409162
:10094000DC005091DD0021E030E0B901691B710944
:10095000CB01840F951F09C02091DC003091DD0090
:10096000892F90E00197820F931F9093DD00809371
:10097000DC0089B38695869580FF02C093E001C0B4
:1009800090E081FF02C081E0982780919900891B47
:1009900080FF22C0909399002091D100982F9270EF
:1009A000222369F04091DA005091DB0021E030E031
:1009B000B901691B7109CB01840F951F09C02091F2
:1009C000DA003091DB00892F90E00197820F931FAE
:1009D0009093DB008093DA0089B3829586958695A3
:1009E000837080FF02C093E001C090E0827011F03C
:1009F00081E0982780919800891B80FF22C0909306
:100A000098002091D000982F9270222351F02091CD
:100A1000D8003091D900892F90E00197820F931F61
:100A20000CC04091D8005091D90021E030E0B901CC
:100A3000691B7109CB01840F951F9093D900809396
:100A4000D8008091C7008F5F8093C7009F918F91DE
:100A50007F916F915F914F913F912F910F900FBEBA
:100A60000F901F9018951F920F920FB60F9211249E
:100A70008F939F93EF93FF935F9B16C0E091F500D8
:100A8000F091F6008CB1808381E0EA35F80730F40C
:100A90003196F093F600E093F50006C087EF90E002
:100AA0009093F6008093F500FF91EF919F918F91C5
:100AB0000F900FBE0F901F9018959C018AB188610E
:100AC0008AB9579A80B5866080BDC901A0E0B0E0C0
:100AD0009C01AD0184E0220F331F441F551F8A95EE
:100AE000D1F760E079E08DE390E00E944D11DA01EA
:100AF000C9010197A109B109892F9A2FAB2FBB27F3
:100B0000A7FDBA9580BD215029B987EF90E0909359
:100B1000F4008093F3009093F6008093F50008951D
:100B20005D9BFECFFC0180818CB90895CF93DF934C
:100B30001F92CDB7DEB78983CE0101960E94900542
:100B400080E090E00F90DF91CF910895CF93DF93F5
:100B5000EC01CE012196FC012081222319F00E9494
:100B60009005F7CFDF91CF9108955F9BFECF8CB1B9
:100B700090E008950C94B5056AEB75E086E995E080
:100B80000C94D011CF93DF93FC01E253FF4FA0816F
:100B9000B181EC01C453DF4F28813981A217B3071B
:100BA000A1F05D9B12C02C912CB920813181AC0148
:100BB00045535F4F2417350718F42F5F3F4F03C08D
:100BC0009C0128593F4F31832083E091F300F0913D
:100BD000F4002091F5003091F6002E173F07B1F197
:100BE000EC01CC59DF4FA881B98120812C93688119
:100BF00079819C012B523F4FD9013C91DB012C9113
:100C0000321307C0AC014C525F4FDA012C912F5FB9
:100C10002C939C012D593F4F6217730728F4DB0179
:100C20001196B983A88302C099838883B1E0EA351D
:100C3000FB0730F43196F093F400E093F30006C024
:100C400087EF90E09093F4008093F300DF91CF91D1
:100C50000895CF93DF93CDB7DEB76E970FB6F894B4
:100C6000DEBF0FBECDBF88E087BB8CEF84BB8CEBB3
:100C700081BB87E088BB80E482BB1092E80080E8FB
:100C800095E20E945D050E94BC0580E582B986B7A9
:100C90008B7E86BF85EC86BF81EF8FBD89E08EBDE0
:100CA0001BBC1ABC19BC18BC89E785BD13BC83BF2B
:100CB0001CBE8EE690E00E94531285B78F7885BFE8
:100CC00084E089BF78942224239433243A94809139
:100CD000E9008F3F41F48091E800853A21F4F894CF
:100CE000E0E0F8E109958091F200882309F4E7C07B
:100CF000F8948090EA009090EB00A090EC00B09007
:100D0000ED006091EE007091EF008091F000909105
:100D1000F1001092F20078942BED3FE049E450E4AA
:100D20000E948F1027EB3BE04DEB5EE30E948F109B
:100D300020E030E040E05FE30E948F10A5019401C5
:100D40000E947B0E6B017C01A5019401C501B401D9
:100D50000E947B0EA70196010E947A0E23E33BE5D9
:100D600042E855E40E948F104B015C0123E33BE510
:100D700042E855E4C701B6010E948F106B017C0167
:100D80008091A8008823B9F18091A80064E670E002
:100D9000681B7109072E000C880B990B0E949B0F92
:100DA0009B01AC01C501B4010E948F1020E030E02E
:100DB00048EC52E40E94F10E0E94630F7093CF0042
:100DC0006093CE008091A80064E670E0681B710912
:100DD000072E000C880B990B0E949B0F9B01AC0106
:100DE000C701B6010E948F1020E030E048EC52E4C9
:100DF0000E94F10E0AC0C501B4010E94630F7093F6
:100E0000CF006093CE00C701B6010E94630F7093BC
:100E1000C9006093C8008091A9008823B9F180912E
:100E2000A90064E670E0681B7109072E000C880BAE
:100E3000990B0E949B0F9B01AC01C501B4010E945C
:100E40008F1020E030E048EC52E40E94F10E0E9446
:100E5000630F7093CD006093CC008091A90064E68D
:100E600070E0681B7109072E000C880B990B0E941B
:100E70009B0F9B01AC01C701B6010E948F1020E0BF
:100E800030E048EC52E40E94F10E0AC0C501B40102
:100E90000E94630F7093CD006093CC00C701B60130
:100EA0000E94630F7093CB006093CA00F1E0F0934F
:100EB000D700F093D600F093D500F093D400809142
:100EC000C7008C3908F4E8C51092C700F894209147
:100ED000DE003091DF003A8329834091DC0050919D
:100EE000DD005C834B838091DA009091DB009E8370
:100EF0008D83E091D800F091D900F887EF83789442
:100F000080919600909197005901A81AB90A809192
:100F10009400909195008A01081B190B8091920012
:100F200090919300ED80FE80E81AF90A809190007C
:100F3000909191006F01C81AD90AB5010B2C000CD1
:100F4000880B990B0E949B0F2AE037ED43E25CE38C
:100F50000E94F10E0E94630F69877A878B879C87B6
:100F6000B801012E000C880B990B0E949B0F2AE000
:100F700037ED43E25CE30E94F10E0E94630F6D8740
:100F80007E878F87988BB7010F2C000C880B990BED
:100F90000E949B0F2AE037ED43E25CE30E94F10ED2
:100FA0000E94630F698B7A8B8B8B9C8BB6010D2C07
:100FB000000C880B990B0E949B0F2AE037ED43E24F
:100FC0005CE30E94F10E0E94630F6D8B7E8B8F8B12
:100FD000988FB501600F711F072E000C880B990BBD
:100FE0000E949B0F23E33BE542E056E40E94F10E92
:100FF0004B015C01B7016C0D7D1D072E000C880BA9
:10100000990B0E949B0F23E33BE542E056E40E94CC
:10101000F10E2B013C01C090B300D090B400E090E1
:10102000B500F090B600A50194010E947A0E27EB5E
:101030003BE04DEB5EE30E94F10E9B01AC01C7016A
:10104000B6010E947B0E6B017C012BED3FE049EC69
:1010500050E40E948A1018164CF42BED3FE049EC46
:1010600050E4C701B6010E947A0E12C02BED3FE09A
:1010700049EC50ECC701B6010E94E70E87FF0AC099
:101080002BED3FE049EC50E4C701B6010E947B0E16
:101090006B017C01A3019201C501B4010E947B0E8A
:1010A00020E030E040E05FE30E948F104B015C01E4
:1010B0004090BB005090BC006090BD007090BE009E
:1010C000C701B6010E94EC0EA50194010E948F1089
:1010D0009B01AC01C301B2010E947B0E698F7A8F24
:1010E0008B8F9C8F4090B7005090B8006090B900F3
:1010F0007090BA00C701B6010E94FC10A5019401CE
:101100000E948F109B01AC01C301B2010E947B0EB3
:101110002B013C010D851E8529853A85020F131F81
:1011200017FF02C00F5F1F4F159507954D895E8908
:1011300089899A89480F591F57FF02C04F5F5F4F37
:10114000FA01F595E795FE8FED8FBF01600F711FD6
:10115000072E000C880B990B0E949B0F23E33BE5A5
:1011600042E056E40E94F10E4B015C016D8D7E8DD4
:10117000601B710B072E000C880B990B0E949B0FB4
:1011800029E935E347E955E40E94F10EF894C0924D
:10119000B300D092B400E092B500F092B600298D71
:1011A0003A8D4B8D5C8D2093BB003093BC004093F7
:1011B000BD005093BE004092B7005092B8006092BC
:1011C000B9007092BA0049855A855093C600409381
:1011D000C500ED85FE85F093C400E093C300298926
:1011E0003A893093C2002093C1004D895E895093A3
:1011F000C0004093BF008092AF009092B000A092D8
:10120000B100B092B2006093AB007093AC008093D9
:10121000AD009093AE00789489819A819093970065
:1012200080939600EB81FC81F0939500E09394000D
:101230002D813E8130939300209392004F815885F9
:1012400050939100409390008091D700813009F035
:1012500094C08091CE009091CF00892B89F4109298
:10126000E7001092E60010928F0010928E0010920C
:101270008A0010928B0010928C0010928D007DC01D
:101280002091CE003091CF008091C5009091C60092
:101290008901081B190BB801012E000C880B990B52
:1012A000C0908A00D0908B00E0908C00F0908D0070
:1012B000C60ED71EE81EF91EC0928A00D0928B007F
:1012C000E0928C00F0928D000E949B0F2CEE31E595
:1012D00048E35DE30E948F104B015C01C701B6013A
:1012E0000E949B0F2EE830E44CEB5CE30E948F10D1
:1012F0009B01AC01C501B4010E947B0E6B017C0116
:1013000080918E0090918F00B801681B790B072E99
:10131000000C880B990B0E949B0F2AE037ED43E2EB
:101320005DE30E948F109B01AC01C701B6010E94D2
:101330007B0E0E94630F7093E7006093E6001093AA
:101340008F0000938E008091E6009091E7008F3F20
:10135000910541F03CF08FEF90E09093E70080938F
:10136000E6000BC08091E6009091E70081309F4F2E
:1013700024F43092E7002092E6008091D60081307C
:1013800009F094C08091CC009091CD00892B89F414
:101390001092E5001092E4001092890010928800EB
:1013A000109284001092850010928600109287009F
:1013B0007DC02091CC003091CD008091C3009091F0
:1013C000C4008901081B190BB801012E000C880B01
:1013D000990BC0908400D0908500E0908600F0903A
:1013E0008700C60ED71EE81EF91EC0928400D09258
:1013F0008500E0928600F09287000E949B0F2CEE01
:1014000031E548E35DE30E948F104B015C01C701A9
:10141000B6010E949B0F2EE830E44CEB5CE30E9487
:101420008F109B01AC01C501B4010E947B0E6B01C2
:101430007C018091880090918900B801681B790B2C
:10144000072E000C880B990B0E949B0F2AE037EDAA
:1014500043E25DE30E948F109B01AC01C701B6011E
:101460000E947B0E0E94630F7093E5006093E4007E
:1014700010938900009388008091E4009091E5002A
:101480008F3F910541F03CF02FEF30E03093E500C5
:101490002093E4000BC08091E4009091E50081303E
:1014A0009F4F24F43092E5002092E4008091D50013
:1014B000813009F094C08091CA009091CB00892BB3
:1014C00089F41092E3001092E200109283001092CF
:1014D000820010927E0010927F0010928000109285
:1014E00081007DC02091CA003091CB008091C10065
:1014F0009091C2008901081B190BB801012E000C44
:10150000880B990BC0907E00D0907F00E090800007
:10151000F0908100C60ED71EE81EF91EC0927E0014
:10152000D0927F00E0928000F09281000E949B0F99
:101530002CEE31E548E35DE30E948F104B015C0126
:10154000C701B6010E949B0F2EE830E44CEB5CE330
:101550000E948F109B01AC01C501B4010E947B0E5B
:101560006B017C018091820090918300B801681B1F
:10157000790B072E000C880B990B0E949B0F2AE019
:1015800037ED43E25DE30E948F109B01AC01C70180
:10159000B6010E947B0E0E94630F7093E30060937C
:1015A000E20010938300009382008091E20090910A
:1015B000E3008F3F910541F03CF04FEF50E0509336
:1015C000E3004093E2000BC08091E2009091E300C1
:1015D00081309F4F24F43092E3002092E20080910A
:1015E000D400813009F094C08091C8009091C90066
:1015F000892B89F41092E1001092E00010927D0096
:1016000010927C00109278001092790010927A006B
:1016100010927B007DC02091C8003091C90080915C
:10162000BF009091C0008901081B190BB801012E61
:10163000000C880B990BC0907800D0907900E09056
:101640007A00F0907B00C60ED71EE81EF91EC092ED
:101650007800D0927900E0927A00F0927B000E94AC
:101660009B0F2CEE31E548E35DE30E948F104B01A8
:101670005C01C701B6010E949B0F2EE830E44CEBE1
:101680005CE30E948F109B01AC01C501B4010E9474
:101690007B0E6B017C0180917C0090917D00B801F4
:1016A000681B790B072E000C880B990B0E949B0F6F
:1016B0002AE037ED43E25DE30E948F109B01AC010D
:1016C000C701B6010E947B0E0E94630F7093E10078
:1016D0006093E00010937D0000937C008091E00017
:1016E0009091E1008F3F910541F03CF08FEF90E049
:1016F0009093E1008093E0000BC08091E000909116
:10170000E10081309F4F24F43092E1002092E0000C
:1017100090B326B39074892F90E033E09595879528
:101720003A95E1F7922F9770892B80958F7080936F
:10173000A7002091D700809166009091670021302A
:1017400019F52091A70020FF1FC0009729F01092E3
:10175000E7001092E60018C02091E6003091E70003
:10176000121613063CF42FEF30E03093E70020937D
:10177000E6000AC02091E6003091E70037FF04C080
:101780003092E7002092E6002091D600213039F512
:101790002091A70021FF23C02091640030916500B3
:1017A000232B29F01092E5001092E40018C020913C
:1017B000E4003091E500121613063CF44FEF50E0C0
:1017C0005093E5004093E4000AC02091E40030917A
:1017D000E50037FF04C03092E5002092E40020913C
:1017E000D500213039F52091A70022FF23C0209198
:1017F000620030916300232B29F01092E3001092D5
:10180000E20018C02091E2003091E30012161306A6
:101810003CF4EFEFF0E0F093E300E093E2000AC065
:101820002091E2003091E30037FF04C03092E300E2
:101830002092E2002091D400213039F52091A700B8
:1018400023FF23C02091600030916100232B29F0F9
:101850001092E1001092E00018C02091E000309159
:10186000E100121613063CF42FEF30E03093E10054
:101870002093E0000AC02091E0003091E10037FFA2
:1018800004C03092E1002092E0002091E600309107
:10189000E70082179307B9F18091E6009091E70085
:1018A000892B19F485B38C6017C08091D300811106
:1018B00007C08091E6009091E7001816190654F0D1
:1018C0008091D300882351F08091E6009091E70049
:1018D00097FF04C085B3837F85BB02C0AA98AB9AEB
:1018E0008091E6009091E7009093670080936600F6
:1018F0008091E6009091E70097FF03C09195819554
:1019000091099BBD8ABD8091E4009091E5002091F2
:1019100064003091650028173907B9F18091E4001F
:101920009091E500892B19F485B3806317C08091ED
:10193000D200811107C08091E4009091E500181653
:10194000190654F08091D200882351F08091E40070
:101950009091E50097FF04C085B38F7C85BB02C0E2
:10196000AC98AD9A8091E4009091E5009093650069
:10197000809364008091E4009091E50097FF03C09C
:1019800091958195910999BD88BD8091E2009091D2
:10199000E300209162003091630028173907B1F10C
:1019A0008091E2009091E300892B19F485B3806C5B
:1019B00017C08091D100811107C08091E200909101
:1019C000E3001816190654F08091D100882351F0D5
:1019D0008091E2009091E30097FF04C085B38F737C
:1019E00085BB02C0AE98AF9A8091E2009091E3006F
:1019F00090936300809362008091E2009091E300F5
:101A000097FF03C091958195910983BD8091E00076
:101A10009091E10020916000309161002817390712
:101A2000B1F18091E0009091E100892B19F482B32B
:101A30008C6017C08091D000811107C08091E000B8
:101A40009091E1001816190654F08091D000882377
:101A500051F08091E0009091E10097FF04C082B3C3
:101A6000837F82BB02C09298939A8091E00090910C
:101A7000E10090936100809360008091E00090917C
:101A8000E10097FF03C09195819591098CBF8091EA
:101A9000AA008F5F8093AA0085B7806885BF88956C
:101AA00085B78F7785BF13C9ACE0B0E0EAE5FDE00C
:101AB0000C9470116C015B017A01FC011782168293
:101AC000838181FF0EC1CE0101964C01F601038195
:101AD000F50103FD159103FF11915F01112309F435
:101AE000FCC0153249F403FD159103FF11915F010C
:101AF000153211F020E01BC0B601812F90E00E944A
:101B00001B1237017301E2CF112309F4E6C0612FE4
:101B100070E089E790E02C870E94C5112C85892B05
:101B200049F0F50103FD159103FF11915F0127FFB6
:101B3000EBCF09C0133229F01C3609F0D5C020685C
:101B4000F0CF20E1EECF022F112309F4C6C0612FA0
:101B500070E082E790E02C870E94C5112C85892BCC
:101B600041F03701F4E06F0E711CB6018FE390E095
:101B700011C0133639F0133781F0133519F5022FE0
:101B800001600BC0370182E0680E711CB601F701DD
:101B9000808191810E941B12B5CF3701F2E06F0E58
:101BA000711CF701E080F180F70100FD859100FFD5
:101BB00081917F01882309F4A5CFB60190E00E94AE
:101BC0001B12F2CF143611F0193629F5370127FF11
:101BD00009C0F4E06F0E711CF70160817181828190
:101BE00093810AC0F2E06F0E711CF7016081718170
:101BF000072E000C880B990B022F0F7E97FF08C051
:101C000090958095709561957F4F8F4F9F4F0064A1
:101C10002AE030E033C0103799F040F41835B1F0C5
:101C20001F3609F05AC028E030E014C0153719F00B
:101C3000183741F052C0022F0F7E2AE030E00AC070
:101C4000022F0061046220E130E004C0022F046032
:101C500020E132E0370107FF09C0F4E06F0E711C8C
:101C6000F701608171818281938108C0F2E06F0E7B
:101C7000711CF7016081718180E090E0A4010E94F5
:101C80008312182F181906FF05C0B6018DE290E0E7
:101C90000E941B1204FF15C0FE01E10FF11D80819F
:101CA000803379F0B60180E390E00E941B1202FFBE
:101CB00008C00072802F90E0B601885A9F4F0E94A2
:101CC0001B121150F401E10FF11D8081B60190E06B
:101CD0000E941B121111F5CF15CFF6018681978155
:101CE00005C08FEF9FEF02C0022F31CF2C96EEE0A0
:101CF0000C948C115058BB27AA270E94920E0C946A
:101D00003C100E94031038F00E940A1020F039F4B1
:101D10009F3F19F426F40C9400100EF4E095E7FBB5
:101D20000C94FA0FE92F0E94611058F3BA1762075A
:101D300073078407950720F079F4A6F50C948310B7
:101D40000EF4E0950B2EBA2FA02D0B01B9019001D6
:101D50000C01CA01A0011124FF27591B99F0593F1A
:101D600050F4503E68F11A16F040A22F232F342F62
:101D70004427585FF3CF469537952795A795F040B0
:101D80005395C9F77EF41F16BA0B620B730B840BC5
:101D9000BAF09150A1F0FF0FBB1F661F771F881F7D
:101DA000C2F70EC0BA0F621F731F841F48F48795D5
:101DB00077956795B795F7959E3F08F0B0CF9395C7
:101DC000880F08F09927EE0F9795879508950E9440
:101DD000D60F08F481E008950E941310E3950C9447
:101DE0004D100E94050F0C943C100E940A1058F0F0
:101DF0000E94031040F029F45F3F29F00C94FA0F81
:101E000051110C9484100C9400100E94611068F31E
:101E10009923B1F3552391F3951B550BBB27AA27A3
:101E200062177307840738F09F5F5F4F220F331FDD
:101E3000441FAA1FA9F335D00E2E3AF0E0E832D0A5
:101E400091505040E695001CCAF72BD0FE2F29D0A8
:101E5000660F771F881FBB1F261737074807AB077A
:101E6000B0E809F0BB0B802DBF01FF2793585F4FEF
:101E70003AF09E3F510578F00C94FA0F0C948410C0
:101E80005F3FE4F3983ED4F3869577956795B795D1
:101E9000F7959F5FC9F7880F911D9695879597F9DC
:101EA0000895E1E0660F771F881FBB1F6217730755
:101EB0008407BA0720F0621B730B840BBA0BEE1F6A
:101EC00088F7E09508950E946A0F6894B1110C9408
:101ED000841008950E94691088F09F5798F0B92FD8
:101EE0009927B751B0F0E1F0660F771F881F991F4F
:101EF0001AF0BA95C9F714C0B13091F00E9483105E
:101F0000B1E008950C948310672F782F8827B85F6D
:101F100039F0B93FCCF3869577956795B395D9F7A6
:101F20003EF490958095709561957F4F8F4F9F4FB0
:101F30000895E89409C097FB3EF4909580957095BC
:101F400061957F4F8F4F9F4F9923A9F0F92F96E905
:101F5000BB279395F695879577956795B795F1117A
:101F6000F8CFFAF4BB0F11F460FF1BC06F5F7F4F17
:101F70008F4F9F4F16C0882311F096E911C0772329
:101F800021F09EE8872F762F05C0662371F096E832
:101F9000862F70E060E02AF09A95660F771F881F01
:101FA000DAF7880F9695879597F90895990F0008A5
:101FB000550FAA0BE0E8FEEF16161706E807F9071B
:101FC000C0F012161306E407F50798F0621B730BB6
:101FD000840B950B39F40A2661F0232B242B252B37
:101FE00021F408950A2609F4A140A6958FEF811DDA
:101FF000811D089597F99F6780E870E060E008957B
:102000009FEF80EC089500240A9416161706180610
:102010000906089500240A941216130614060506EC
:1020200008950C9400100E946910D8F3E894E0E041
:10203000BB279F57F0F02AED3FE049EC06C0EE0FBA
:10204000BB0F661F771F881F28F0B23A620773071D
:10205000840728F0B25A620B730B840BE3959A95B0
:1020600072F7803830F49A95BB0F661F771F881F70
:10207000D2F790480C940611092E0394000C11F429
:10208000882352F0BB0F40F4BF2B11F460FF04C053
:102090006F5F7F4F8F4F9F4F0895EF93E0FF07C013
:1020A000A2EA2AED3FE049EC5FEB0E94920E0E940B
:1020B0003C100F90039401FC9058E4E5F0E00C9480
:1020C000121157FD9058440F551F59F05F3F71F0A2
:1020D0004795880F97FB991F61F09F3F79F087958F
:1020E0000895121613061406551FF2CF4695F1DF18
:1020F00008C0161617061806991FF1CF86957105A8
:10210000610508940895E894BB2766277727CB01DB
:1021100097F908950E94D60F08F48FEF08950E9452
:10212000A2100C943C100E94031038F00E940A1078
:1021300020F0952311F00C94FA0F0C940010112448
:102140000C9484100E94611070F3959FC1F3950F59
:1021500050E0551F629FF001729FBB27F00DB11D2B
:10216000639FAA27F00DB11DAA1F649F6627B00DBB
:10217000A11D661F829F2227B00DA11D621F739FA4
:10218000B00DA11D621F839FA00D611D221F749FB2
:102190003327A00D611D231F849F600D211D822FF9
:1021A000762F6A2F11249F5750409AF0F1F0882320
:1021B0004AF0EE0FFF1FBB1F661F771F881F91504D
:1021C0005040A9F79E3F510580F00C94FA0F0C94F3
:1021D00084105F3FE4F3983ED4F386957795679536
:1021E000B795F795E7959F5FC1F7FE2B880F911D77
:1021F0009695879597F908959F930E9413100F90D5
:1022000007FCEE5F0C944D109F3F31F0915020F48D
:10221000879577956795B795880F911D96958795C2
:1022200097F908959F938F937F936F93FF93EF9305
:102230009B01AC010E948F10EF91FF910E9426112B
:102240002F913F914F915F910C948F10DF93CF931B
:102250001F930F93FF92EF92DF927B018C016894A2
:1022600006C0DA2EEF010E94A210FE01E894A591AB
:102270002591359145915591A6F3EF010E94920E5B
:10228000FE019701A801DA9469F7DF90EF90FF90C3
:102290000F911F91CF91DF910895052E97FB1EF4AA
:1022A00000940E94641157FD07D00E94A31107FCFF
:1022B00003D04EF40C9464115095409530952195BF
:1022C0003F4F4F4F5F4F0895909580957095619562
:1022D0007F4F8F4F9F4F08952F923F924F925F9263
:1022E0006F927F928F929F92AF92BF92CF92DF9226
:1022F000EF92FF920F931F93CF93DF93CDB7DEB78B
:10230000CA1BDB0B0FB6F894DEBF0FBECDBF09941E
:102310002A88398848885F846E847D848C849B8475
:10232000AA84B984C884DF80EE80FD800C811B8183
:10233000AA81B981CE0FD11D0FB6F894DEBF0FBEB2
:10234000CDBFED010895A1E21A2EAA1BBB1BFD0112
:102350000DC0AA1FBB1FEE1FFF1FA217B307E40784
:10236000F50720F0A21BB30BE40BF50B661F771FDC
:10237000881F991F1A9469F76095709580959095BC
:102380009B01AC01BD01CF010895FC01059006162B
:1023900021F00020D9F7C00108953197CF010895A9
:1023A0000F931F93CF93DF93009731F4611571055D
:1023B00019F480E090E03AC08B01EC016EE070E02F
:1023C00081E090E00E94E112FC01892B91F380E80A
:1023D00083830115110571F01387028781E88383D8
:1023E00080915E0190915F01892B21F4F0935F0150
:1023F000E0935E012097C9F0D187C0878381826016
:1024000083838091600190916101892B71F4F09335
:102410006101E09360018091620190916301892BD9
:1024200021F4F0936301E0936201CF01DF91CF913A
:102430001F910F9108950F931F93CF93DF93FB018B
:10244000238121FD03C08FEF9FEF28C022FF16C01C
:1024500046815781248135814217530744F4A08176
:10246000B1819D012F5F3F4F318320838C93268163
:1024700037812F5F3F4F3783268310C0EB01092F31
:10248000182F0084F185E02D0995892BE1F68E81C6
:102490009F8101969F838E83812F902FDF91CF9113
:1024A0001F910F9108950F931F93CF93DF93E091A6
:1024B0006001F0916101238121FF1BC08C01D0E0FC
:1024C000C0E0F80181918F0160916001709161011C
:1024D000DB011896ED91FC911997882331F009954D
:1024E000892B79F3DFEFCFEFECCF8AE00995892BC9
:1024F00019F08FEF9FEF02C08D2F9C2FDF91CF91AE
:102500001F910F910895FA01AA27283051F1203127
:1025100081F1E8946F936E7F6E5F7F4F8F4F9F4F77
:10252000AF4FB1E03ED0B4E03CD0670F781F891FB9
:102530009A1FA11D680F791F8A1F911DA11D6A0F87
:10254000711D811D911DA11D20D009F468943F913A
:102550002AE0269F11243019305D3193DEF6CF0139
:102560000895462F4770405D4193B3E00FD0C9F7FF
:10257000F6CF462F4F70405D4A3318F0495D31FD6C
:102580004052419302D0A9F7EACFB4E0A6959795BF
:10259000879577956795BA95C9F700976105710595
:1025A00008959B01AC010A2E0694579547953795DF
:1025B0002795BA95C9F7620F731F841F951FA01D39
:1025C00008950F931F93CF93DF93869F8001879F7A
:1025D000100D969F100D1124C8010E94FD12EC01F0
:1025E000009729F0A80160E070E00E942A14CE0153
:1025F000DF91CF911F910F910895CF93DF93823098
:10260000910510F482E090E0E0916601F09167019D
:1026100020E030E0C0E0D0E0309711F140815181FE
:1026200048175907C0F04817590761F48281938110
:10263000209719F09B838A832BC090936701809326
:10264000660126C02115310519F04217530718F409
:102650009A01BE01DF01EF010280F381E02DDCCFA2
:102660002115310509F1281B390B2430310590F46F
:1026700012968D919C9113976115710521F0FB01C4
:102680009383828304C09093670180936601FD0168
:10269000329644C0FD01E20FF31F819391932250C3
:1026A00031092D933C933AC020916401309165012A
:1026B000232B41F420916A0030916B003093650127
:1026C0002093640120916800309169002115310543
:1026D00041F42DB73EB740916C0050916D00241B22
:1026E000350BE0916401F0916501E217F307A0F466
:1026F0002E1B3F0B2817390778F0AC014E5F5F4F58
:102700002417350748F04E0F5F1F50936501409323
:1027100064018193919302C0E0E0F0E0CF01DF918A
:10272000CF9108950F931F93CF93DF93009709F4F0
:102730008CC0FC01329713821282009166011091C5
:1027400067010115110581F420813181820F931FEA
:1027500020916401309165012817390779F5F093CC
:102760006501E093640171C0D80140E050E0AE170C
:10277000BF0750F412962D913C911397AD0121158E
:10278000310509F1D901F3CF9D01DA0133832283A9
:1027900060817181860F971F8217930769F4EC019E
:1027A00028813981260F371F2E5F3F4F31832083C9
:1027B0008A819B8193838283452B29F4F09367015F
:1027C000E093660142C01396FC93EE931297ED01DD
:1027D000499159919E01240F351FE217F30771F4B7
:1027E00080819181840F951F029611969C938E9300
:1027F0008281938113969C938E931297E0E0F0E090
:10280000D80112968D919C911397009719F0F801B9
:102810008C01F6CF8D919C9198012E5F3F4F820FD6
:10282000931F20916401309165012817390769F4DD
:10283000309729F4109267011092660102C013824A
:1028400012821093650100936401DF91CF911F9173
:102850000F910895DC0101C06D9341505040E0F7A5
:062860000895F894FFCF7B
:1028660000800080008000800000680120000D0AC2
:0828760053746172740D00003F
:00000001FF
