:100000000C9445000C9462000C9462000C94620005
:100010000C9462000C9462000C9462000C946200D8
:100020000C9462000C9429040C9462000C946200FD
:100030000C9462000C9404050C9462000C94620011
:100040000C9462000C9462000C9462000C946400A6
:100050000C94620005A84CCDB2D44EB93836A90232
:100060000C50B9918688083CA6AAAA2ABE000000B6
:10007000803F45464765666700202B2D2E30313284
:100080003334353637383968000011241FBECFE5C8
:10009000D8E0DEBFCDBF10E0A0E6B0E0EEE7F5E2CD
:1000A00002C005900D92A837B107D9F721E0A8E763
:1000B000B0E001C01D92A536B207E1F70E94F90534
:1000C0000C94BD120C9400001F920F920FB60F9269
:1000D00011242F933F934F935F936F937F938F934D
:1000E0009F93AF93BF93EF93FF9381B1887F803845
:1000F00081F040F4803609F096C385EC86BF1092FB
:10010000E60096C3883A09F4A7C1883B09F4A4C164
:100110008AC38091E600893209F43CC108F04BC0E3
:10012000883009F4CFC0F0F4833009F4F1C070F4E2
:10013000813009F4EDC008F0A1C083B18093E600DE
:100140008091E60081508093E6005DC3853009F41C
:10015000DFC008F49FC0863009F4A8C0873009F4D6
:10016000D7C059C3843209F4D3C0C8F4813209F42A
:10017000B5C020F4803209F4CBC04DC3823209F4FB
:10018000C7C0833209F047C383B12091A60090E035
:10019000922B9093CA008093C90081E0F3C086320D
:1001A00009F4B6C008F4A7C0873209F4B5C0883294
:1001B00009F4EBC030C3833509F403C1F8F48E327F
:1001C00009F4E8C060F48B3209F4B3C008F4E2C06B
:1001D0008C3209F4DAC08D3209F4DCC01CC38035DE
:1001E00009F4D3C020F48F3209F4A3C014C38135BD
:1001F00009F4D0C0823509F4CDC00DC3803909F4AB
:100200001BC168F5853509F400C108F4F9C08635CD
:1002100009F4FBC0873509F0FEC223B180919E002E
:1002200090919F00A091A000B091A100BA2FA92F9A
:10023000982F8827822B80939E0090939F00A093F5
:10024000A000B093A1008093EB009093EC00A093EA
:10025000ED00B093EE0081E08093EF00D4C28239CC
:1002600009F4F2C008F4ECC0833909F4F1C08F3FFF
:1002700009F0D1C283B18093E500CDC283B1209152
:10028000A60090E0922B9093E4008093E3001092FC
:10029000D400B9C283B12091A60090E0922B909334
:1002A000E2008093E1001092D300ADC283B12091AF
:1002B000A60090E0922B9093E0008093DF001092D4
:1002C000D200A1C283B12091A60090E0922B90931E
:1002D000DE008093DD001092D10095C283B12091A1
:1002E000A60090E0922B9093CC008093CB0081E00D
:1002F0008093D40088C283B12091A60090E0922B15
:100300009093C8008093C70081E08093D2007BC2A5
:1003100083B18093A60077C283B12091A60090E0BC
:10032000922B9093C6008093C50081E08093D1000A
:100330006AC223B18091A2009091A300A091A40071
:10034000B091A5006627782F892F9A2F622B609392
:10035000A2007093A3008093A4009093A5002AE9C3
:1003600031E043E555E40E94720F0E94520E7093F3
:10037000CC006093CB007093CA006093C90081E009
:100380008093D4008093D3003EC283B190E0A0E07C
:10039000B0E00EC023B18091A2009091A300A09183
:1003A000A400B091A500BA2FA92F982F8827822BDF
:1003B0008093A2009093A300A093A400B093A50003
:1003C00022C223B18091A2009091A300A091A40029
:1003D000B091A500BA2FA92F982F8827822B809340
:1003E000A2009093A300A093A400B093A5008093D3
:1003F000E7009093E800A093E900B093EA0003C2FD
:1004000083B190E0A0E0B0E00EC023B180919E00E7
:1004100090919F00A091A000B091A100BA2FA92FA8
:10042000982F8827822B80939E0090939F00A09303
:10043000A000B093A100E7C183B18093D000E3C1D5
:1004400083B18093CF00DFC183B18093CE00DBC145
:1004500083B18093CD00D7C18091E600853309F444
:100460002FC108F06BC0803209F4FDC080F58131E6
:1004700009F4F6C0C0F4863009F4DAC048F48230DA
:1004800009F4D3C0843009F0C5C188B599B5D1C08D
:10049000883009F4D0C0803109F0BCC18091DB0004
:1004A0009091DC00D8C0843109F4CCC038F482319A
:1004B00009F4C3C0833109F4D3C0ACC1863109F457
:1004C000C6C008F4CDC0873109F4CAC0A3C18632C2
:1004D00009F4DDC0D0F4833209F4CFC058F481327E
:1004E00009F4C6C0823209F095C18091C90090918B
:1004F000CA00EFC0843209F4C5C0853209F08AC150
:100500008091C7009091C80094C0813309F4C9C09C
:1005100058F4873209F4C0C0803309F07BC1809160
:10052000C2009091C300D5C0833309F4BFC008F066
:10053000C2C08091C0009091C100CBC0823409F448
:1005400013C108F043C08B3309F4DFC0F0F48833E3
:1005500009F4C1C058F4863309F4B7C0873309F0F1
:1005600059C18091BC009091BD0063C0893309F4EA
:10057000C3C08A3309F04EC18091A2009091A300BC
:10058000A091A400B091A50022C18E3309F4D1C07E
:1005900078F48C3309F4BCC08D3309F03BC18091F1
:1005A0009E0090919F00A091A000B091A10003C176
:1005B000803409F4C7C008F0CEC08091B00090919B
:1005C000B100A091B200B091B30033C0883409F4F7
:1005D000DDC090F4853409F4E6C038F4833409F4BE
:1005E000CCC0843409F4D2C015C1863409F4E7C004
:1005F000873409F4F1C00EC18B3409F4EDC038F42E
:10060000893409F4D0C08A3409F4D9C003C1813ACD
:1006100009F4EBC0823A09F4F8C0803A09F0FAC054
:1006200084B78F7083B914BEEEC08AB59BB501C084
:1006300083B583B9E8C08CB7FCCF8091D900909185
:10064000DA0009C08091D7009091D80004C0809151
:10065000D5009091D60090939D0080939C0039C066
:1006600080919C00E6CF8091CB009091CC0031C06E
:100670008091CB009091CC00DCCF8091C90090910B
:10068000CA00D7CF8091C7009091C80022C0809146
:10069000C5009091C6001DC08091C5009091C60014
:1006A000C8CF8091C2009091C300C3CF8091C00099
:1006B0009091C100BECF8091BE009091BF0009C053
:1006C0008091BE009091BF00B4CF8091BC0090910A
:1006D000BD0093B998C08091AC009091AD00A091FD
:1006E000AE00B091AF008093A2009093A300A093BE
:1006F000A400B093A50052C08091A2009091A300E5
:10070000A091A400B091A50056C08091A20091CF05
:100710008091A8009091A900A091AA00B091AB008F
:1007200080939E0090939F00A093A000B093A1009F
:1007300035C080919E0090919F00A091A000B09143
:10074000A10045C08091B8009091B900A091BA0075
:10075000B091BB0023C08091B8009091B900A091E6
:10076000BA00B091BB0027C08091B8009091B90049
:10077000A091BA00B091BB002AC08091B8009091BE
:10078000B900A091BA00B091BB0053CF8091B400E2
:100790009091B500A091B600B091B7008B2F99272A
:1007A000AA27BB2746CF8091B4009091B500A091B5
:1007B000B600B091B700CD01AA27BB273ACF8091F0
:1007C000B4009091B500A091B600B091B700892F08
:1007D0009A2FAB2FBB272DCF8091B4009091B500FD
:1007E000A091B600B091B70024CF80B326B3807437
:1007F00090E033E0959587953A95E1F72770282B9F
:1008000020952F7023B985EC07C08091A70083B98C
:1008100085EC86BF13B885E886BF8091E6008F5FC0
:100820008093E60005C086B78B7E86BF85EC86BFC9
:10083000FF91EF91BF91AF919F918F917F916F91B8
:100840005F914F913F912F910F900FBE0F901F908E
:1008500018951F920F920FB60F9211242F933F936A
:100860004F935F938F939F9399B390FD02C080E065
:1008700001C083E091FF02C091E0892720919B0095
:10088000281B20FF1FC080939B008091D000422F27
:100890004270882349F08091DB009091DC00242F86
:1008A00030E02150310908C08091DB009091DC00DC
:1008B00021E030E0241B3109820F931F9093DC006C
:1008C0008093DB0099B392959F7090FD02C080E009
:1008D00001C083E091FF02C091E0892720919A0036
:1008E000281B20FF1FC080939A008091CF002270A8
:1008F000882359F08091D9009091DA0041E050E0CE
:10090000421B5109840F951F09C08091D900909115
:10091000DA0030E021503109820F931F9093DA0002
:100920008093D90099B39695969590FD02C080E08A
:1009300001C083E091FF02C091E0892720919900D6
:10094000281B20FF1FC0809399008091CE00227049
:10095000882359F08091D7009091D80041E050E071
:10096000421B5109840F951F09C08091D7009091B7
:10097000D80030E021503109820F931F9093D800A6
:100980008093D70099B3929596959695937090FD24
:1009900002C080E001C083E0927011F091E08927ED
:1009A00020919800281B20FF1FC080939800809101
:1009B000CD00422F4270882349F08091D50090915C
:1009C000D600242F30E02150310908C08091D50095
:1009D0009091D60021E030E0241B3109820F931F53
:1009E0009093D6008093D5008091C4008F5F809350
:1009F000C4009F918F915F914F913F912F910F90E4
:100A00000FBE0F901F9018951F920F920FB60F9266
:100A100011248F939F93EF93FF935F9B16C0E091F8
:100A2000F200F091F3008CB1808381E0E735F807A4
:100A300030F43196F093F300E093F20006C084EFB7
:100A400090E09093F3008093F200FF91EF919F91DB
:100A50008F910F900FBE0F901F9018959C018AB137
:100A600088618AB9579A80B5866080BD40E050E0C1
:100A700084E0220F331F441F551F8A95D1F760E091
:100A800079E08DE390E00E941F10DA01C90101971F
:100A9000A109B109892F9A2FAB2FBB27A7FDBA95C2
:100AA00080BD215029B984EF90E09093F1008093AC
:100AB000F0009093F3008093F20008955D9BFECFC9
:100AC000FC0180818CB90895CF93DF931F92CDB73D
:100AD000DEB78983CE0101960E945E0580E090E03A
:100AE0000F90DF91CF910895CF93DF93EC01CE016A
:100AF0002196FC012081222319F00E945E05F7CF88
:100B0000DF91CF9108955F9BFECF8CB190E0089567
:100B10000C94830568E875E084E695E00C946B100E
:100B2000CF93DF93FC01E253FF4FA081B181EC0131
:100B3000C453DF4F28813981A217B307A1F05D9B11
:100B400012C02C912CB920813181AC0145535F4FEB
:100B50002417350718F42F5F3F4F03C09C01285915
:100B60003F4F31832083E091F000F091F10020911C
:100B7000F2003091F3002E173F07C1F1DC01AC59B0
:100B8000BF4FCD91DC911197208128836D917C918D
:100B900011979C012B523F4FE9013881EB012881CD
:100BA000321307C09C012C523F4FE90148814F5F2F
:100BB00048839C012D593F4F6217730728F4EB01BE
:100BC0002196CD93DC9302C08D939C93D1E0E735C1
:100BD000FD0730F43196F093F100E093F00006C089
:100BE00084EF90E09093F1008093F000DF91CF913B
:100BF0000895CF93DF93CDB7DEB76E970FB6F89415
:100C0000DEBF0FBECDBF88E087BB8CEF84BB8CEB13
:100C100081BB1092E50080E895E20E942E050E94BB
:100C20008A0580E582B986B78B7E86BF85EC86BF54
:100C300081EF8FBD89E08EBD1BBC1ABC19BC18BCEE
:100C400089E785BD13BC83BF1CBE8EE690E00E9481
:100C5000E81085B78F7885BF84E089BF7894222417
:100C6000239433243A948091E6008F3F41F480919D
:100C7000E500853A21F4F894E0E0F8E109958091E7
:100C8000EF00882309F461C0F894C090E700D09089
:100C9000E800E090E900F090EA006091EB007091CC
:100CA000EC008091ED009091EE001092EF007894AE
:100CB0002BED3FE049E450E40E94720F25E236E05C
:100CC00041E85EE30E94720F20E030E040E05FE325
:100CD0000E94720FA70196010E947F0D4B015C01DB
:100CE000A7019601C701B6010E947F0DA5019401DD
:100CF0000E947E0D2AE931E043E555E40E94720F1F
:100D00000E94520E7093CC006093CB007093CA0087
:100D10006093C9002AE931E043E555E4C501B40117
:100D20000E94720F0E94520E7093C8006093C70019
:100D30007093C6006093C500F1E0F093D400F09387
:100D4000D300F093D200F093D1008091C4008C398D
:100D500008F47FC51092C400F8942091DB00309114
:100D6000DC003A8329834091D9005091DA005C83FA
:100D70004B838091D7009091D8009E838D83E09122
:100D8000D500F091D600F887EF8378948091960093
:100D9000909197005901A81AB90A809194009091F6
:100DA00095008A01081B190B809192009091930085
:100DB000ED80FE80E81AF90A8091900090919100F0
:100DC0006F01C81AD90AB501882777FD8095982F39
:100DD0000E94850E2AE037ED43E25CE30E94EA0DB3
:100DE0000E94520E69877A878B879C87B801882773
:100DF00077FD8095982F0E94850E2AE037ED43E21B
:100E00005CE30E94EA0D0E94520E6D877E878F87F9
:100E1000988BB701882777FD8095982F0E94850EC3
:100E20002AE037ED43E25CE30E94EA0D0E94520E95
:100E3000698B7A8B8B8B9C8BB601882777FD80958D
:100E4000982F0E94850E2AE037ED43E25CE30E9472
:100E5000EA0D0E94520E6D8B7E8B8F8B988FB501A1
:100E6000600F711F882777FD8095982F0E94850E4F
:100E70002AE931E043ED55E40E94EA0D4B015C01A3
:100E8000B7016C0D7D1D882777FD8095982F0E94F6
:100E9000850E2AE931E043ED55E40E94EA0D2B016D
:100EA0003C01C090B000D090B100E090B200F09052
:100EB000B300A50194010E947E0D25E236E041E8D1
:100EC0005EE30E94EA0D9B01AC01C701B6010E94DE
:100ED0007F0D6B017C012BED3FE049EC50E40E945B
:100EE0006E0F2BED3FE049EC50E418162CF4C701CF
:100EF000B6010E947E0D0EC0C701B6010E94E30D2F
:100F000087FF0AC02BED3FE049EC50E4C701B60172
:100F10000E947F0D6B017C01A3019201C501B40108
:100F20000E947F0D20E030E040E05FE30E94720FFE
:100F30004B015C014090B8005090B9006090BA003D
:100F40007090BB00C701B6010E94E70DA501940196
:100F50000E94720F9B01AC01C301B2010E947F0D80
:100F6000698F7A8F8B8F9C8F4090B4005090B50022
:100F70006090B6007090B700C701B6010E94D50F0F
:100F8000A50194010E94720F9B01AC01C301B20143
:100F90000E947F0D2B013C010D851E8529853A8518
:100FA000020F131F17FF02C00F5F1F4F1595079504
:100FB0004D895E8989899A89480F591F57FF02C058
:100FC0004F5F5F4FFA01F595E795FE8FED8FBF01FB
:100FD000600F711F882777FD8095982F0E94850EDE
:100FE0002AE931E043ED55E40E94EA0D4B015C0132
:100FF0006D8D7E8D601B710B882777FD8095982FF6
:101000000E94850E2BEB3CE047E255E40E94EA0D7E
:10101000F894C092B000D092B100E092B200F09289
:10102000B300298D3A8D4B8D5C8D2093B8003093A1
:10103000B9004093BA005093BB004092B400509264
:10104000B5006092B6007092B70049855A855093FA
:10105000C3004093C200ED85FE85F093C100E0938C
:10106000C00029893A893093BF002093BE004D8982
:101070005E895093BD004093BC008092AC0090927A
:10108000AD00A092AE00B092AF006093A800709344
:10109000A9008093AA009093AB00789489819A81EB
:1010A0009093970080939600EB81FC81F0939500DC
:1010B000E09394002D813E81309393002093920021
:1010C0004F81588550939100409390008091D400B7
:1010D000813009F0A9C08091CB009091CC00892B80
:1010E00089F41092E4001092E30010928F001092A5
:1010F0008E0010928A0010928B0010928C00109239
:101100008D0092C00091CB001091CC008091C20064
:101110009091C300081B190B2801662457FC6094AA
:10112000762CC0908A00D0908B00E0908C00F090DC
:101130008D00C40CD51CE61CF71CC0928A00D0920E
:101140008B00E0928C00F0928D008091E3009091F2
:10115000E400BC01882777FD8095982F0E94850EBA
:101160004B015C01C301B2010E94850E2CEB34E7F8
:1011700043E15CE30E94720F2B013C01C701B60101
:101180000E94850E2BE631ED46E05AE30E94720F75
:101190009B01AC01C301B2010E947F0D6B017C0178
:1011A00080918E0090918F00F801E81BF90BBF0130
:1011B000882777FD8095982F0E94850E2CE234EDCC
:1011C0004AE15DE30E94720F9B01AC01C701B601C9
:1011D0000E947F0D9B01AC01C501B4010E947F0DEF
:1011E0000E94520E7093E4006093E30010938F000E
:1011F00000938E008091E3009091E4008F3F910571
:1012000041F03CF02FEF30E03093E4002093E30016
:101210000BC08091E3009091E40081309F4F24F453
:101220003092E4002092E3008091D300813009F0F5
:10123000A9C08091C9009091CA00892B89F41092AD
:10124000E2001092E1001092890010928800109242
:10125000840010928500109286001092870092C040
:101260000091C9001091CA008091C0009091C10006
:10127000081B190B2801662457FC6094762CC0903B
:101280008400D0908500E0908600F0908700C40C28
:10129000D51CE61CF71CC0928400D0928500E09219
:1012A0008600F09287008091E1009091E200BC01FD
:1012B000882777FD8095982F0E94850E4B015C0151
:1012C000C301B2010E94850E2CEB34E743E15CE3DD
:1012D0000E94720F2B013C01C701B6010E94850ECE
:1012E0002BE631ED46E05AE30E94720F9B01AC0100
:1012F000C301B2010E947F0D6B017C0180918800C7
:1013000090918900A801481B590BBA01882777FDE5
:101310008095982F0E94850E2CE234ED4AE15DE322
:101320000E94720F9B01AC01C701B6010E947F0DA4
:101330009B01AC01C501B4010E947F0D0E94520EB9
:101340007093E2006093E10010938900009388009D
:101350008091E1009091E2008F3F910541F03CF0D7
:101360008FEF90E09093E2008093E1000BC08091BA
:10137000E1009091E20081309F4F24F43092E2002E
:101380002092E1008091D200813009F0A9C08091C3
:10139000C7009091C800892B89F41092E000109248
:1013A000DF00109283001092820010927E00109253
:1013B0007F00109280001092810092C00091C700BF
:1013C0001091C8008091BE009091BF00081B190BBE
:1013D0002801662457FC6094762CC0907E00D09043
:1013E0007F00E0908000F0908100C40CD51CE61CCA
:1013F000F71CC0927E00D0927F00E0928000F092B5
:1014000081008091DF009091E000BC01882777FD8A
:101410008095982F0E94850E4B015C01C301B2019B
:101420000E94850E2CEB34E743E15CE30E94720FCF
:101430002B013C01C701B6010E94850E2BE631ED60
:1014400046E05AE30E94720F9B01AC01C301B20156
:101450000E947F0D6B017C0180918200909183003E
:101460009801281B390BB901882777FD8095982FA3
:101470000E94850E2CE234ED4AE15DE30E94720F7A
:101480009B01AC01C701B6010E947F0D9B01AC011D
:10149000C501B4010E947F0D0E94520E7093E000BE
:1014A0006093DF0010938300009382008091DF003F
:1014B0009091E0008F3F910541F03CF04FEF50E0FC
:1014C0005093E0004093DF000BC08091DF009091CB
:1014D000E00081309F4F24F43092E0002092DF0042
:1014E0008091D100813009F0A9C08091C500909110
:1014F000C600892B89F41092DE001092DD00109254
:101500007D0010927C001092780010927900109269
:101510007A0010927B0092C00091C5001091C60025
:101520008091BC009091BD00081B190B2801662416
:1015300057FC6094762CC0907800D0907900E090B1
:101540007A00F0907B00C40CD51CE61CF71CC092FE
:101550007800D0927900E0927A00F0927B0080913E
:10156000DD009091DE00BC01882777FD8095982FE3
:101570000E94850E4B015C01C301B2010E94850EE1
:101580002CEB34E743E15CE30E94720F2B013C013A
:10159000C701B6010E94850E2BE631ED46E05AE305
:1015A0000E94720F9B01AC01C301B2010E947F0D2A
:1015B0006B017C0180917C0090917D00F801E81B1B
:1015C000F90BBF01882777FD8095982F0E94850E23
:1015D0002CE234ED4AE15DE30E94720F9B01AC0105
:1015E000C701B6010E947F0D9B01AC01C501B4018A
:1015F0000E947F0D0E94520E7093DE006093DD000A
:1016000010937D0000937C008091DD009091DE00BE
:101610008F3F910541F03CF02FEF30E03093DE003A
:101620002093DD000BC08091DD009091DE008130C1
:101630009F4F24F43092DE002092DD008091E30081
:101640009091E400209166003091670028173907D7
:10165000B9F18091E3009091E400892B19F485B3EE
:101660008C6017C08091D000811107C08091E30089
:101670009091E4001816190654F08091D000882348
:1016800051F08091E3009091E40097FF04C085B38E
:10169000837F85BB02C0AA98AB9A8091E3009091AA
:1016A000E40090936700809366008091E30090913E
:1016B000E40097FF03C09195819591099BBD8ABD78
:1016C0008091E1009091E2002091640030916500EA
:1016D00028173907B9F18091E1009091E200892B38
:1016E00019F485B3806317C08091CF00811107C0C2
:1016F0008091E1009091E2001816190654F0809153
:10170000CF00882351F08091E1009091E20097FF93
:1017100004C085B38F7C85BB02C0AC98AD9A809124
:10172000E1009091E20090936500809364008091C5
:10173000E1009091E20097FF03C091958195910996
:1017400099BD88BD8091DF009091E00020916200FA
:101750003091630028173907B1F18091DF00909133
:10176000E000892B19F485B3806C17C08091CE00FE
:10177000811107C08091DF009091E00018161906D2
:1017800054F08091CE00882351F08091DF00909139
:10179000E00097FF04C085B38F7385BB02C0AE988D
:1017A000AF9A8091DF009091E00090936300809366
:1017B00062008091DF009091E00097FF03C0919557
:1017C0008195910983BD8091DD009091DE0020918B
:1017D00060003091610028173907B1F18091DD0078
:1017E0009091DE00892B19F482B38C6017C0809130
:1017F000CD00811107C08091DD009091DE001816A8
:10180000190654F08091CD00882351F08091DD00BD
:101810009091DE0097FF04C082B3837F82BB02C039
:101820009298939A8091DD009091DE0090936100F0
:10183000809360008091DD009091DE0097FF03C0EF
:101840009195819591098CBF8091A7008F5F8093BE
:10185000A70085B7806885BF889585B78F7785BFD6
:1018600002CA6F927F929F92AF92BF92CF92DF9205
:10187000EF92FF920F931F93CF93DF93CDB7DEB715
:101880002C970FB6F894DEBF0FBECDBF8C017B0145
:101890003A01FC0117821682838181FF19C1CE01B2
:1018A00001965C01F801D380F701D3FC2591D3FEAA
:1018B00021917F01222309F407C1253249F4D3FC89
:1018C0002591D3FE21917F01253211F0912C1BC06F
:1018D000B801822F90E00E94B61063013601E2CF7A
:1018E000222309F4F1C0622F70E089E790E02C8791
:1018F0000E9460102C85892B49F0F701D3FC2591BB
:10190000D3FE21917F0197FEEBCF0CC0233221F44F
:10191000F92DF0619F2EF1CF2C3639F4292D206856
:10192000922EEBCF222309F4CFC0622F70E082E722
:1019300090E02C870E9460102C85892B41F0630178
:10194000F4E0CF0ED11CB8018FE390E012C0233633
:1019500041F0233789F0233521F5F92DF1609F2ED1
:101960000BC0630122E0C20ED11CB801F3018081DB
:1019700091810E94B610B2CF630122E0C20ED11C49
:10198000F30160807180F30190FC859190FE81915C
:101990003F01882309F4A2CFB80190E00E94B6105D
:1019A000F2CF243611F0293639F5630197FE09C0CC
:1019B000F4E0CF0ED11CF3016081718182819381AB
:1019C0000AC0F2E0CF0ED11CF3016081718188273B
:1019D00077FD8095982FF92DFF7E9F2E97FF09C0E8
:1019E00090958095709561957F4F8F4F9F4FF064D4
:1019F0009F2E2AE030E038C02037A1F040F428358F
:101A0000D1F02F3609F060C028E030E019C025374A
:101A100019F0283751F058C0292D2F7E922E2AE038
:101A200030E00EC0892D8061982E992D9462992EF8
:101A300020E130E005C0E92DE4609E2E20E132E097
:101A4000630197FE09C0F4E0CF0ED11CF301608161
:101A500071818281938108C0F2E0CF0ED11CF30125
:101A60006081718180E090E0A5010E941511782EBF
:101A70007A1896FE05C0B8018DE290E00E94B6107B
:101A800094FE16C0FE01E70DF11D8081803381F0C8
:101A9000B80180E390E00E94B61092FE09C0292DA3
:101AA0002072822F90E0B801885A9F4F0E94B61092
:101AB0007A94F501E70DF11D8081B80190E00E9454
:101AC000B6107110F5CF0ACFF8018681978102C058
:101AD0008FEF9FEF2C960FB6F894DEBF0FBECDBFF1
:101AE000DF91CF911F910F91FF90EF90DF90CF90FA
:101AF000BF90AF909F907F906F9008955058BB27F4
:101B0000AA270ED0A0C169D130F06ED120F031F4F7
:101B10009F3F11F41EF45EC10EF4E095E7FB54C143
:101B2000E92FB3D180F3BA176207730784079507CB
:101B300018F071F49EF5CBC10EF4E0950B2EBA2F80
:101B4000A02D0B01B90190010C01CA01A0011124C3
:101B5000FF27591B99F0593F50F4503E68F11A166F
:101B6000F040A22F232F342F4427585FF3CF469500
:101B700037952795A795F0405395C9F77EF41F1622
:101B8000BA0B620B730B840BBAF09150A1F0FF0FEC
:101B9000BB1F661F771F881FC2F70EC0BA0F621FD8
:101BA000731F841F48F4879577956795B795F795C8
:101BB0009E3F08F0B3CF9395880F08F09927EE0F5A
:101BC000979587950895DCD008F481E0089514D1A5
:101BD000E3954AC10CD037C107D140F0FED030F0B8
:101BE00021F45F3F19F0F0C0511172C1F3C04DD123
:101BF00098F39923C9F35523B1F3951B550BBB27D4
:101C0000AA2762177307840738F09F5F5F4F220F80
:101C1000331F441FAA1FA9F333D00E2E3AF0E0E879
:101C200030D091505040E695001CCAF729D0FE2FC5
:101C300027D0660F771F881FBB1F26173707480757
:101C4000AB07B0E809F0BB0B802DBF01FF2793580D
:101C50005F4F2AF09E3F510568F0B6C039C15F3F23
:101C6000ECF3983EDCF3869577956795B795F795F5
:101C70009F5FC9F7880F911D9695879597F90895ED
:101C8000E1E0660F771F881FBB1F62177307840789
:101C9000BA0720F0621B730B840BBA0BEE1F88F798
:101CA000E095089504D06894B11112C10895F5D05B
:101CB00088F09F5790F0B92F9927B751A0F0D1F035
:101CC000660F771F881F991F1AF0BA95C9F712C0BF
:101CD000B13081F0FCD0B1E00895F9C0672F782FC2
:101CE0008827B85F39F0B93FCCF38695779567952B
:101CF000B395D9F73EF490958095709561957F4F97
:101D00008F4F9F4F0895E89409C097FB3EF490953C
:101D10008095709561957F4F8F4F9F4F9923A9F0C4
:101D2000F92F96E9BB279395F69587957795679553
:101D3000B795F111F8CFFAF4BB0F11F460FF1BC097
:101D40006F5F7F4F8F4F9F4F16C0882311F096E92A
:101D500011C0772321F09EE8872F762F05C06623D8
:101D600071F096E8862F70E060E02AF09A95660F91
:101D7000771F881FDAF7880F9695879597F908954A
:101D8000990F0008550FAA0BE0E8FEEF161617068C
:101D9000E807F907C0F012161306E407F50798F0F4
:101DA000621B730B840B950B39F40A2661F0232B0D
:101DB000242B252B21F408950A2609F4A140A69589
:101DC0008FEF811D811D089597F99F6780E870E06E
:101DD00060E008959FEF80EC089500240A941616A1
:101DE000170618060906089500240A941216130609
:101DF000140605060895EECF50D0E8F3E894E0E02D
:101E0000BB279F57F0F02AED3FE049EC06C0EE0FEC
:101E1000BB0F661F771F881F28F0B23A620773074F
:101E2000840728F0B25A620B730B840BE3959A95E2
:101E300072F7803830F49A95BB0F661F771F881FA2
:101E4000D2F79048BAC0092E0394000C11F48823ED
:101E500052F0BB0F40F4BF2B11F460FF04C06F5F62
:101E60007F4F8F4F9F4F0895EF93E0FF06C0A2EA88
:101E70002AED3FE049EC5FEB53DEE5DF0F90039482
:101E800001FC9058E4E5F0E0A4C057FD9058440FE1
:101E9000551F59F05F3F71F04795880F97FB991FC9
:101EA00061F09F3F79F08795089512161306140686
:101EB000551FF2CF4695F1DF08C016161706180613
:101EC000991FF1CF86957105610508940895E894EE
:101ED000BB2766277727CB0197F9089551DF08F4D0
:101EE0008FEF08950BD0AFCF78DF28F07DDF18F0AB
:101EF000952309F069CF6ECF1124EACFC6DFA0F396
:101F0000959FD1F3950F50E0551F629FF001729F8E
:101F1000BB27F00DB11D639FAA27F00DB11DAA1FAD
:101F2000649F6627B00DA11D661F829F2227B00DFA
:101F3000A11D621F739FB00DA11D621F839FA00D85
:101F4000611D221F749F3327A00D611D231F849FD5
:101F5000600D211D822F762F6A2F11249F5750402C
:101F60008AF0E1F088234AF0EE0FFF1FBB1F661FC7
:101F7000771F881F91505040A9F79E3F510570F080
:101F800023CFA6CF5F3FECF3983EDCF386957795A1
:101F90006795B795F795E7959F5FC1F7FE2B880F7B
:101FA000911D9695879597F908959F9325DF0F903A
:101FB00007FCEE5F59CF9F3F31F0915020F4879599
:101FC00077956795B795880F911D9695879597F9A1
:101FD00008959F938F937F936F93FF93EF939B014C
:101FE000AC0180DFEF91FF9105D02F913F914F9190
:101FF0005F9178CFDF93CF931F930F93FF92EF9270
:10200000DF927B018C01689405C0DA2EEF0176DF48
:10201000FE01E894A5912591359145915591AEF336
:10202000EF017EDDFE019701A801DA9479F7DF90D8
:10203000EF90FF900F911F91CF91DF910895052EA2
:1020400097FB1EF400940E94361057FD07D00E94A3
:102050003E1007FC03D04EF40C943610509540957A
:10206000309521953F4F4F4F5F4F08959095809544
:10207000709561957F4F8F4F9F4F0895A1E21A2E63
:10208000AA1BBB1BFD010DC0AA1FBB1FEE1FFF1F1C
:10209000A217B307E407F50720F0A21BB30BE40B6C
:1020A000F50B661F771F881F991F1A9469F76095B3
:1020B0007095809590959B01AC01BD01CF0108956D
:1020C000FC010590061621F00020D9F7C001089503
:1020D0003197CF0108950F931F93CF93DF93EC01B6
:1020E0008B01009731F46115710519F480E090E0DF
:1020F00038C06EE070E081E090E00E947311FC0156
:102100000097A1F380E883830115110571F013870F
:10211000028781E8838380915B0190915C01892B28
:1021200021F4F0935C01E0935B012097C9F0D18723
:10213000C08783818260838380915D0190915E017D
:10214000892B71F4F0935E01E0935D0180915F0152
:1021500090916001892B21F4F0936001E0935F017D
:10216000CF01DF91CF911F910F9108950F931F938E
:10217000CF93DF93182F092FEB018B8181FD03C0D3
:102180008FEF9FEF20C082FF10C04E815F812C81B6
:102190003D81421753077CF4E881F9819F012F5F4D
:1021A0003F4F39832883108306C0E885F985812F46
:1021B0000995892B29F72E813F812F5F3F4F3F8360
:1021C0002E83812F902FDF91CF911F910F91089532
:1021D0000F931F93CF93DF93E0915D01F0915E0128
:1021E000238121FF1BC0EC0100E010E08991609188
:1021F0005D0170915E01DB011896ED91FC911997DC
:10220000882331F00995892B89F30FEF1FEFEECF6B
:102210008AE00995892B11F4C80102C08FEF9FEF66
:10222000DF91CF911F910F910895FA01AA272830CD
:1022300051F1203181F1E8946F936E7F6E5F7F4F93
:102240008F4F9F4FAF4FB1E03ED0B4E03CD0670F0F
:10225000781F891F9A1FA11D680F791F8A1F911D62
:10226000A11D6A0F711D811D911DA11D20D009F4B2
:1022700068943F912AE0269F11243019305D3193F4
:10228000DEF6CF010895462F4770405D4193B3E0DD
:102290000FD0C9F7F6CF462F4F70405D4A3318F084
:1022A000495D31FD4052419302D0A9F7EACFB4E035
:1022B000A6959795879577956795BA95C9F70097ED
:1022C0006105710508959B01AC010A2E069457958E
:1022D000479537952795BA95C9F7620F731F841FE5
:1022E000951FA01D08950F931F93CF93DF93869F93
:1022F0008001879F100D969F100D1124C8010E9428
:102300008F11EC01009729F0A80160E070E00E94B5
:10231000B612CE01DF91CF911F910F910895CF9307
:10232000DF938230910510F482E090E0E091630148
:10233000F091640120E030E0A0E0B0E0309739F1A6
:102340004081518148175907B8F04817590771F46F
:1023500082819381109729F013969C938E93129704
:102360002CC0909364018093630127C0211531052F
:1023700031F04217530718F0A901DB0101C0EF014A
:102380009A01BD01DF010280F381E02DD7CF211535
:102390003105F9F0281B390B2430310580F48A818E
:1023A0009B816115710521F0FB019383828304C039
:1023B0009093640180936301FE01329644C0FE0154
:1023C000E20FF31F819391932250310939832883BF
:1023D0003AC02091610130916201232B41F4209198
:1023E0006A0030916B00309362012093610120916B
:1023F0006800309169002115310541F42DB73EB7D1
:1024000040916C0050916D00241B350BE0916101EF
:10241000F0916201E217F307A0F42E1B3F0B28177F
:10242000390778F0AC014E5F5F4F2417350748F04D
:102430004E0F5F1F5093620140936101819391930E
:1024400002C0E0E0F0E0CF01DF91CF910895CF939B
:10245000DF93009709F487C0FC0132971382128240
:10246000C0916301D0916401209781F42081318172
:10247000280F391F809161019091620182179307A3
:1024800079F5F0936201E09361016DC0DE0120E017
:1024900030E0AE17BF0750F412964D915C91139740
:1024A0009D014115510509F1DA01F3CFB383A283F0
:1024B00040815181840F951F8A179B0771F48D917C
:1024C0009C911197840F951F029691838083129699
:1024D0008D919C911397938382832115310529F463
:1024E000F0936401E09363013EC0D9011396FC931D
:1024F000EE9312974D915D91A40FB51FEA17FB075C
:1025000079F480819181840F951F0296D9011196EB
:102510009C938E938281938113969C938E931297B2
:10252000E0E0F0E08A819B81009719F0FE01EC0168
:10253000F9CFCE01029628813981820F931F209115
:102540006101309162012817390769F4309729F445
:10255000109264011092630102C013821282D09320
:102560006201C0936101DF91CF910895DC0101C048
:0E2570006D9341505040E0F70895F894FFCF6E
:10257E0000800080008000800000650120000D0AB0
:08258E0053746172740D00002A
:00000001FF
