:100000000C94E6000C9403010C9403010C9403017E
:100010000C9403010C9403010C9403010C94030150
:100020000C9403010C9455040C9403010C940301EB
:100030000C9403010C9440050C9403010C940301EF
:100040000C9403010C9403010C9403010C9405011E
:100050000C940301F002FA02F302FA02F602FA0229
:10006000F802FA0237043704370437043704370438
:10007000FC02140301031403060314030B0314030B
:100080003704370437043704370437043704370498
:1000900017031C03210326032B03300335033A0304
:1000A0003704370437043704370437043704370478
:1000B0003F03440349034E03530358035D036303A3
:1000C0006803790382038B038E03A303AC031F042D
:1000D000B503BE03C703D003D903E203EB03F40364
:1000E000FD03060412041F043704370437043704E1
:1000F0003704370437043704370437043704370428
:100100003704370437043704370437043704370417
:100110003704370437043704370437043704370407
:1001200037043704370437043704370437043704F7
:1001300037043704370437043704370437043704E7
:1001400037043704370437043704370437043704D7
:1001500037043704370437043704370437043704C7
:1001600037043704370437043704370437043704B7
:1001700037043704370437043704370437043704A7
:100180003704370437043704370437043704370497
:1001900028042D04320405A84CCDB2D44EB938360B
:1001A000A9020C50B9918688083CA6AAAA2ABE00CA
:1001B0000000803F45464765666700202B2D2E30A6
:1001C00031323334353637383968000011241FBED8
:1001D000CFE5D8E0DEBFCDBF10E0A0E6B0E0EAEAB0
:1001E000FCE202C005900D92AA37B107D9F721E0D1
:1001F000AAE7B0E001C01D92A037B207E1F70E9464
:1002000036060C9453160C9400001F920F920FB6F2
:100210000F9211242F933F934F935F936F937F938C
:100220008F939F93AF93BF93EF93FF9381B1887F99
:10023000803A09F425C328F4803651F0803869F0FB
:1002400021C3883A09F4BEC1883B09F4BBC11AC373
:1002500085EC86BF1092F10017C38091F1008A32BD
:1002600009F44BC108F047C0803209F402C138F5E7
:10027000843009F4C1C060F4813009F4FAC008F494
:10028000A6C0823009F4ACC0833009F4F2C0F0C2D9
:10029000863009F4BDC008F4ECC0873009F4E9C029
:1002A000883009F0E5C283B12091A80090E0922B3C
:1002B0009093E9008093E8001092DC00D1C285326F
:1002C00009F4CAC060F4823209F4D3C008F4ACC0A7
:1002D000833209F4B6C0843209F4CBC0C9C2873274
:1002E00009F4CBC008F4C5C0883209F401C18932D1
:1002F00009F403C1BDC2843509F416C1E8F58F3293
:1003000009F4C8C060F48C3209F4F2C008F4C2C029
:100310008D3209F4F2C08E3209F4EFC0A9C28135E2
:1003200009F4EBC020F4803509F4E2C0A1C28235A3
:1003300009F4E3C0833509F09BC223B18091A40086
:100340009091A500A091A600B091A700BA2FA92F67
:10035000982F8827822B8093A4009093A500A093C8
:10036000A600B093A7008093F2009093F300A093AF
:10037000F400B093F50074C2813909F410C178F427
:10038000863509F4D6C008F4D4C0873509F4E8C02E
:10039000803909F06DC283B18093690061C28439EC
:1003A00009F405C150F4823909F4FDC0833909F01C
:1003B0005FC283B18093DA0053C2853909F4FBC070
:1003C0008F3F09F055C283B18093F00051C283B1D1
:1003D0008093F1008091F10081508093F10040C240
:1003E00083B12091A80090E0922B9093EF0080932E
:1003F000EE001092DF0034C283B12091A80090E09B
:10040000922B9093ED008093EC001092DE0028C2B6
:1004100083B12091A80090E0922B9093EB00809301
:10042000EA001092DD001CC283B12091A80090E088
:10043000922B9093D9008093D80081E08093DF00C5
:100440000FC283B12091A80090E0922B9093D70027
:100450008093D60081E049C083B12091A80090E04C
:10046000922B9093D5008093D40081E08093DD009F
:10047000F7C183B18093A800F3C183B12091A80094
:1004800090E0922B9093D3008093D20081E08093F0
:10049000DC00E6C123B18091A4009091A500A09159
:1004A000A600B091A700BA2FA92F982F8827BC01CA
:1004B000CD01622B6093A4007093A5008093A600E9
:1004C0009093A70020E038E24EEA55E40E949E1285
:1004D0000E9472117093D9006093D8007093D70076
:1004E0006093D60081E08093DF008093DE00B8C186
:1004F00083B190E0A0E0B0E00EC023B18091A400F1
:100500009091A500A091A600B091A700BA2FA92FA5
:10051000982F8827822B8093A4009093A500A09306
:10052000A600B093A7009CC183B190E0A0E0B0E02A
:100530000EC023B18091A0009091A100A091A200D3
:10054000B091A300BA2FA92F982F8827822B8093D0
:10055000A0009093A100A093A200B093A30080C13B
:1005600023B18091A0009091A100A091A200B09130
:10057000A300BA2FA92F982F8827822B8093A00041
:100580009093A100A093A200B093A3008093F600E3
:100590009093F700A093F800B093F9000FC083B1D7
:1005A000809368005DC183B18093DB0059C183B142
:1005B0008093AB0003C083B18093AA0081E0809355
:1005C000FA004EC1E091F1008E2F90E0FC013297CD
:1005D000E13AF10508F04BC1E65DFF4F0C947B1347
:1005E0008AB59BB53CC188B599B539C183B537C1CA
:1005F0008CB735C113B834C18091E6009091E70003
:100600000EC08091E4009091E50009C08091E20065
:100610009091E30004C08091E0009091E1009093FC
:100620009F0080939E004DC080919E0018C18091D4
:10063000D8009091D90045C08091D8009091D90000
:100640000EC18091D6009091D7003BC08091D6001A
:100650009091D70004C18091D4009091D50031C011
:100660008091D4009091D500FAC08091D2009091F1
:10067000D30027C08091D2009091D300F0C0809128
:10068000C7009091C8001DC08091C7009091C8001C
:10069000E6C08091C5009091C60013C08091C5004E
:1006A0009091C600DCC08091C3009091C40009C045
:1006B0008091C3009091C400D2C08091C1009091FC
:1006C000C20093B9CDC08091C1009091C200C7C053
:1006D0008091B1009091B200A091B300B091B400AC
:1006E0008093A4009093A500A093A600B093A700C8
:1006F00025C08091A4009091A500A091A600B09182
:10070000A7008CC08091A4009091A500A091A600A4
:10071000B091A7008FC08091A400A1C08091AD00CE
:100720009091AE00A091AF00B091B0008093A00076
:100730009093A100A093A200B093A3008B2F9927C0
:10074000AA27BB278CC08091A0009091A100A09106
:10075000A200B091A30062C08091A0009091A1007E
:10076000A091A200B091A30065C08091BD009091BE
:10077000BE00A091BF00B091C000E0CF8091BD004D
:100780009091BE00A091BF00B091C00047C0809181
:10079000BD009091BE00A091BF00B091C0004AC0C2
:1007A0008091BD009091BE00A091BF00B091C000AB
:1007B00056C08091B9009091BA00A091BB00B09151
:1007C000BC00BCCF8091B9009091BA00A091BB0051
:1007D000B091BC0023C08091B9009091BA00A09163
:1007E000BB00B091BC0026C08091B9009091BA00C6
:1007F000A091BB00B091BC0032C08091B500909137
:10080000B600A091B700B091B80098CF8091B50024
:100810009091B600A091B700B091B800CD01AA2781
:10082000BB271DC08091B5009091B600A091B70084
:10083000B091B800892F9A2FAB2FBB2710C08091A1
:10084000B5009091B600A091B700B091B80007C074
:1008500084B78F7083B914BE03C08091A90083B997
:1008600085EC07C08091AC0083B985EC86BF13B8D6
:1008700085E886BF8091F1008F5F8093F10004C00E
:1008800085EC01C085ED86BFFF91EF91BF91AF91DF
:100890009F918F917F916F915F914F913F912F9198
:1008A0000F900FBE0F901F9018951F920F920FB6CA
:1008B0000F9211242F933F934F935F936F937F93E6
:1008C0008F939F9389B380FF02C093E001C090E0B3
:1008D00081FF02C081E0982780919D00891B80FFE5
:1008E00022C090939D0020916900982F927022233E
:1008F00051F02091E6003091E700892F90E00197B8
:10090000820F931F0CC04091E6005091E70021E058
:1009100030E0B901691B7109CB01840F951F9093D9
:10092000E7008093E60089B382958F7080FF02C054
:1009300093E001C090E081FF02C081E098278091A0
:100940009C00891B80FF22C090939C00209168002E
:10095000982F9270222369F04091E4005091E500B5
:1009600021E030E0B901691B7109CB01840F951FAB
:1009700009C02091E4003091E500892F90E00197B3
:10098000820F931F9093E5008093E40089B38695CE
:10099000869580FF02C093E001C090E081FF02C015
:1009A00081E0982780919B00891B80FF22C0909353
:1009B0009B002091DB00982F9270222369F04091D8
:1009C000E2005091E30021E030E0B901691B7109B8
:1009D000CB01840F951F09C02091E2003091E30004
:1009E000892F90E00197820F931F9093E3008093EB
:1009F000E20089B3829586958695837080FF02C058
:100A000093E001C090E0827011F081E0982780911E
:100A10009A00891B80FF22C090939A002091DA00EF
:100A2000982F9270222351F02091E0003091E10044
:100A3000892F90E00197820F931F0CC04091E00036
:100A40005091E10021E030E0B901691B7109CB014F
:100A5000840F951F9093E1008093E0008091C9007E
:100A60008F5F8093C9009F918F917F916F915F916C
:100A70004F913F912F910F900FBE0F901F9018959F
:100A80001F920F920FB60F9211248F939F93EF93A3
:100A9000FF935F9B16C0E091FD00F091FE008CB1CA
:100AA000808381E0E236F80730F43196F093FE005F
:100AB000E093FD0006C08FEF90E09093FE008093DE
:100AC000FD00FF91EF919F918F910F900FBE0F90BE
:100AD0001F9018959C018AB188618AB9579A80B590
:100AE000866080BDC901A0E0B0E09C01AD0184E05A
:100AF000220F331F441F551F8A95D1F760E47BE412
:100B00008CE490E00E945C13DA01C9010197A1090D
:100B1000B109892F9A2FAB2FBB27A7FDBA9580BDAE
:100B2000215029B98FEF90E09093FC008093FB0057
:100B30009093FE008093FD0008955D9BFECFFC0125
:100B400080818CB90895CF93DF931F92CDB7DEB724
:100B50008983CE0101960E949D0580E090E00F9070
:100B6000DF91CF910895CF93DF93EC01CE012196D1
:100B7000FC012081222319F00E949D05F7CFDF910F
:100B8000CF9108955F9BFECF8CB190E008950C94B7
:100B9000C20567EC75E083EA95E00C94E513CF930A
:100BA000DF93FC01E253FF4FA081B181EC01C453FC
:100BB000DF4F28813981A217B307A1F05D9B12C0D6
:100BC0002C912CB920813181AC0145535F4F241702
:100BD000350718F42F5F3F4F03C09C0128593F4F42
:100BE00031832083E091FB00F091FC002091FD0017
:100BF0003091FE002E173F07B1F1EC01CC59DF4FC9
:100C0000A881B98120812C93688179819C012B5224
:100C10003F4FD9013C91DB012C91321307C0AC014D
:100C20004C525F4FDA012C912F5F2C939C012D5970
:100C30003F4F6217730728F4DB011196B983A8832D
:100C400002C099838883B1E0E236FB0730F4319625
:100C5000F093FC00E093FB0006C08FEF90E09093D0
:100C6000FC008093FB00DF91CF910895CF93DF9339
:100C7000CDB7DEB7A0970FB6F894DEBF0FBECDBFDD
:100C800088E087BB8CEF84BB8CEB81BB87E088BBA3
:100C900080E482BB1092F00080E895E20E946A0531
:100CA0000E94C90580E582B985EC86BF81E08FBDD1
:100CB00089E08EBD1BBC1ABC19BC18BC89E485BD7B
:100CC00013BC83BF1CBE80E790E00E94681485B708
:100CD0008F7885BF84E089BF789422242A94312CB0
:100CE00000E010E88091F1008F3FA1F48091F000C6
:100CF000853A81F4F8946BE780E090E00E94461614
:100D0000E199FECF28E138E00FB6F894A89521BD0F
:100D10000FBE31BD8091FA00882309F4E1C0F89438
:100D20008090F2009090F300A090F400B090F50055
:100D30006091F6007091F7008091F8009091F900B1
:100D40001092FA00789425E739E54CEC5EE30E94B6
:100D50009E1220E030E040E05FE30E949E12A50179
:100D600094010E948A106B017C01A5019401C501C8
:100D7000B4010E948A10A70196010E94891020E008
:100D800038E24EEA55E40E949E124B015C0120E0DD
:100D900038E24EEA55E4C701B6010E949E126B018B
:100DA0007C018091AA008823B9F18091AA0064E6B1
:100DB00070E0681B7109072E000C880B990B0E94CC
:100DC000AA119B01AC01C501B4010E949E1220E052
:100DD00030E048EC52E40E9400110E9472117093BE
:100DE000D9006093D8008091AA0064E670E0681B87
:100DF0007109072E000C880B990B0E94AA119B0108
:100E0000AC01C701B6010E949E1220E030E048EC20
:100E100052E40E9400110AC0C501B4010E9472117F
:100E20007093D9006093D800C701B6010E94721177
:100E30007093D5006093D4008091AB008823B9F102
:100E40008091AB0064E670E0681B7109072E000C0E
:100E5000880B990B0E94AA119B01AC01C501B4013A
:100E60000E949E1220E030E048EC52E40E94001103
:100E70000E9472117093D7006093D6008091AB00EE
:100E800064E670E0681B7109072E000C880B990B53
:100E90000E94AA119B01AC01C701B6010E949E12DB
:100EA00020E030E048EC52E40E9400110AC0C50185
:100EB000B4010E9472117093D7006093D600C701ED
:100EC000B6010E9472117093D3006093D20041E08A
:100ED0004093DF004093DE004093DD004093DC0050
:100EE0008091C900833C08F4E5C71092C900F894CA
:100EF0008091E6009091E7009A838983E091E40075
:100F0000F091E500FC83EB832091E2003091E30057
:100F10003E832D834091E0005091E10058874F833C
:100F200078948091980090919900E980FA80E81A6D
:100F3000F90A80919600909197006F01C81AD90A1A
:100F400080919400909195003901681A790A8091F6
:100F50009200909193002A01481A590AB7010F2C68
:100F6000000C880B990B0E94AA112AE037ED43E28E
:100F70005CE30E9400110E9472116D877E878F874B
:100F8000988BB6010D2C000C880B990B0E94AA11AE
:100F90002AE037ED43E25CE30E9400110E947211E7
:100FA000698B7A8B8B8B9C8BB301072C000C880B85
:100FB000990B0E94AA112AE037ED43E25CE30E94FC
:100FC00000110E9472116D8B7E8B8F8B988FB201F6
:100FD000052C000C880B990B0E94AA112AE037ED12
:100FE00043E25CE30E9400110E947211698F7A8FC4
:100FF0008B8F9C8FB7016C0D7D1D072E000C880B0D
:10100000990B0E94AA1120E038E24EE256E40E94B9
:1010100000114B015C01B301640D751D072E000C1E
:10102000880B990B0E94AA1120E038E24EE256E4A8
:101030000E9400112B013C01A50194010E9489101E
:1010400025E739E54CEC5EE30E94001169877A8759
:101050008B879C876091B5007091B6008091B70036
:101060009091B80029853A854B855C850E948A104D
:101070006B017C012BED3FE049EC50E40E9499129A
:1010800018164CF42BED3FE049EC50E4C701B601D3
:101090000E94891012C02BED3FE049EC50ECC701D3
:1010A000B6010E94F61087FF0AC02BED3FE049EC25
:1010B00050E4C701B6010E948A106B017C01A301B4
:1010C0009201C501B4010E948A1020E030E040E0A6
:1010D0005FE30E949E124B015C014090BD00509066
:1010E000BE006090BF007090C000C701B6010E94B2
:1010F000FB10A50194010E949E129B01AC01C3014B
:10110000B2010E948A106D8F7E8F8F8F98A34090BE
:10111000B9005090BA006090BB007090BC00C7014D
:10112000B6010E940B13A50194010E949E129B011F
:10113000AC01C301B2010E948A102B013C012AE0DC
:1011400037ED43E25CE3C501B4010E9400114B019D
:101150005C012AE037ED43E25CE369857A858B85A3
:101160009C850E940011F894C092B500D092B60000
:10117000E092B700F092B8002D8D3E8D4F8D58A1B2
:101180002093BD003093BE004093BF005093C00039
:101190004092B9005092BA006092BB007092BC00BD
:1011A0004D855E855093C8004093C700E989FA8950
:1011B000F093C600E093C5002D893E893093C400AA
:1011C0002093C300498D5A8D5093C2004093C100B3
:1011D0008092B1009092B200A092B300B092B4009D
:1011E0006093AD007093AE008093AF009093B00019
:1011F000789489819A819093990080939800EB81EB
:10120000FC81F0939700E09396002D813E8130930E
:101210009500209394004F815885509393004093FC
:10122000920080918E0090918F00A0919000B091DB
:101230009100B7FF07C0B095A095909581959F4FFD
:10124000AF4FBF4F813E9242A240B105CCF080919A
:10125000C7009091C800892B99F41092EF0010926A
:10126000EE001092DF008091A90080618093A900B8
:1012700010928E0010928F001092900010929100A8
:1012800080918A0090918B00A0918C00B0918D008C
:10129000B7FF07C0B095A095909581959F4FAF4F30
:1012A000BF4F813E9242A240B105CCF08091C50073
:1012B0009091C600892B99F41092ED001092EC00E9
:1012C0001092DE008091A90080628093A9001092A4
:1012D0008A0010928B0010928C0010928D008091E9
:1012E000860090918700A0918800B0918900B7FF97
:1012F00007C0B095A095909581959F4FAF4FBF4F78
:10130000813E9242A240B105CCF08091C300909101
:10131000C400892B99F41092EB001092EA0010920D
:10132000DD008091A90080648093A900109286005E
:10133000109287001092880010928900809182009C
:1013400090918300A0918400B0918500B7FF07C001
:10135000B095A095909581959F4FAF4FBF4F813E1F
:101360009242A240B105CCF08091C1009091C200A0
:10137000892B99F41092E9001092E8001092DC0099
:101380008091A90080688093A90010928200109239
:10139000830010928400109285008091DF008130DC
:1013A00009F002C12091D8003091D9008091D0007D
:1013B0009091D1002817390711F18091D8009091B0
:1013C000D9002091D0003091D100821B930B97FF60
:1013D00003C0919581959109853F914044F0109209
:1013E0008E0010928F0010929000109291008091C8
:1013F000D8009091D9009093D1008093D000809133
:10140000D8009091D9001816190634F48091C700BD
:101410009091C80097FD13C08091D8009091D90099
:1014200097FF10C08091C7009091C80031E020E084
:10143000181619060CF030E0832F922F05C081E0BA
:1014400090E002C080E090E02091D8003091D90077
:10145000232B11F0892B71F01092EF001092EE0007
:1014600010928100109280008091A9008F7E80935D
:10147000A9009AC0E090D800F090D9008091C700F0
:101480009091C800E81AF90AB7010F2C000C880BDC
:10149000990B80908E0090908F00A0909000B0905B
:1014A0009100860E971EA81EB91E80928E00909203
:1014B0008F00A0929000B09291000E94AA1126EB9A
:1014C00033EF4DE75DE30E949E122B013C01C50105
:1014D000B4010E94AA1121E539E44DE95AE30E94C2
:1014E0009E129B01AC01C301B2010E948A104B0104
:1014F0005C018091800090918100B701681B790B9D
:10150000072E000C880B990B0E94AA1120E030E0F6
:10151000A9010E949E129B01AC01C501B4010E9469
:101520008A100E9472117093EF006093EE00F092A7
:101530008100E09280008091EE009091EF001816FB
:10154000190634F48091D8009091D90097FD0DC010
:101550008091EE009091EF0097FF0CC08091D80031
:101560009091D900181619062CF41093EF000093EF
:10157000EE001AC08091EE009091EF008F3F910530
:1015800031F02CF03092EF002092EE000DC08091EF
:10159000EE009091EF0081309F4F34F481E09FEF97
:1015A0009093EF008093EE008091DE00813009F08F
:1015B00002C12091D6003091D7008091CE00909149
:1015C000CF002817390711F18091D6009091D700EC
:1015D0002091CE003091CF00821B930B97FF03C068
:1015E000919581959109853F914044F010928A0030
:1015F00010928B0010928C0010928D008091D6007A
:101600009091D7009093CF008093CE008091D60028
:101610009091D7001816190634F48091C500909166
:10162000C60097FD13C08091D6009091D70097FF18
:1016300010C08091C5009091C60031E020E01816DE
:1016400019060CF030E0832F922F05C081E090E066
:1016500002C080E090E02091D6003091D700232B8B
:1016600011F0892B71F01092ED001092EC001092A5
:101670007F0010927E008091A9008F7D8093A90049
:101680009AC0E090D600F090D7008091C50090916C
:10169000C600E81AF90AB7010F2C000C880B990B49
:1016A00080908A0090908B00A0908C00B0908D006C
:1016B000860E971EA81EB91E80928A0090928B00FB
:1016C000A0928C00B0928D000E94AA1126EB33EFFD
:1016D0004DE75DE30E949E122B013C01C501B40160
:1016E0000E94AA1121E539E44DE95AE30E949E12B5
:1016F0009B01AC01C301B2010E948A104B015C0145
:1017000080917E0090917F00B701681B790B072EB6
:10171000000C880B990B0E94AA1120E030E0A9016F
:101720000E949E129B01AC01C501B4010E948A1067
:101730000E9472117093ED006093EC00F0927F00B4
:10174000E0927E008091EC009091ED001816190651
:1017500034F48091D6009091D70097FD0DC0809110
:10176000EC009091ED0097FF0CC08091D600909115
:10177000D700181619062CF41093ED000093EC0016
:101780001AC08091EC009091ED008F3F910531F0EF
:101790002CF03092ED002092EC000DC08091EC0016
:1017A0009091ED0081309F4F34F421E03FEF309372
:1017B000ED002093EC008091DD00813009F002C142
:1017C0002091D4003091D5008091CC009091CD0033
:1017D0002817390711F18091D4009091D5002091FC
:1017E000CC003091CD00821B930B97FF03C09195E5
:1017F00081959109853F914044F0109286001092A6
:10180000870010928800109289008091D4009091F6
:10181000D5009093CD008093CC008091D40090911E
:10182000D5001816190634F48091C3009091C400B5
:1018300097FD13C08091D4009091D50097FF10C000
:101840008091C3009091C40031E020E01816190681
:101850000CF030E0832F922F05C081E090E002C0B1
:1018600080E090E02091D4003091D500232B11F03E
:10187000892B71F01092EB001092EA0010927D001B
:1018800010927C008091A9008F7B8093A9009AC060
:10189000E090D400F090D5008091C3009091C400F6
:1018A000E81AF90AB7010F2C000C880B990B8090ED
:1018B000860090908700A0908800B0908900860EE6
:1018C000971EA81EB91E8092860090928700A09253
:1018D0008800B09289000E94AA1126EB33EF4DE7F1
:1018E0005DE30E949E122B013C01C501B4010E94E0
:1018F000AA1121E539E44DE95AE30E949E129B01A9
:10190000AC01C301B2010E948A104B015C018091BD
:101910007C0090917D00B701681B790B072E000CAD
:10192000880B990B0E94AA1120E030E0A9010E94C7
:101930009E129B01AC01C501B4010E948A100E9455
:1019400072117093EB006093EA00F0927D00E092D8
:101950007C008091EA009091EB001816190634F48F
:101960008091D4009091D50097FD0DC08091EA0040
:101970009091EB0097FF0CC08091D4009091D5001E
:10198000181619062CF41093EB000093EA001AC005
:101990008091EA009091EB008F3F910531F02CF09F
:1019A0003092EB002092EA000DC08091EA00909105
:1019B000EB0081309F4F34F481E09FEF9093EB0078
:1019C0008093EA008091DC00813009F002C120910F
:1019D000D2003091D3008091CA009091CB0028179B
:1019E000390711F18091D2009091D3002091CA0063
:1019F0003091CB00821B930B97FF03C0919581958B
:101A00009109853F914044F010928200109283002A
:101A100010928400109285008091D2009091D300A2
:101A20009093CB008093CA008091D2009091D30014
:101A30001816190634F48091C1009091C20097FDE8
:101A400013C08091D2009091D30097FF10C0809175
:101A5000C1009091C20031E020E0181619060CF088
:101A600030E0832F922F05C081E090E002C080E03B
:101A700090E02091D2003091D300232B11F0892BDC
:101A800071F01092E9001092E80010927B00109221
:101A90007A008091A9008F778093A9009AC0E09086
:101AA000D200F090D3008091C1009091C200E81A5A
:101AB000F90AB7010F2C000C880B990B809082005B
:101AC00090908300A0908400B0908500860E971EB1
:101AD000A81EB91E8092820090928300A09284007A
:101AE000B09285000E94AA1126EB33EF4DE75DE32B
:101AF0000E949E122B013C01C501B4010E94AA1153
:101B000021E539E44DE95AE30E949E129B01AC01A4
:101B1000C301B2010E948A104B015C0180917A00DE
:101B200090917B00B701681B790B072E000C880B86
:101B3000990B0E94AA1120E030E0A9010E949E1298
:101B40009B01AC01C501B4010E948A100E94721170
:101B50007093E9006093E800F0927B00E0927A00D5
:101B60008091E8009091E9001816190634F48091EC
:101B7000D2009091D30097FD0DC08091E800909124
:101B8000E90097FF0CC08091D2009091D300181605
:101B900019062CF41093E9000093E8001AC0809114
:101BA000E8009091E9008F3F910531F02CF03092E0
:101BB000E9002092E8000DC08091E8009091E900D2
:101BC00081309F4F34F421E03FEF3093E9002093C0
:101BD000E8008091A900807F8093A90090B326B38C
:101BE0003091A9009074892F90E043E095958795F6
:101BF0004A95E1F72770822B809590958F709927F1
:101C0000832B8093A9008091EE009091EF002091AA
:101C10006600309167002817390709F449C08091A0
:101C2000EE009091EF00892B31F485B3837F85BB63
:101C30008FB58F7729C08091EE009091EF008115CC
:101C4000904819F485B38C601CC0809169008111A3
:101C500007C08091EE009091EF001816190654F01D
:101C600080916900882351F08091EE009091EF00FF
:101C700097FF04C085B3877F846003C085B38B7FE3
:101C8000886085BB8FB580688FBD8091EE00909194
:101C9000EF0090936700809366008091EE00909132
:101CA000EF0097FF03C09195819591099BBD8ABD77
:101CB0008091EC009091ED002091640030916500DE
:101CC0002817390709F449C08091EC009091ED0084
:101CD000892B31F485B38F7C85BB8FB58F7D29C06F
:101CE0008091EC009091ED008115904819F485B336
:101CF00080631CC080916800811107C08091EC0056
:101D00009091ED001816190654F080916800882310
:101D100051F08091EC009091ED0097FF04C085B3E5
:101D20008F7D806103C085B38F7E806285BB8FB558
:101D300080628FBD8091EC009091ED0090936500E2
:101D4000809364008091EC009091ED0097FF03C0B8
:101D500091958195910999BD88BD8091EA009091F6
:101D6000EB0020916200309163002817390709F4D5
:101D700048C08091EA009091EB00892B31F485B343
:101D80008F7385BB85B58F7D29C08091EA009091C6
:101D9000EB008115904819F485B3806C1CC08091CC
:101DA000DB00811107C08091EA009091EB001816CA
:101DB000190654F08091DB00882351F08091EA00ED
:101DC0009091EB0097FF04C085B38F77806403C0C8
:101DD00085B38F7B806885BB85B5806285BD80912A
:101DE000EA009091EB0090936300809362008091F1
:101DF000EA009091EB0097FF03C0919581959109BE
:101E000083BD8091E8009091E900209160003091BD
:101E100061002817390709F448C08091E8009091C3
:101E2000E900892B31F482B3837F82BB83B78F7D36
:101E300029C08091E8009091E9008115904819F43B
:101E400082B38C601CC08091DA00811107C0809140
:101E5000E8009091E9001816190654F08091DA0014
:101E6000882351F08091E8009091E90097FF04C029
:101E700082B3877F846003C082B38B7F886082BB1C
:101E800083B7806283BF8091E8009091E9009093CE
:101E90006100809360008091E8009091E90097FFD5
:101EA00003C09195819591098CBF8091AC008F5FA3
:101EB0008093AC0085B7806885BF889585B78F779C
:101EC00085BF0C947206ACE0B0E0E9E6FFE00C944C
:101ED00085136C015B017A01FC01178216828381F4
:101EE00081FF0EC1CE0101964C01F6010381F5017F
:101EF00003FD159103FF11915F01112309F4FCC04B
:101F0000153249F403FD159103FF11915F0115325C
:101F100011F020E01BC0B601812F90E00E94301428
:101F200037017301E2CF112309F4E6C0612F70E09D
:101F30008BEB91E02C870E94DA132C85892B49F0DA
:101F4000F50103FD159103FF11915F0127FFEBCF11
:101F500009C0133229F01C3609F0D5C02068F0CF33
:101F600020E1EECF022F112309F4C6C0612F70E0EB
:101F700084EB91E02C870E94DA132C85892B41F0A9
:101F80003701F4E06F0E711CB6018FE390E011C0D1
:101F9000133639F0133781F0133519F5022F01602C
:101FA0000BC0370182E0680E711CB601F701808119
:101FB00091810E943014B5CF3701F2E06F0E711C91
:101FC000F701E080F180F70100FD859100FF81912C
:101FD0007F01882309F4A5CFB60190E00E94301458
:101FE000F2CF143611F0193629F5370127FF09C051
:101FF000F4E06F0E711CF701608171818281938121
:102000000AC0F2E06F0E711CF70160817181072E2A
:10201000000C880B990B022F0F7E97FF08C090953C
:102020008095709561957F4F8F4F9F4F00642AE098
:1020300030E033C0103799F040F41835B1F01F3656
:1020400009F05AC028E030E014C0153719F01837ED
:1020500041F052C0022F0F7E2AE030E00AC0022F6A
:102060000061046220E130E004C0022F046020E13E
:1020700032E0370107FF09C0F4E06F0E711CF70171
:10208000608171818281938108C0F2E06F0E711CC2
:10209000F7016081718180E090E0A4010E949814B2
:1020A000182F181906FF05C0B6018DE290E00E94B6
:1020B000301404FF15C0FE01E10FF11D8081803353
:1020C00079F0B60180E390E00E94301402FF08C06E
:1020D0000072802F90E0B601885A9F4F0E94301402
:1020E0001150F401E10FF11D8081B60190E00E94D2
:1020F00030141111F5CF15CFF6018681978105C0F7
:102100008FEF9FEF02C0022F31CF2C96EEE00C94A0
:10211000A1135058BB27AA270E94A1100C944B1260
:102120000E94121238F00E94191220F039F49F3FD9
:1021300019F426F40C940F120EF4E095E7FB0C94BE
:102140000912E92F0E94701258F3BA176207730739
:102150008407950720F079F4A6F50C9492120EF4FA
:10216000E0950B2EBA2FA02D0B01B90190010C01A7
:10217000CA01A0011124FF27591B99F0593F50F4BF
:10218000503E68F11A16F040A22F232F342F442717
:10219000585FF3CF469537952795A795F04053950F
:1021A000C9F77EF41F16BA0B620B730B840BBAF0DF
:1021B0009150A1F0FF0FBB1F661F771F881FC2F74A
:1021C0000EC0BA0F621F731F841F48F4879577955E
:1021D0006795B795F7959E3F08F0B0CF9395880F18
:1021E00008F09927EE0F9795879508950E94E511BD
:1021F00008F481E008950E942212E3950C945C1289
:102200000E9414110C944B120E94191258F00E9453
:10221000121240F029F45F3F29F00C940912511179
:102220000C9493120C940F120E94701268F399236D
:10223000B1F3552391F3951B550BBB27AA276217C2
:102240007307840738F09F5F5F4F220F331F441FCF
:10225000AA1FA9F335D00E2E3AF0E0E832D0915003
:102260005040E695001CCAF72BD0FE2F29D0660FF0
:10227000771F881FBB1F261737074807AB07B0E833
:1022800009F0BB0B802DBF01FF2793585F4F3AF039
:102290009E3F510578F00C9409120C9493125F3F05
:1022A000E4F3983ED4F3869577956795B795F795BF
:1022B0009F5FC9F7880F911D9695879597F90895A7
:1022C000E1E0660F771F881FBB1F62177307840743
:1022D000BA0720F0621B730B840BBA0BEE1F88F752
:1022E000E09508950E9479116894B1110C949312AD
:1022F00008950E94781288F09F5798F0B92F992777
:10230000B751B0F0E1F0660F771F881F991F1AF0E0
:10231000BA95C9F714C0B13091F00E949212B1E0A1
:1023200008950C949212672F782F8827B85F39F0A0
:10233000B93FCCF3869577956795B395D9F73EF479
:1023400090958095709561957F4F8F4F9F4F089521
:10235000E89409C097FB3EF490958095709561953F
:102360007F4F8F4F9F4F9923A9F0F92F96E9BB27F5
:102370009395F695879577956795B795F111F8CF71
:10238000FAF4BB0F11F460FF1BC06F5F7F4F8F4FDC
:102390009F4F16C0882311F096E911C0772321F0D2
:1023A0009EE8872F762F05C0662371F096E8862F6A
:1023B00070E060E02AF09A95660F771F881FDAF7C1
:1023C000880F9695879597F90895990F0008550FEE
:1023D000AA0BE0E8FEEF16161706E807F907C0F0AB
:1023E00012161306E407F50798F0621B730B840BB3
:1023F000950B39F40A2661F0232B242B252B21F48D
:1024000008950A2609F4A140A6958FEF811D811D2C
:10241000089597F99F6780E870E060E008959FEF66
:1024200080EC089500240A9416161706180609066B
:10243000089500240A94121613061406050608953A
:102440000C940F120E947812D8F3E894E0E0BB27B6
:102450009F57F0F02AED3FE049EC06C0EE0FBB0FAE
:10246000661F771F881F28F0B23A62077307840738
:1024700028F0B25A620B730B840BE3959A9572F7AE
:10248000803830F49A95BB0F661F771F881FD2F7EC
:1024900090480C941513092E0394000C11F4882312
:1024A00052F0BB0F40F4BF2B11F460FF04C06F5F0C
:1024B0007F4F8F4F9F4F0895EF93E0FF07C0A2EA31
:1024C0002AED3FE049EC5FEB0E94A1100E944B1205
:1024D0000F90039401FC9058E6E9F1E00C9421136D
:1024E00057FD9058440F551F59F05F3F71F04795C5
:1024F000880F97FB991F61F09F3F79F087950895AA
:10250000121613061406551FF2CF4695F1DF08C0C8
:10251000161617061806991FF1CF869571056105E5
:1025200008940895E894BB2766277727CB0197F98D
:1025300008950E94E51108F48FEF08950E94B112EA
:102540000C944B120E94121238F00E94191220F0C3
:10255000952311F00C9409120C940F1211240C9471
:1025600093120E94701270F3959FC1F3950F50E083
:10257000551F629FF001729FBB27F00DB11D639F35
:10258000AA27F00DB11DAA1F649F6627B00DA11DDB
:10259000661F829F2227B00DA11D621F739FB00D81
:1025A000A11D621F839FA00D611D221F749F3327F1
:1025B000A00D611D231F849F600D211D822F762F8A
:1025C0006A2F11249F5750409AF0F1F088234AF067
:1025D000EE0FFF1FBB1F661F771F881F91505040D3
:1025E000A9F79E3F510580F00C9409120C949312A8
:1025F0005F3FE4F3983ED4F3869577956795B7955A
:10260000F795E7959F5FC1F7FE2B880F911D969573
:10261000879597F908959F930E9422120F9007FCC7
:10262000EE5F0C945C129F3F31F0915020F487953F
:1026300077956795B795880F911D9695879597F92A
:1026400008959F938F937F936F93FF93EF939B01D5
:10265000AC010E949E12EF91FF910E9435132F91C1
:102660003F914F915F910C949E12DF93CF931F93F4
:102670000F93FF92EF92DF927B018C01689406C06A
:10268000DA2EEF010E94B112FE01E894A591259186
:10269000359145915591A6F3EF010E94A110FE01DD
:1026A0009701A801DA9469F7DF90EF90FF900F91FE
:1026B0001F91CF91DF910895052E97FB1EF4009492
:1026C0000E94731357FD07D00E94B81307FC03D074
:1026D0004EF40C94731350954095309521953F4FCF
:1026E0004F4F5F4F089590958095709561957F4FFE
:1026F0008F4F9F4F0895EE0FFF1F0590F491E02D2F
:1027000009942F923F924F925F926F927F928F9295
:102710009F92AF92BF92CF92DF92EF92FF920F9370
:102720001F93CF93DF93CDB7DEB7CA1BDB0B0FB67A
:10273000F894DEBF0FBECDBF09942A883988488837
:102740005F846E847D848C849B84AA84B984C884CD
:10275000DF80EE80FD800C811B81AA81B981CE0FC4
:10276000D11D0FB6F894DEBF0FBECDBFED010895A9
:10277000A1E21A2EAA1BBB1BFD010DC0AA1FBB1F85
:10278000EE1FFF1FA217B307E407F50720F0A21BF7
:10279000B30BE40BF50B661F771F881F991F1A9464
:1027A00069F760957095809590959B01AC01BD018E
:1027B000CF010895FC010590061621F00020D9F7FD
:1027C000C00108953197CF0108950F931F93CF93C0
:1027D000DF93009731F46115710519F480E090E002
:1027E0003AC08B01EC016EE070E081E090E00E9465
:1027F000F614FC01892B91F380E883830115110500
:1028000071F01387028781E883838091660190913C
:102810006701892B21F4F0936701E093660120970B
:10282000C9F0D187C08783818260838380916801EA
:1028300090916901892B71F4F0936901E09368012B
:1028400080916A0190916B01892B21F4F0936B01C7
:10285000E0936A01CF01DF91CF911F910F9108950D
:102860000F931F93CF93DF93FB01238121FD03C0BF
:102870008FEF9FEF28C022FF16C046815781248129
:1028800035814217530744F4A081B1819D012F5F28
:102890003F4F318320838C93268137812F5F3F4FB9
:1028A0003783268310C0EB01092F182F0084F18590
:1028B000E02D0995892BE1F68E819F8101969F83FA
:1028C0008E83812F902FDF91CF911F910F910895CB
:1028D0000F931F93CF93DF93E0916801F09169010B
:1028E000238121FF1BC08C01D0E0C0E0F801819161
:1028F0008F016091680170916901DB011896ED917B
:10290000FC911997882331F00995892B79F3DFEF32
:10291000CFEFECCF8AE00995892B19F08FEF9FEF6D
:1029200002C08D2F9C2FDF91CF911F910F910895A1
:10293000FA01AA27283051F1203181F1E8946F93F0
:102940006E7F6E5F7F4F8F4F9F4FAF4FB1E03ED096
:10295000B4E03CD0670F781F891F9A1FA11D680F34
:10296000791F8A1F911DA11D6A0F711D811D911D67
:10297000A11D20D009F468943F912AE0269F1124DC
:102980003019305D3193DEF6CF010895462F477040
:10299000405D4193B3E00FD0C9F7F6CF462F4F709B
:1029A000405D4A3318F0495D31FD4052419302D0F9
:1029B000A9F7EACFB4E0A69597958795779567959F
:1029C000BA95C9F700976105710508959B01AC019F
:1029D0000A2E06945795479537952795BA95C9F7C6
:1029E000620F731F841F951FA01D08950F931F93DF
:1029F000CF93DF93869F8001879F100D969F100DC8
:102A00001124C8010E941215EC01009729F0A801B9
:102A100060E070E00E943F16CE01DF91CF911F91E0
:102A20000F910895CF93DF938230910510F482E0E7
:102A300090E0E0916E01F0916F0120E030E0C0E0A5
:102A4000D0E0309711F14081518148175907C0F00B
:102A50004817590761F482819381209719F09B836D
:102A60008A832BC090936F0180936E0126C021153D
:102A7000310519F04217530718F49A01BE01DF011E
:102A8000EF010280F381E02DDCCF2115310509F142
:102A9000281B390B2430310590F412968D919C91AE
:102AA00013976115710521F0FB019383828304C0A4
:102AB00090936F0180936E01FD01329644C0FD0139
:102AC000E20FF31F81939193225031092D933C9390
:102AD0003AC020916C0130916D01232B41F420917B
:102AE0006C0030916D0030936D0120936C0120914A
:102AF0006A0030916B002115310541F42DB73EB7C6
:102B000040916E0050916F00241B350BE0916C01D9
:102B1000F0916D01E217F307A0F42E1B3F0B28176D
:102B2000390778F0AC014E5F5F4F2417350748F046
:102B30004E0F5F1F50936D0140936C0181939193F1
:102B400002C0E0E0F0E0CF01DF91CF9108950F9354
:102B50001F93CF93DF93009709F48CC0FC01329749
:102B60001382128200916E0110916F0101151105FF
:102B700081F420813181820F931F20916C0130916B
:102B80006D012817390779F5F0936D01E0936C0119
:102B900071C0D80140E050E0AE17BF0750F4129664
:102BA0002D913C911397AD012115310509F1D90102
:102BB000F3CF9D01DA013383228360817181860F17
:102BC000971F8217930769F4EC0128813981260F3A
:102BD000371F2E5F3F4F318320838A819B819383F0
:102BE0008283452B29F4F0936F01E0936E0142C07C
:102BF0001396FC93EE931297ED01499159919E0122
:102C0000240F351FE217F30771F480819181840F3F
:102C1000951F029611969C938E93828193811396B1
:102C20009C938E931297E0E0F0E0D80112968D917C
:102C30009C911397009719F0F8018C01F6CF8D91B4
:102C40009C9198012E5F3F4F820F931F20916C0142
:102C500030916D012817390769F4309729F41092E3
:102C60006F0110926E0102C01382128210936D01E7
:102C700000936C01DF91CF911F910F910895DC01BA
:102C800001C06D9341505040E0F70895262FE1991F
:102C9000FECF9FBB8EBB2DBB0FB6F894E29AE19A94
:0A2CA0000FBE01960895F894FFCFCF
:102CAA000080008000800080010100007001200087
:0A2CBA000D0A53746172740D0000DE
:00000001FF
