:100000000C94D8000C94F5000C94F5000C94F500B9
:100010000C94F5000C94F5000C94F5000C94F5008C
:100020000C94F5000C948E040C94F5000C94F500DF
:100030000C94F5000C9469050C94F5000C94F500F3
:100040000C94F5000C94F5000C94F5000C94F7005A
:100050000C94F500FF0267040203670406036704BB
:100060000803670467046704670467046704670498
:100070000A0322030F03220314032203190322039A
:100080006704670467046704670467046704670418
:1000900025032A032F03340339033E034303480394
:1000A00067046704670467046704670467046704F8
:1000B0004D03520357035C03610366036B03710333
:1000C0007603CE03D703E003E303EC03F503FE035B
:1000D00007041004190422042B04380444045104B6
:1000E0002B0438044404510467046704670467045C
:1000F00067046704670467046704670467046704A8
:100100006704670467046704670467046704670497
:100110006704670467046704670467046704670487
:100120006704670467046704670467046704670477
:100130006704670467046704670467046704670467
:100140006704670467046704670467046704670457
:100150006704670467046704670467046704670447
:100160006704670467046704670467046704670437
:1001700067046704670467045A0405A84CCDB2D429
:100180004EB93836A9020C50B9918688083CA6AA07
:10019000AA2ABE000000803F4546476566670020EA
:1001A0002B2D2E3031323334353637383968000054
:1001B00011241FBECFE5D8E0DEBFCDBF10E0A0E622
:1001C000B0E0ECE5F4E202C005900D92A837B1076B
:1001D000D9F721E0A8E7B0E001C01D92A335B2072E
:1001E000E1F70E945E060C942C120C9400001F9202
:1001F0000F920FB60F9211248F929F92AF92BF92DF
:10020000CF92DF92EF92FF922F933F934F935F93A2
:100210006F937F938F939F93AF93BF93EF93FF93CE
:1002200081B1887F803881F040F4803609F058C36E
:1002300085EC86BF1092DD0058C3883A09F4D2C11C
:10024000883B09F4CFC14CC38091DD00893209F4A9
:1002500083C108F04BC0883009F418C1F0F4833032
:1002600009F43AC170F4813009F436C108F0EAC0EB
:1002700083B18093DD008091DD0081508093DD00AB
:1002800024C3853009F428C108F4E8C0863009F495
:10029000F1C0873009F420C11BC3843209F41CC1AA
:1002A000C8F4813209F4FEC020F4803209F414C18C
:1002B0000FC3823209F410C1833209F009C383B13C
:1002C0002091A60090E0922B9093C1008093C000F3
:1002D00081E03AC1863209F4FFC008F4F0C08732E9
:1002E00009F4FEC0883209F432C1F2C2833509F440
:1002F00033C1F8F48E3209F42FC160F48B3209F463
:10030000FAC008F429C18C3209F421C18D3209F4F4
:1003100023C1DEC2803509F41AC120F48F3209F4FA
:10032000EAC0D6C2813509F417C1823509F414C177
:10033000CFC2803909F446C108F075C0853509F48B
:1003400027C108F420C1863509F422C1873509F098
:10035000BFC223B180919E0090919F00A091A00008
:10036000B091A1006627782F892F9A2F622B609376
:100370009E0070939F008093A0009093A100C09076
:10038000A200D090A300E090A400F090A5002BED77
:100390003FE049E450E40E94DB0E25E236E041E80C
:1003A0005EE30E94DB0E20E030E040E05FE30E946D
:1003B000DB0EA70196010E94E80C4B015C01A7012E
:1003C0009601C701B6010E94E80CA50194010E94A4
:1003D000E70C2AE931E043E555E40E94DB0E0E9478
:1003E000BB0D7093C3006093C2007093C100609313
:1003F000C0002AE931E043E555E4C501B4010E949B
:10040000DB0E0E94BB0D7093BF006093BE00709323
:10041000BD006093BC0081E08093CB008093CA0054
:100420008093C900CCC0823909F4D4C008F4CEC08E
:10043000833909F4D3C08F3F09F04AC283B1809356
:10044000DC0046C283B12091A60090E0922B9093ED
:10045000DB008093DA001092CB0037C283B1209189
:10046000A60090E0922B9093D9008093D800109230
:10047000CA002BC283B12091A60090E0922B9093EA
:10048000D7008093D6001092C9001FC283B120917B
:10049000A60090E0922B9093D5008093D400109208
:1004A000C80013C283B12091A60090E0922B9093D4
:1004B000C3008093C20081E08093CB0006C283B169
:1004C0002091A60090E0922B9093BF008093BE00F5
:1004D00081E08093C900F9C183B18093A600F5C182
:1004E00083B12091A60090E0922B9093BD00809361
:1004F000BC0081E064C023B18091A2009091A30070
:10050000A091A400B091A5006627782F892F9A2F7B
:10051000622B6093A2007093A3008093A400909339
:10052000A5002AE931E043E555E40E94DB0E0E9474
:10053000BB0D7093C3006093C2007093C1006093C1
:10054000C00081E08093CB008093CA00BEC183B11C
:1005500090E0A0E0B0E00EC023B18091A2009091A5
:10056000A300A091A400B091A500BA2FA92F982FA5
:100570008827822B8093A2009093A300A093A400CD
:10058000B093A500A2C183B190E0A0E0B0E00EC09E
:1005900023B180919E0090919F00A091A000B09106
:1005A000A100BA2FA92F982F8827822B80939E0015
:1005B00090939F00A093A000B093A10086C1809368
:1005C000C80083C183B18093C7007FC183B180938A
:1005D000C6007BC183B18093C50077C183B180938E
:1005E000C40073C18091DD0090E0FC013297E339D3
:1005F000F10508F06CC1E65DFF4F0C94A70F8AB5BA
:100600009BB502C088B599B583B95FC183B5FCCFEE
:100610008CB7FACF8091D2009091D3000EC0809118
:10062000D0009091D10009C08091CE009091CF0070
:1006300004C08091CC009091CD0090939D00809358
:100640009C004DC080919C00DFCF8091C2009091B2
:10065000C30045C08091C2009091C300D5CF809166
:10066000C0009091C1003BC08091C0009091C1003A
:10067000CBCF8091BE009091BF0031C08091BE0071
:100680009091BF00C1CF8091BC009091BD0027C068
:100690008091BC009091BD00B7CF8091B90090913E
:1006A000BA001DC08091B9009091BA00ADCF809181
:1006B000B7009091B80013C08091B7009091B80036
:1006C000A3CF8091B5009091B60009C08091B5008C
:1006D0009091B60099CF8091B3009091B40093B9F6
:1006E000F4C08091B3009091B4008ECFA090B5007B
:1006F000B090B6008091B3009091B400A80EB91EDE
:10070000B7FE03C08FEFA81AB80AB594A7948090DB
:10071000B9009090BA008091B7009091B800880E0F
:10072000991E97FE03C08FEF881A980A95948794B4
:10073000B501680D791D882777FD8095982F0E9457
:10074000EE0D2AE931E043ED55E40E94530D6B01B3
:100750007C016093A2007093A3008093A400909307
:10076000A500B4016A197B09882777FD8095982F29
:100770000E94EE0D2BEB3CE047E255E40E94530D46
:1007800060939E0070939F008093A0009093A100BF
:10079000CF2CDD24EE24FF24C3B897C08091A200A3
:1007A0009091A300A091A400B091A50069C0809190
:1007B000A2009091A300A091A400B091A5006CC0EC
:1007C0008091A20021CF80919E0090919F00A091E6
:1007D000A000B091A10047C080919E0090919F0021
:1007E000A091A000B091A1004BC080919E0090917B
:1007F0009F00A091A000B091A1004EC08091A700E1
:100800009091A800A091A900B091AA00FDCE80917E
:10081000AF009091B000A091B100B091B20023C0A0
:100820008091AF009091B000A091B100B091B20062
:1008300027C08091AF009091B000A091B100B0911D
:10084000B2002AC08091AF009091B000A091B10099
:10085000B091B200D9CE8091AB009091AC00A09144
:10086000AD00B091AE008B2F9927AA27BB27CCCE25
:100870008091AB009091AC00A091AD00B091AE0022
:10088000CD01AA27BB27C0CE8091AB009091AC00D0
:10089000A091AD00B091AE00892F9A2FAB2FBB274E
:1008A000B3CE8091AB009091AC00A091AD00B0911F
:1008B000AE00AACE80B326B3807490E0959587955C
:1008C000959587952770282B23B985EC02C013B81E
:1008D00085E886BF8091DD008F5F8093DD0005C0D5
:1008E00086B78B7E86BF85EC86BFFF91EF91BF9167
:1008F000AF919F918F917F916F915F914F913F91B8
:100900002F91FF90EF90DF90CF90BF90AF909F908E
:100910008F900F900FBE0F901F9018951F920F92FF
:100920000FB60F9211242F933F934F935F938F93A2
:100930009F9399B390FD02C080E001C083E091FFD6
:1009400002C091E0892720919B00281B20FF1FC037
:1009500080939B008091C700422F4270882349F00A
:100960008091D2009091D300242F30E021503109A2
:1009700008C08091D2009091D30021E030E0241B88
:100980003109820F931F9093D3008093D20099B3C3
:1009900092959F7090FD02C080E001C083E091FFBE
:1009A00002C091E0892720919A00281B20FF1FC0D8
:1009B00080939A008091C6002270882359F080911C
:1009C000D0009091D10041E050E0421B5109840FCA
:1009D000951F09C08091D0009091D10030E0215046
:1009E0003109820F931F9093D1008093D00099B367
:1009F0009695969590FD02C080E001C083E091FF3E
:100A000002C091E0892720919900281B20FF1FC078
:100A1000809399008091C5002270882359F08091BD
:100A2000CE009091CF0041E050E0421B5109840F6D
:100A3000951F09C08091CE009091CF0030E02150E9
:100A40003109820F931F9093CF008093CE0099B30A
:100A5000929596959695937090FD02C080E001C0A6
:100A600083E0927011F091E0892720919800281B73
:100A700020FF1FC0809398008091C400422F4270D5
:100A8000882349F08091CC009091CD00242F30E054
:100A90002150310908C08091CC009091CD0021E017
:100AA00030E0241B3109820F931F9093CD00809377
:100AB000CC008091BB008F5F8093BB009F918F9192
:100AC0005F914F913F912F910F900FBE0F901F900C
:100AD00018951F920F920FB60F9211248F939F9328
:100AE000EF93FF935F9B16C0E091E000F091E1006F
:100AF0008CB1808381E0E534F80730F43196F093CF
:100B0000E100E093E00006C082EE90E09093E10007
:100B10008093E000FF91EF919F918F910F900FBE16
:100B20000F901F9018959C018AB188618AB9579AD5
:100B300080B5866080BD40E050E084E0220F331F26
:100B4000441F551F8A95D1F760E072E18AE790E073
:100B50000E94880FDA01C9010197A109B109892F03
:100B60009A2FAB2FBB27A7FDBA9580BD215029B97D
:100B700082EE90E09093DF008093DE009093E1009E
:100B80008093E00008955D9BFECFFC0180818CB9CD
:100B90000895CF93DF931F92CDB7DEB78983CE013F
:100BA00001960E94C30580E090E00F90DF91CF9105
:100BB0000895CF93DF93EC01CE012196FC012081B3
:100BC000222319F00E94C305F7CFDF91CF9108953A
:100BD0005F9BFECF8CB190E008950C94E8056DEE1C
:100BE00075E089EC95E00C94DA0FCF93DF93FC016C
:100BF000E253FF4FA081B181EC01C453DF4F288144
:100C00003981A217B307A1F05D9B12C02C912CB9BA
:100C100020813181AC0145535F4F2417350718F40B
:100C20002F5F3F4F03C09C0128593F4F31832083E2
:100C3000E091DE00F091DF002091E0003091E100D2
:100C40002E173F07C1F1DC01AC59BF4FCD91DC91AC
:100C50001197208128836D917C9111979C012B52D3
:100C60003F4FE9013881EB012881321307C09C0115
:100C70002C523F4FE90148814F5F48839C012D5919
:100C80003F4F6217730728F4EB012196CD93DC9355
:100C900002C08D939C93D1E0E534FD0730F431968A
:100CA000F093DF00E093DE0006C082EE90E09093C8
:100CB000DF008093DE00DF91CF91089588E087BB4D
:100CC0008CEF84BB8CEB81BB1092DC0080E895E25A
:100CD0000E9493050E94EF0580E582B986B78B7E5E
:100CE00086BF85EC86BF81EF8FBD89E08EBD1BBCC2
:100CF0001ABC19BC18BC89E785BD13BC83BF1CBED8
:100D00008EE690E00E94571085B78F7885BF84E00B
:100D100089BF78942224239433243A940FEF10E06F
:100D20008091DD008F3F41F48091DC00853A21F411
:100D3000F894E0E0F8E109958091BB008C3908F463
:100D4000F1C41092BB00C090D200D090D30080912B
:100D5000960090919700C81AD90AE090D000F090C0
:100D6000D1008091940090919500E81AF90AA09022
:100D7000CE00B090CF008091920090919300A81A7D
:100D8000B90AC091CC00D091CD0080919000909193
:100D90009100C81BD90BB601882777FD8095982F45
:100DA0000E94EE0D2AE037ED43E25CE30E94530D12
:100DB0000E94BB0D7093BA006093B900B7018827F9
:100DC00077FD8095982F0E94EE0D2AE037ED43E2E3
:100DD0005CE30E94530D0E94BB0D7093B8006093BA
:100DE000B700B501882777FD8095982F0E94EE0DFA
:100DF0002AE037ED43E25CE30E94530D0E94BB0DF5
:100E00007093B6006093B500BE01882777FD80958A
:100E1000982F0E94EE0D2AE037ED43E25CE30E943A
:100E2000530D0E94BB0D7093B4006093B300B601E4
:100E30006E0D7F1D882777FD8095982F0E94EE0DFF
:100E40002AE931E043ED55E40E94530D6B017C012A
:100E5000B5016C0F7D1F882777FD8095982F0E9424
:100E6000EE0D2AE931E043ED55E40E94530D4B01AC
:100E70005C014090A7005090A8006090A90070907D
:100E8000AA00A70196010E94E70C25E236E041E89E
:100E90005EE30E94530D9B01AC01C301B2010E94AD
:100EA000E80C6093A7007093A8008093A90090932A
:100EB000AA006091A7007091A8008091A90090916C
:100EC000AA002BED3FE049EC50E40E94D70E181623
:100ED0007CF46091A7007091A8008091A900909186
:100EE000AA002BED3FE049EC50E40E94E70C1EC045
:100EF0006091A7007091A8008091A9009091AA002C
:100F00002BED3FE049EC50E40E944C0D87FF16C0EA
:100F10006091A7007091A8008091A9009091AA000B
:100F20002BED3FE049EC50E40E94E80C6093A700F1
:100F30007093A8008093A9009093AA00A501940142
:100F4000C701B6010E94E80C20E030E040E05FE31A
:100F50000E94DB0E6B017C018090AF009090B0008E
:100F6000A090B100B090B2006091A7007091A8006D
:100F70008091A9009091AA000E94500DA7019601AE
:100F80000E94DB0E9B01AC01C501B4010E94E80C7C
:100F90006093AF007093B0008093B1009093B20063
:100FA0008090AB009090AC00A090AD00B090AE00EF
:100FB0006091A7007091A8008091A9009091AA006B
:100FC0000E943E0FA70196010E94DB0E9B01AC011F
:100FD000C501B4010E94E80C6093AB007093AC00B3
:100FE0008093AD009093AE008091D2009091D30099
:100FF00090939700809396008091D0009091D100BB
:1010000090939500809394008091CE009091CF00B2
:1010100090939300809392008091CC009091CD00AA
:1010200090939100809390008091CB00813009F0E3
:1010300099C08091C2009091C300892B29F410922D
:10104000DB001092DA008EC0C091C200D091C300C4
:101050008091B9009091BA00C81BD90B2E0166246B
:1010600057FC6094762CC0908C00D0908D00E0905E
:101070008E00F0908F00C40CD51CE61CF71CC092AB
:101080008C00D0928D00E0928E00F0928F006091E3
:10109000DA007091DB00882777FD8095982F0E94F9
:1010A000EE0D4B015C01C301B2010E94EE0D2CEB71
:1010B00034E743E15CE30E94DB0E2B013C01C701F6
:1010C000B6010E94EE0D2BE631ED46E05AE30E9498
:1010D000DB0E9B01AC01C301B2010E94E80C6B0165
:1010E0007C0180918A0090918B00BE01681B790B76
:1010F000882777FD8095982F0E94EE0D2CE234ED25
:101100004AE15DE30E94DB0E9B01AC01C701B60121
:101110000E94E80C9B01AC01C501B4010E94E80CDF
:101120000E94BB0D7093DB006093DA00D0938B00BC
:10113000C0938A008091DA009091DB008F3F910587
:1011400031F02CF01093DB000093DA000BC080919B
:10115000DA009091DB0081309F4F24F43092DB0065
:101160002092DA008091CA00813009F099C0809104
:10117000C0009091C100892B29F41092D9001092DF
:10118000D8008EC0C091C000D091C1008091B7003E
:101190009091B800C81BD90B2E01662457FC6094AF
:1011A000762CC0908600D0908700E0908800F09068
:1011B0008900C40CD51CE61CF71CC0928600D09296
:1011C0008700E0928800F09289006091D8007091C9
:1011D000D900882777FD8095982F0E94EE0D4B014E
:1011E0005C01C301B2010E94EE0D2CEB34E743E138
:1011F0005CE30E94DB0E2B013C01C701B6010E949B
:10120000EE0D2BE631ED46E05AE30E94DB0E9B012A
:10121000AC01C301B2010E94E80C6B017C0180911A
:10122000840090918500BE01681B790B882777FDAB
:101230008095982F0E94EE0D2CE234ED4AE15DE39B
:101240000E94DB0E9B01AC01C701B6010E94E80CB5
:101250009B01AC01C501B4010E94E80C0E94BB0DCA
:101260007093D9006093D800D0938500C093840018
:101270008091D8009091D9008F3F910531F02CF0EA
:101280001093D9000093D8000BC08091D8009091A2
:10129000D90081309F4F24F43092D9002092D80099
:1012A0008091C900813009F099C08091BE00909171
:1012B000BF00892B29F41092D7001092D6008EC05F
:1012C000C091BE00D091BF008091B5009091B60052
:1012D000C81BD90B2E01662457FC6094762CC09055
:1012E0008000D0908100E0908200F0908300C40CD8
:1012F000D51CE61CF71CC0928000D0928100E092C1
:101300008200F09283006091D6007091D700882708
:1013100077FD8095982F0E94EE0D4B015C01C30173
:10132000B2010E94EE0D2CEB34E743E15CE30E9436
:10133000DB0E2B013C01C701B6010E94EE0D2BE62E
:1013400031ED46E05AE30E94DB0E9B01AC01C30184
:10135000B2010E94E80C6B017C0180917E009091AB
:101360007F00BE01681B790B882777FD8095982F39
:101370000E94EE0D2CE234ED4AE15DE30E94DB0EAB
:101380009B01AC01C701B6010E94E80C9B01AC01B6
:10139000C501B4010E94E80C0E94BB0D7093D700F8
:1013A0006093D600D0937F00C0937E008091D600DA
:1013B0009091D7008F3F910531F02CF01093D7001A
:1013C0000093D6000BC08091D6009091D700813059
:1013D0009F4F24F43092D7002092D6008091C8000D
:1013E000813009F099C08091BC009091BD00892B9B
:1013F00029F41092D5001092D4008EC0C091BC0088
:10140000D091BD008091B3009091B400C81BD90B5E
:101410002E01662457FC6094762CC0907A00D09000
:101420007B00E0907C00F0907D00C40CD51CE61C95
:10143000F71CC0927A00D0927B00E0927C00F09280
:101440007D006091D4007091D500882777FD80954C
:10145000982F0E94EE0D4B015C01C301B2010E9466
:10146000EE0D2CEB34E743E15CE30E94DB0E2B0135
:101470003C01C701B6010E94EE0D2BE631ED46E0BE
:101480005AE30E94DB0E9B01AC01C301B2010E9432
:10149000E80C6B017C018091780090917900BE018D
:1014A000681B790B882777FD8095982F0E94EE0D99
:1014B0002CE234ED4AE15DE30E94DB0E9B01AC01BE
:1014C000C701B6010E94E80C9B01AC01C501B40143
:1014D0000E94E80C0E94BB0D7093D5006093D4006D
:1014E000D0937900C09378008091D4009091D5007A
:1014F0008F3F910531F02CF01093D5000093D4006C
:101500000BC08091D4009091D50081309F4F24F47E
:101510003092D5002092D4008091DA009091DB00C7
:10152000209166003091670028173907B9F1809142
:10153000DA009091DB00892B19F485B38C6017C019
:101540008091C700811107C08091DA009091DB0083
:101550001816190654F08091C700882351F0809125
:10156000DA009091DB0097FF04C085B3837F85BBD1
:1015700002C0AA98AB9A8091DA009091DB00909318
:101580006700809366008091DA009091DB0097FFFE
:1015900003C09195819591099BBD8ABD8091D8002A
:1015A0009091D90020916400309165002817390787
:1015B000B9F18091D8009091D900892B19F485B3A5
:1015C000806317C08091C600811107C08091D80048
:1015D0009091D9001816190654F08091C6008823FE
:1015E00051F08091D8009091D90097FF04C085B345
:1015F0008F7C85BB02C0AC98AD9A8091D800909149
:10160000D90090936500809364008091D8009091F8
:10161000D90097FF03C091958195910999BD88BD27
:101620008091D6009091D7002091620030916300A4
:1016300028173907B1F18091D6009091D700892BF6
:1016400019F485B3806C17C08091C500811107C063
:101650008091D6009091D7001816190654F0809109
:10166000C500882351F08091D6009091D70097FF54
:1016700004C085B38F7385BB02C0AE98AF9A8091CA
:10168000D6009091D7009093630080936200809180
:10169000D6009091D70097FF03C09195819591094D
:1016A00083BD8091D4009091D5002091600030914D
:1016B000610028173907B1F18091D4009091D500CD
:1016C000892B19F482B38C6017C08091C4008111FA
:1016D00007C08091D4009091D5001816190654F0D7
:1016E0008091C400882351F08091D4009091D5005E
:1016F00097FF04C082B3837F82BB02C09298939A03
:101700008091D4009091D500909361008093600007
:101710008091D4009091D50097FF03C09195819559
:1017200091098CBF85B7806885BF889585B78F770D
:1017300085BFF6CA6F927F929F92AF92BF92CF926F
:10174000DF92EF92FF920F931F93CF93DF93CDB76A
:10175000DEB72C970FB6F894DEBF0FBECDBF8C015D
:101760007B013A01FC0117821682838181FF19C136
:10177000CE0101965C01F801D380F701D3FC2591DD
:10178000D3FE21917F01222309F407C1253249F4B8
:10179000D3FC2591D3FE21917F01253211F0912CAC
:1017A0001BC0B801822F90E00E9425106301360112
:1017B000E2CF222309F4F1C0622F70E08FE991E0BB
:1017C0002C870E94CF0F2C85892B49F0F701D3FC81
:1017D0002591D3FE21917F0197FEEBCF0CC02332E0
:1017E00021F4F92DF0619F2EF1CF2C3639F4292DFB
:1017F0002068922EEBCF222309F4CFC0622F70E035
:1018000088E991E02C870E94CF0F2C85892B41F02D
:101810006301F4E0CF0ED11CB8018FE390E012C059
:10182000233641F0233789F0233521F5F92DF16076
:101830009F2E0BC0630122E0C20ED11CB801F30140
:10184000808191810E942510B2CF630122E0C20EF7
:10185000D11CF30160807180F30190FC859190FEB2
:1018600081913F01882309F4A2CFB80190E00E9442
:101870002510F2CF243611F0293639F5630197FE91
:1018800009C0F4E0CF0ED11CF30160817181828127
:1018900093810AC0F2E0CF0ED11CF3016081718107
:1018A000882777FD8095982FF92DFF7E9F2E97FF33
:1018B00009C090958095709561957F4F8F4F9F4F90
:1018C000F0649F2E2AE030E038C02037A1F040F4C9
:1018D0002835D1F02F3609F060C028E030E019C07B
:1018E000253719F0283751F058C0292D2F7E922E18
:1018F0002AE030E00EC0892D8061982E992D9462E7
:10190000992E20E130E005C0E92DE4609E2E20E113
:1019100032E0630197FE09C0F4E0CF0ED11CF30161
:10192000608171818281938108C0F2E0CF0ED11C69
:10193000F3016081718180E090E0A5010E94841034
:10194000782E7A1896FE05C0B8018DE290E00E94CC
:10195000251094FE16C0FE01E70DF11D8081803335
:1019600081F0B80180E390E00E94251092FE09C04A
:10197000292D2072822F90E0B801885A9F4F0E9433
:1019800025107A94F501E70DF11D8081B80190E0F2
:101990000E9425107110F5CF0ACFF801868197813A
:1019A00002C08FEF9FEF2C960FB6F894DEBF0FBEEC
:1019B000CDBFDF91CF911F910F91FF90EF90DF90FE
:1019C000CF90BF90AF909F907F906F9008955058A8
:1019D000BB27AA270ED0A0C169D130F06ED120F06C
:1019E00031F49F3F11F41EF45EC10EF4E095E7FB65
:1019F00054C1E92FB3D180F3BA1762077307840784
:101A0000950718F071F49EF5CBC10EF4E0950B2EFE
:101A1000BA2FA02D0B01B90190010C01CA01A00140
:101A20001124FF27591B99F0593F50F4503E68F19B
:101A30001A16F040A22F232F342F4427585FF3CFDC
:101A4000469537952795A795F0405395C9F77EF4AD
:101A50001F16BA0B620B730B840BBAF09150A1F0F6
:101A6000FF0FBB1F661F771F881FC2F70EC0BA0F7C
:101A7000621F731F841F48F4879577956795B79504
:101A8000F7959E3F08F0B3CF9395880F08F09927FC
:101A9000EE0F979587950895DCD008F481E00895BE
:101AA00014D1E3954AC10CD037C107D140F0FED024
:101AB00030F021F45F3F19F0F0C0511172C1F3C052
:101AC0004DD198F39923C9F35523B1F3951B550BC9
:101AD000BB27AA2762177307840738F09F5F5F4F01
:101AE000220F331F441FAA1FA9F333D00E2E3AF042
:101AF000E0E830D091505040E695001CCAF729D05C
:101B0000FE2F27D0660F771F881FBB1F26173707AA
:101B10004807AB07B0E809F0BB0B802DBF01FF27DA
:101B200093585F4F2AF09E3F510568F0B6C039C107
:101B30005F3FECF3983EDCF3869577956795B79514
:101B4000F7959F5FC9F7880F911D9695879597F92F
:101B50000895E1E0660F771F881FBB1F62177307A8
:101B60008407BA0720F0621B730B840BBA0BEE1FBD
:101B700088F7E095089504D06894B11112C10895D2
:101B8000F5D088F09F5790F0B92F9927B751A0F062
:101B9000D1F0660F771F881F991F1AF0BA95C9F701
:101BA00012C0B13081F0FCD0B1E00895F9C0672FC8
:101BB000782F8827B85F39F0B93FCCF386957795B1
:101BC0006795B395D9F73EF490958095709561959A
:101BD0007F4F8F4F9F4F0895E89409C097FB3EF4C5
:101BE00090958095709561957F4F8F4F9F4F99236A
:101BF000A9F0F92F96E9BB279395F69587957795E8
:101C00006795B795F111F8CFFAF4BB0F11F460FFA7
:101C10001BC06F5F7F4F8F4F9F4F16C0882311F0FF
:101C200096E911C0772321F09EE8872F762F05C013
:101C3000662371F096E8862F70E060E02AF09A95AE
:101C4000660F771F881FDAF7880F9695879597F9A3
:101C50000895990F0008550FAA0BE0E8FEEF16163D
:101C60001706E807F907C0F012161306E407F50790
:101C700098F0621B730B840B950B39F40A2661F004
:101C8000232B242B252B21F408950A2609F4A140A7
:101C9000A6958FEF811D811D089597F99F6780E8B4
:101CA00070E060E008959FEF80EC089500240A94AE
:101CB0001616170618060906089500240A94121627
:101CC0001306140605060895EECF50D0E8F3E89405
:101CD000E0E0BB279F57F0F02AED3FE049EC06C05B
:101CE000EE0FBB0F661F771F881F28F0B23A6207FE
:101CF0007307840728F0B25A620B730B840BE395C9
:101D00009A9572F7803830F49A95BB0F661F771F4B
:101D1000881FD2F79048BAC0092E0394000C11F422
:101D2000882352F0BB0F40F4BF2B11F460FF04C0B6
:101D30006F5F7F4F8F4F9F4F0895EF93E0FF06C077
:101D4000A2EA2AED3FE049EC5FEB53DEE5DF0F90BE
:101D5000039401FC9058EAE7F1E0A4C057FD9058C5
:101D6000440F551F59F05F3F71F04795880F97FB5F
:101D7000991F61F09F3F79F0879508951216130619
:101D80001406551FF2CF4695F1DF08C01616170648
:101D90001806991FF1CF869571056105089408957D
:101DA000E894BB2766277727CB0197F9089551DF81
:101DB00008F48FEF08950BD0AFCF78DF28F07DDFE8
:101DC00018F0952309F069CF6ECF1124EACFC6DF52
:101DD000A0F3959FD1F3950F50E0551F629FF0013E
:101DE000729FBB27F00DB11D639FAA27F00DB11D97
:101DF000AA1F649F6627B00DA11D661F829F222720
:101E0000B00DA11D621F739FB00DA11D621F839FA6
:101E1000A00D611D221F749F3327A00D611D231F7C
:101E2000849F600D211D822F762F6A2F11249F57CA
:101E300050408AF0E1F088234AF0EE0FFF1FBB1FED
:101E4000661F771F881F91505040A9F79E3F51058C
:101E500070F023CFA6CF5F3FECF3983EDCF386957E
:101E600077956795B795F795E7959F5FC1F7FE2B37
:101E7000880F911D9695879597F908959F9325DF73
:101E80000F9007FCEE5F59CF9F3F31F0915020F447
:101E9000879577956795B795880F911D9695879546
:101EA00097F908959F938F937F936F93FF93EF9389
:101EB0009B01AC0180DFEF91FF9105D02F913F9105
:101EC0004F915F9178CFDF93CF931F930F93FF9242
:101ED000EF92DF927B018C01689405C0DA2EEF014E
:101EE00076DFFE01E894A5912591359145915591B4
:101EF000AEF3EF017EDDFE019701A801DA9479F7D8
:101F0000DF90EF90FF900F911F91CF91DF91089597
:101F1000052E97FB1EF400940E949F0F57FD07D0DB
:101F20000E94AD0F07FC03D04EF40C949F0F509508
:101F30004095309521953F4F4F4F5F4F08959095B5
:101F40008095709561957F4F8F4F9F4F0895EE0F4D
:101F5000FF1F0590F491E02D0994A1E21A2EAA1B0F
:101F6000BB1BFD010DC0AA1FBB1FEE1FFF1FA21749
:101F7000B307E407F50720F0A21BB30BE40BF50B46
:101F8000661F771F881F991F1A9469F760957095CF
:101F9000809590959B01AC01BD01CF010895FC0196
:101FA0000590061621F00020D9F7C0010895319759
:101FB000CF0108950F931F93CF93DF93EC018B0113
:101FC000009731F46115710519F480E090E038C094
:101FD0006EE070E081E090E00E94E210FC0100976A
:101FE000A1F380E883830115110571F0138702873F
:101FF00081E883838091490190914A01892B21F4E2
:10200000F0934A01E09349012097C9F0D187C08736
:1020100083818260838380914B0190914C01892B55
:1020200071F4F0934C01E0934B0180914D0190913C
:102030004E01892B21F4F0934E01E0934D01CF0125
:10204000DF91CF911F910F9108950F931F93CF931D
:10205000DF93182F092FEB018B8181FD03C08FEFD8
:102060009FEF20C082FF10C04E815F812C813D8197
:10207000421753077CF4E881F9819F012F5F3F4F9E
:1020800039832883108306C0E885F985812F099557
:10209000892B29F72E813F812F5F3F4F3F832E836E
:1020A000812F902FDF91CF911F910F9108950F9362
:1020B0001F93CF93DF93E0914B01F0914C0123816B
:1020C00021FF1BC0EC0100E010E0899160914B0101
:1020D00070914C01DB011896ED91FC9119978823C2
:1020E00031F00995892B89F30FEF1FEFEECF8AE0CE
:1020F0000995892B11F4C80102C08FEF9FEFDF9182
:10210000CF911F910F910895FA01AA27283051F11C
:10211000203181F1E8946F936E7F6E5F7F4F8F4F18
:102120009F4FAF4FB1E03ED0B4E03CD0670F781F77
:10213000891F9A1FA11D680F791F8A1F911DA11D5C
:102140006A0F711D811D911DA11D20D009F4689495
:102150003F912AE0269F11243019305D3193DEF63D
:10216000CF010895462F4770405D4193B3E00FD0F3
:10217000C9F7F6CF462F4F70405D4A3318F0495DDE
:1021800031FD4052419302D0A9F7EACFB4E0A695C1
:102190009795879577956795BA95C9F700976105E3
:1021A000710508959B01AC010A2E06945795479539
:1021B00037952795BA95C9F7620F731F841F951F2E
:1021C000A01D08950F931F93CF93DF93869F8001E7
:1021D000879F100D969F100D1124C8010E94FE10BC
:1021E000EC01009729F0A80160E070E00E94251240
:1021F000CE01DF91CF911F910F910895CF93DF937F
:102200008230910510F482E090E0E0915101F0916C
:10221000520120E030E0A0E0B0E0309739F1408199
:10222000518148175907B8F04817590771F482814E
:102230009381109729F013969C938E9312972CC03C
:10224000909352018093510127C02115310531F03F
:102250004217530718F0A901DB0101C0EF019A01F1
:10226000BD01DF010280F381E02DD7CF21153105BB
:10227000F9F0281B390B2430310580F48A819B81C9
:102280006115710521F0FB019383828304C0909353
:10229000520180935101FE01329644C0FE01E20FCB
:1022A000F31F8193919322503109398328833AC0D7
:1022B00020914F0130915001232B41F420916A006D
:1022C00030916B003093500120934F0120916800B2
:1022D000309169002115310541F42DB73EB7409189
:1022E0006C0050916D00241B350BE0914F01F09173
:1022F0005001E217F307A0F42E1B3F0B28173907F4
:1023000078F0AC014E5F5F4F2417350748F04E0F51
:102310005F1F5093500140934F018193919302C0EE
:10232000E0E0F0E0CF01DF91CF910895CF93DF930C
:10233000009709F487C0FC01329713821282C09182
:102340005101D0915201209781F420813181280FD1
:10235000391F80914F01909150018217930779F5B1
:10236000F0935001E0934F016DC0DE0120E030E0BA
:10237000AE17BF0750F412964D915C9113979D01D3
:102380004115510509F1DA01F3CFB383A2834081EE
:102390005181840F951F8A179B0771F48D919C9131
:1023A0001197840F951F02969183808312968D91C9
:1023B0009C911397938382832115310529F4F0931F
:1023C0005201E09351013EC0D9011396FC93EE9364
:1023D00012974D915D91A40FB51FEA17FB0779F491
:1023E00080819181840F951F0296D90111969C934B
:1023F0008E938281938113969C938E931297E0E043
:10240000F0E08A819B81009719F0FE01EC01F9CF81
:10241000CE01029628813981820F931F20914F01AE
:10242000309150012817390769F4309729F4109238
:1024300052011092510102C013821282D0935001B6
:10244000C0934F01DF91CF910895DC0101C06D93DE
:0C24500041505040E0F70895F894FFCF91
:10245C0000800080008000800000530120000D0AE5
:08246C0053746172740D00004D
:00000001FF
