:100000000C94E6000C9403010C9403010C9403017E
:100010000C9403010C9403010C9403010C94030150
:100020000C9403010C946B040C9403010C940301D5
:100030000C9403010C9446050C9403010C940301E9
:100040000C9403010C9403010C9403010C9405011E
:100050000C94030105030F0308030F030B030F03A5
:100060000D030F034C044C044C044C044C044C048E
:1000700011032903160329031B0329032003290362
:100080004C044C044C044C044C044C044C044C04F0
:100090002C03310336033B03400345034A034F035C
:1000A0004C044C044C044C044C044C044C044C04D0
:1000B000540359035E03630368036D0372037803FB
:1000C0007D038E039703A003A303B803C103340485
:1000D000CA03D303DC03E503EE03F70300040904BA
:1000E00012041B04270434044C044C044C044C0438
:1000F0004C044C044C044C044C044C044C044C0480
:100100004C044C044C044C044C044C044C044C046F
:100110004C044C044C044C044C044C044C044C045F
:100120004C044C044C044C044C044C044C044C044F
:100130004C044C044C044C044C044C044C044C043F
:100140004C044C044C044C044C044C044C044C042F
:100150004C044C044C044C044C044C044C044C041F
:100160004C044C044C044C044C044C044C044C040F
:100170004C044C044C044C044C044C044C044C04FF
:100180004C044C044C044C044C044C044C044C04EF
:100190003D044204470405A84CCDB2D44EB93836CC
:1001A000A9020C50B9918688083CA6AAAA2ABE00CA
:1001B0000000803F45464765666700202B2D2E30A6
:1001C00031323334353637383968000011241FBED8
:1001D000CFE5D8E0DEBFCDBF10E0A0E6B0E0EEE7AF
:1001E000FAE202C005900D92AA37B107D9F721E0D3
:1001F000AAE7B0E001C01D92A037B207E1F70E9464
:100200003B060C943D150C9400001F920F920FB604
:100210000F9211242F933F934F935F936F937F938C
:100220008F939F93AF93BF93EF93FF9381B1887F99
:10023000803881F040F4803609F037C385EC86BF02
:100240001092F10037C3883A09F4D2C1883B09F40F
:10025000CFC12BC38091F1008A3209F464C108F048
:1002600047C0803209F402C138F5843009F4C1C0B6
:1002700060F4813009F4FAC008F4A6C0823009F4B1
:10028000ACC0833009F4F2C008C3863009F4BDC0A5
:1002900008F4ECC0873009F4E9C0883009F0FDC2E9
:1002A00083B12091A80090E0922B9093E900809375
:1002B000E8001092DC00E9C2853209F4CAC060F49B
:1002C000823209F4D3C008F4ACC0833209F4B6C05A
:1002D000843209F4CBC0E1C2873209F4CBC008F400
:1002E000C5C0883209F41AC1893209F41CC1D5C2CB
:1002F000843509F42FC1E8F58F3209F4F4C060F4B5
:100300008C3209F40BC108F4C2C08D3209F40BC160
:100310008E3209F408C1C1C2813509F404C120F448
:10032000803509F4FBC0B9C2823509F4FCC08335BD
:1003300009F0B3C223B18091A4009091A500A091CF
:10034000A600B091A700BA2FA92F982F8827822B3B
:100350008093A4009093A500A093A600B093A7005B
:100360008093F2009093F300A093F400B093F50013
:100370008CC2813909F429C178F4863509F4EFC0BB
:1003800008F4EDC0873509F401C1803909F085C250
:1003900083B18093690079C2843909F41EC150F495
:1003A000823909F416C1833909F077C283B1809389
:1003B000DA006BC2853909F414C18F3F09F06DC2B0
:1003C00083B18093F00069C283B18093F100809182
:1003D000F10081508093F10058C283B12091A800B0
:1003E00090E0922B9093EF008093EE001092DF004C
:1003F0004CC283B12091A80090E0922B9093ED0025
:100400008093EC001092DE0040C283B12091A800DE
:1004100090E0922B9093EB008093EA001092DD0025
:1004200034C283B12091A80090E0922B9093D90020
:100430008093D80081E08093DF0027C283B12091B0
:10044000A80090E0922B9093D7008093D60081E093
:1004500047C083B12091A80090E0922B9093D500E3
:100460008093D40081E08093DD000FC283B180933C
:10047000A8000BC283B12091A80090E0922B90932A
:10048000D3008093D20081E08093DC00FEC123B1D1
:100490008091A4009091A500A091A600B091A70022
:1004A0006627782F892F9A2F622B6093A400709370
:1004B000A5008093A6009093A7002AE935E34FEAB0
:1004C00055E40E94EC110E94CC107093D900609307
:1004D000D8007093D7006093D60081E08093DF004E
:1004E0008093DE00D2C123B18091A4009091A50039
:1004F000A091A600B091A7006627782F892F9A2F88
:10050000622B6093A4007093A5008093A600909343
:10051000A70026E636E749EB55E4D3CF83B190E058
:10052000A0E0B0E00EC023B18091A4009091A5009E
:10053000A091A600B091A700BA2FA92F982F8827C5
:10054000822B8093A4009093A500A093A600B09363
:10055000A7009BC183B190E0A0E0B0E00EC023B142
:100560008091A0009091A100A091A200B091A30061
:10057000BA2FA92F982F8827822B8093A0009093C1
:10058000A100A093A200B093A3007FC123B18091EA
:10059000A0009091A100A091A200B091A300BA2F59
:1005A000A92F982F8827822B8093A0009093A100D9
:1005B000A093A200B093A3008093F6009093F7005D
:1005C000A093F800B093F9000FC083B18093680046
:1005D0005CC183B18093DB0058C183B18093AB00D1
:1005E00003C083B18093AA0081E08093FA004DC1DB
:1005F0008091F10090E0FC013297E13AF10508F0BA
:100600004BC1E65DFF4F0C94B8128AB59BB53CC157
:1006100088B599B539C183B537C18CB735C113B821
:1006200034C18091E6009091E7000EC08091E40013
:100630009091E50009C08091E2009091E30004C030
:100640008091E0009091E10090939F0080939E0044
:100650004DC080919E0018C18091D8009091D90022
:1006600045C08091D8009091D9000EC18091D600EC
:100670009091D7003BC08091D6009091D70004C1E3
:100680008091D4009091D50031C08091D400909198
:10069000D500FAC08091D2009091D30027C08091FC
:1006A000D2009091D300F0C08091C7009091C80013
:1006B0001DC08091C7009091C800E6C08091C50020
:1006C0009091C60013C08091C5009091C600DCC017
:1006D0008091C3009091C40009C08091C3009091A3
:1006E000C400D2C08091C1009091C20093B9CDC026
:1006F0008091C1009091C200C7C08091B1009091DB
:10070000B200A091B300B091B4008093A400909384
:10071000A500A093A600B093A70025C08091A400D7
:100720009091A500A091A600B091A7008CC08091E7
:10073000A4009091A500A091A600B091A7008FC041
:100740008091A400A1C08091AD009091AE00A091D5
:10075000AF00B091B0008093A0009093A100A0934F
:10076000A200B093A3008B2F9927AA27BB278CC088
:100770008091A0009091A100A091A200B091A3004F
:1007800062C08091A0009091A100A091A200B091C0
:10079000A30065C08091BD009091BE00A091BF00F4
:1007A000B091C000E0CF8091BD009091BE00A091BB
:1007B000BF00B091C00047C08091BD009091BE00C5
:1007C000A091BF00B091C0004AC08091BD0090913F
:1007D000BE00A091BF00B091C00056C08091B9008A
:1007E0009091BA00A091BB00B091BC00BCCF8091A9
:1007F000B9009091BA00A091BB00B091BC0023C099
:100800008091B9009091BA00A091BB00B091BC005A
:1008100026C08091B9009091BA00A091BB00B09120
:10082000BC0032C08091B5009091B600A091B70095
:10083000B091B80098CF8091B5009091B600A0918A
:10084000B700B091B800CD01AA27BB271DC0809189
:10085000B5009091B600A091B700B091B800892F73
:100860009A2FAB2FBB2710C08091B5009091B60096
:10087000A091B700B091B80007C084B78F7083B95A
:1008800014BE03C08091A90083B985EC07C0809194
:10089000AC0083B985EC86BF13B885E886BF80912C
:1008A000F1008F5F8093F10005C086B78B7E86BF15
:1008B00085EC86BFFF91EF91BF91AF919F918F9192
:1008C0007F916F915F914F913F912F910F900FBE4C
:1008D0000F901F9018951F920F920FB60F92112430
:1008E0002F933F934F935F938F939F9399B390FD73
:1008F00002C080E001C083E091FF02C091E089273F
:1009000020919D00281B20FF1FC080939D00809197
:100910006900422F4270882349F08091E60090914F
:10092000E700242F30E02150310908C08091E60013
:100930009091E70021E030E0241B3109820F931FE2
:100940009093E7008093E60099B392959F7090FD95
:1009500002C080E001C083E091FF02C091E08927DE
:1009600020919C00281B20FF1FC080939C00809139
:1009700068002270882359F08091E4009091E5008E
:1009800041E050E0421B5109840F951F09C080913E
:10099000E4009091E50030E021503109820F931F6F
:1009A0009093E5008093E40099B39695969590FD19
:1009B00002C080E001C083E091FF02C091E089277E
:1009C00020919B00281B20FF1FC080939B008091DB
:1009D000DB002270882359F08091E2009091E300BF
:1009E00041E050E0421B5109840F951F09C08091DE
:1009F000E2009091E30030E021503109820F931F13
:100A00009093E3008093E20099B392959695969522
:100A1000937090FD02C080E001C083E0927011F0FD
:100A200091E0892720919A00281B20FF1FC0809306
:100A30009A008091DA00422F4270882349F0809119
:100A4000E0009091E100242F30E02150310908C0EE
:100A50008091E0009091E10021E030E0241B310919
:100A6000820F931F9093E1008093E0008091C90072
:100A70008F5F8093C9009F918F915F914F913F91BC
:100A80002F910F900FBE0F901F9018951F920F92ED
:100A90000FB60F9211248F939F93EF93FF935F9B59
:100AA00016C0E091FD00F091FE008CB1808381E0E2
:100AB000E236F80730F43196F093FE00E093FD0043
:100AC00006C08FEF90E09093FE008093FD00FF91B1
:100AD000EF919F918F910F900FBE0F901F901895DF
:100AE0009C018AB188618AB9579A80B5866080BDB9
:100AF00040E050E084E0220F331F441F551F8A95C9
:100B0000D1F760E079E08DE390E00E949912DA017C
:100B1000C9010197A109B109892F9A2FAB2FBB27D2
:100B2000A7FDBA9580BD215029B98FEF90E0909331
:100B3000FC008093FB009093FE008093FD000895DD
:100B40005D9BFECFFC0180818CB90895CF93DF932C
:100B50001F92CDB7DEB78983CE0101960E94A00512
:100B600080E090E00F90DF91CF910895CF93DF93D5
:100B7000EC01CE012196FC012081222319F00E9474
:100B8000A005F7CFDF91CF9108955F9BFECF8CB189
:100B900090E008950C94C5056AEC75E086EA95E04E
:100BA0000C94EB12CF93DF93FC01E253FF4FA08133
:100BB000B181EC01C453DF4F28813981A217B307FB
:100BC000A1F05D9B12C02C912CB920813181AC0128
:100BD00045535F4F2417350718F42F5F3F4F03C06D
:100BE0009C0128593F4F31832083E091FB00F09115
:100BF000FC002091FD003091FE002E173F07C1F14F
:100C0000DC01AC59BF4FCD91DC9111972081288335
:100C10006D917C9111979C012B523F4FE9013881D6
:100C2000EB012881321307C09C012C523F4FE90190
:100C300048814F5F48839C012D593F4F62177307CE
:100C400028F4EB012196CD93DC9302C08D939C9305
:100C5000D1E0E236FD0730F43196F093FC00E093EA
:100C6000FB0006C08FEF90E09093FC008093FB00A8
:100C7000DF91CF910895CF93DF93CDB7DEB7A097E3
:100C80000FB6F894DEBF0FBECDBF88E087BB8CEFF8
:100C900084BB8CEB81BB87E088BB80E482BB109275
:100CA000F00080E895E20E9470050E94CC0580E586
:100CB00082B986B78B7E86BF85EC86BF81EA8FBD01
:100CC00089E08EBD1BBC1ABC19BC18BC89E685BD69
:100CD00013BC83BF1CBE80E790E00E94681385B7F9
:100CE0008F7885BF84E089BF789422242A94312CA0
:100CF00000E010E88091F1008F3F41F48091F00016
:100D0000853A21F4F894E0E0F8E109958091FA0041
:100D1000882309F4E4C0F8948090F2009090F300E6
:100D2000A090F400B090F5006091F6007091F7008B
:100D30008091F8009091F9001092FA00789425E7DC
:100D400039E54CEC5EE30E94EC1120E030E040E03D
:100D50005FE30E94EC11A50194010E94F90F6B0161
:100D60007C01A5019401C501B4010E94F90FA701FE
:100D700096010E94F80F2AE935E34FEA55E40E94F4
:100D8000EC114B015C0126E636E749EB55E4C7015F
:100D9000B6010E94EC116B017C018091AA008823AE
:100DA000C9F18091AA0024E630E0281B3109B9017D
:100DB000882777FD8095982F0E94FF109B01AC013A
:100DC000C501B4010E94EC1120E030E048EC52E48F
:100DD0000E9464100E94CC107093D9006093D800D8
:100DE0008091AA0044E650E0481B5109BA018827C7
:100DF00077FD8095982F0E94FF109B01AC01C701E1
:100E0000B6010E94EC1120E030E048EC52E40E9470
:100E100064100AC0C501B4010E94CC107093D900BF
:100E20006093D800C701B6010E94CC107093D50022
:100E30006093D4008091AB008823C1F18091AB0016
:100E4000E4E6F0E0E81BF109BF01882777FD809513
:100E5000982F0E94FF109B01AC01C501B4010E94B4
:100E6000EC1120E030E048EC52E40E9464100E9453
:100E7000CC107093D7006093D6008091AB0064E6ED
:100E800070E0681B7109882777FD8095982F0E9474
:100E9000FF109B01AC01C701B6010E94EC1120E0DC
:100EA00030E048EC52E40E9464100AC0C501B4016D
:100EB0000E94CC107093D7006093D600C701B60192
:100EC0000E94CC107093D3006093D200F1E0F093B5
:100ED000DF00F093DE00F093DD00F093DC00809102
:100EE000C9008C3908F42EC71092C900F8942091DB
:100EF000E6003091E7003A8329834091E400509165
:100F0000E5005C834B838091E2009091E3009E8337
:100F10008D83E091E000F091E100F887EF83789411
:100F200080919800909199007901E81AF90A8091CE
:100F30009600909197006A01C81AD90A809194008E
:100F4000909195006D807E80681A790A8091920058
:100F5000909193002F01481A590AB701882777FD0D
:100F60008095982F0E94FF102AE037ED43E25CE362
:100F70000E9464100E94CC106D877E878F87988BAB
:100F8000B601882777FD8095982F0E94FF102AE0F0
:100F900037ED43E25CE30E9464100E94CC10698B41
:100FA0007A8B8B8B9C8BB301882777FD8095982F4C
:100FB0000E94FF102AE037ED43E25CE30E946410D8
:100FC0000E94CC106D8B7E8B8F8B988FB2018827FF
:100FD00077FD8095982F0E94FF102AE037ED43E2BD
:100FE0005CE30E9464100E94CC10698F7A8F8B8F13
:100FF0009C8FB7016C0D7D1D882777FD8095982FFC
:101000000E94FF102AE935E34FE256E40E94641083
:101010004B015C01B301640D751D882777FD809538
:10102000982F0E94FF1026E636E749E356E40E9417
:1010300064102B013C01A50194010E94F80F25E7E3
:1010400039E54CEC5EE30E94641069877A878B87F0
:101050009C876091B5007091B6008091B700909127
:10106000B80029853A854B855C850E94F90F6B0194
:101070007C012BED3FE049EC50E40E94E81118168A
:101080004CF42BED3FE049EC50E4C701B6010E945F
:10109000F80F12C02BED3FE049EC50ECC701B60150
:1010A0000E945D1087FF0AC02BED3FE049EC50E441
:1010B000C701B6010E94F90F6B017C01A3019201E7
:1010C000C501B4010E94F90F20E030E040E05FE389
:1010D0000E94EC114B015C014090BD005090BE009D
:1010E0006090BF007090C000C701B6010E946110FF
:1010F000A50194010E94EC119B01AC01C301B20156
:101100000E94F90F6D8F7E8F8F8F98A34090B9004A
:101110005090BA006090BB007090BC00C701B6014F
:101120000E944F12A50194010E94EC119B01AC0199
:10113000C301B2010E94F90F2B013C012AE037EDF7
:1011400043E25CE3C501B4010E9464104B015C0101
:101150002AE037ED43E25CE369857A858B859C85DF
:101160000E946410F894C092B500D092B600E0924C
:10117000B700F092B8002D8D3E8D4F8D58A1209371
:10118000BD003093BE004093BF005093C00040921A
:10119000B9005092BA006092BB007092BC004D85BD
:1011A0005E855093C8004093C700E989FA89F0939F
:1011B000C600E093C5002D893E893093C40020937A
:1011C000C300498D5A8D5093C2004093C100809254
:1011D000B1009092B200A092B300B092B4006093BC
:1011E000AD007093AE008093AF009093B000789400
:1011F00089819A819093990080939800EB81FC817A
:10120000F0939700E09396002D813E8130939500F6
:10121000209394004F8158855093930040939200FF
:1012200080918E0090918F00A0919000B0919100DC
:10123000B7FF07C0B095A095909581959F4FAF4F90
:10124000BF4F813E9242A240B105CCF08091C700D1
:101250009091C800892B99F41092EF001092EE0043
:101260001092DF008091A90080618093A900109204
:101270008E0010928F001092900010929100809139
:101280008A0090918B00A0918C00B0918D00B7FFE7
:1012900007C0B095A095909581959F4FAF4FBF4FD8
:1012A000813E9242A240B105CCF08091C500909160
:1012B000C600892B99F41092ED001092EC00109268
:1012C000DE008091A90080628093A90010928A00BC
:1012D00010928B0010928C0010928D0080918600ED
:1012E00090918700A0918800B0918900B7FF07C056
:1012F000B095A095909581959F4FAF4FBF4F813E80
:101300009242A240B105CCF08091C3009091C400FC
:10131000892B99F41092EB001092EA001092DD00F4
:101320008091A90080648093A90010928600109299
:10133000870010928800109289008091820090911D
:101340008300A0918400B0918500B7FF07C0B095DD
:10135000A095909581959F4FAF4FBF4F813E924290
:10136000A240B105CCF08091C1009091C200892BC0
:1013700099F41092E9001092E8001092DC0080913C
:10138000A90080688093A9001092820010928300C7
:1013900010928400109285008091DF00813009F066
:1013A000DBC02091D8003091D9008091D00090917D
:1013B000D1002817390711F18091D8009091D900F8
:1013C0002091D0003091D100821B930B97FF03C076
:1013D000919581959109853F914044F010928E003E
:1013E00010928F0010929000109291008091D8007E
:1013F0009091D9009093D1008093D0008091D80033
:101400009091D900892B71F41092EF001092EE00A8
:1014100010928100109280008091A9008F7E8093AD
:10142000A9009AC0A090D800B090D9008091C700C0
:101430009091C800A81AB90AB501882777FD809550
:10144000982FC0908E00D0908F00E0909000F09088
:101450009100C60ED71EE81EF91EC0928E00D092D3
:101460008F00E0929000F09291000E94FF102FE810
:1014700032EC45E75DE30E94EC112B013C01C70112
:10148000B6010E94FF102FE632E143E85AE30E94C2
:10149000EC119B01AC01C301B2010E94F90F6B0179
:1014A0007C018091800090918100B501681B790BCF
:1014B000882777FD8095982F0E94FF1020E030E06C
:1014C000A9010E94EC119B01AC01C701B6010E9469
:1014D000F90F0E94CC107093EF006093EE00B09271
:1014E0008100A09280008091EE009091EF0018168C
:1014F000190634F48091D8009091D90097FD0DC061
:101500008091EE009091EF0097FF0CC08091D80081
:101510009091D900181619062CF41093EF0000933F
:10152000EE001AC08091EE009091EF008F3F910580
:1015300031F02CF03092EF002092EE000DC080913F
:10154000EE009091EF0081309F4F34F481E09FEFE7
:101550009093EF008093EE008091DE00813009F0DF
:10156000DBC02091D6003091D7008091CE009091C1
:10157000CF002817390711F18091D6009091D7003C
:101580002091CE003091CF00821B930B97FF03C0B8
:10159000919581959109853F914044F010928A0080
:1015A00010928B0010928C0010928D008091D600CA
:1015B0009091D7009093CF008093CE008091D60079
:1015C0009091D700892B71F41092ED001092EC00ED
:1015D00010927F0010927E008091A9008F7D8093F1
:1015E000A9009AC0A090D600B090D7008091C50005
:1015F0009091C600A81AB90AB501882777FD809591
:10160000982FC0908A00D0908B00E0908C00F090D2
:101610008D00C60ED71EE81EF91EC0928A00D09219
:101620008B00E0928C00F0928D000E94FF102FE85A
:1016300032EC45E75DE30E94EC112B013C01C70150
:10164000B6010E94FF102FE632E143E85AE30E9400
:10165000EC119B01AC01C301B2010E94F90F6B01B7
:101660007C0180917E0090917F00B501681B790B11
:10167000882777FD8095982F0E94FF1020E030E0AA
:10168000A9010E94EC119B01AC01C701B6010E94A7
:10169000F90F0E94CC107093ED006093EC00B092B3
:1016A0007F00A0927E008091EC009091ED001816D2
:1016B000190634F48091D6009091D70097FD0DC0A3
:1016C0008091EC009091ED0097FF0CC08091D600C6
:1016D0009091D700181619062CF41093ED00009382
:1016E000EC001AC08091EC009091ED008F3F9105C5
:1016F00031F02CF03092ED002092EC000DC0809182
:10170000EC009091ED0081309F4F34F421E03FEFE9
:101710003093ED002093EC008091DD00813009F0E2
:10172000DBC02091D4003091D5008091CC00909105
:10173000CD002817390711F18091D4009091D50080
:101740002091CC003091CD00821B930B97FF03C0FA
:10175000919581959109853F914044F010928600C2
:101760001092870010928800109289008091D40016
:101770009091D5009093CD008093CC008091D400BF
:101780009091D500892B71F41092EB001092EA0031
:1017900010927D0010927C008091A9008F7B809335
:1017A000A9009AC0A090D400B090D5008091C30049
:1017B0009091C400A81AB90AB501882777FD8095D1
:1017C000982FC0908600D0908700E0908800F0901D
:1017D0008900C60ED71EE81EF91EC0928600D09260
:1017E0008700E0928800F09289000E94FF102FE8A5
:1017F00032EC45E75DE30E94EC112B013C01C7018F
:10180000B6010E94FF102FE632E143E85AE30E943E
:10181000EC119B01AC01C301B2010E94F90F6B01F5
:101820007C0180917C0090917D00B501681B790B53
:10183000882777FD8095982F0E94FF1020E030E0E8
:10184000A9010E94EC119B01AC01C701B6010E94E5
:10185000F90F0E94CC107093EB006093EA00B092F5
:101860007D00A0927C008091EA009091EB00181618
:10187000190634F48091D4009091D50097FD0DC0E5
:101880008091EA009091EB0097FF0CC08091D4000A
:101890009091D500181619062CF41093EB000093C4
:1018A000EA001AC08091EA009091EB008F3F910509
:1018B00031F02CF03092EB002092EA000DC08091C4
:1018C000EA009091EB0081309F4F34F481E09FEF6C
:1018D0009093EB008093EA008091DC00813009F066
:1018E000DBC02091D2003091D3008091CA0090914A
:1018F000CB002817390711F18091D2009091D300C5
:101900002091CA003091CB00821B930B97FF03C03C
:10191000919581959109853F914044F01092820004
:101920001092830010928400109285008091D20062
:101930009091D3009093CB008093CA008091D20005
:101940009091D300892B71F41092E9001092E80075
:1019500010927B0010927A008091A9008F7780937B
:10196000A9009AC0A090D200B090D3008091C1008D
:101970009091C200A81AB90AB501882777FD809511
:10198000982FC0908200D0908300E0908400F09067
:101990008500C60ED71EE81EF91EC0928200D092A6
:1019A0008300E0928400F09285000E94FF102FE8EF
:1019B00032EC45E75DE30E94EC112B013C01C701CD
:1019C000B6010E94FF102FE632E143E85AE30E947D
:1019D000EC119B01AC01C301B2010E94F90F6B0134
:1019E0007C0180917A0090917B00B501681B790B96
:1019F000882777FD8095982F0E94FF1020E030E027
:101A0000A9010E94EC119B01AC01C701B6010E9423
:101A1000F90F0E94CC107093E9006093E800B09237
:101A20007B00A0927A008091E8009091E90018165E
:101A3000190634F48091D2009091D30097FD0DC027
:101A40008091E8009091E90097FF0CC08091D2004E
:101A50009091D300181619062CF41093E900009306
:101A6000E8001AC08091E8009091E9008F3F91054D
:101A700031F02CF03092E9002092E8000DC0809106
:101A8000E8009091E90081309F4F34F421E03FEF6E
:101A90003093E9002093E8008091A900807F809333
:101AA000A9003091A90080B326B3807490E043E090
:101AB000959587954A95E1F72770282B20952F70EB
:101AC000232B2093A9008091EE009091EF002091AC
:101AD0006600309167002817390709F443C08091E8
:101AE000EE009091EF00892B19F485B3837F26C017
:101AF0008091EE009091EF008115904819F485B324
:101B00008C601CC080916900811107C08091EE003B
:101B10009091EF001816190654F0809169008823FF
:101B200051F08091EE009091EF0097FF04C085B3D3
:101B3000877F846003C085B38B7F886085BB80917D
:101B4000EE009091EF009093670080936600809183
:101B5000EE009091EF0097FF03C091958195910958
:101B60009BBD8ABD8091EC009091ED0020916400B6
:101B7000309165002817390709F443C08091EC00C3
:101B80009091ED00892B19F485B38F7C26C080914C
:101B9000EC009091ED008115904819F485B38063B5
:101BA0001CC080916800811107C08091EC00909169
:101BB000ED001816190654F080916800882351F042
:101BC0008091EC009091ED0097FF04C085B38F7D6C
:101BD000806103C085B38F7E806285BB8091EC00FD
:101BE0009091ED0090936500809364008091EC00EB
:101BF0009091ED0097FF03C091958195910999BD52
:101C000088BD8091EA009091EB00209162003091B4
:101C100063002817390709F442C08091EA009091C7
:101C2000EB00892B19F485B38F7326C08091EA00ED
:101C30009091EB008115904819F485B3806C1CC01D
:101C40008091DB00811107C08091EA009091EB0048
:101C50001816190654F08091DB00882351F080910A
:101C6000EA009091EB0097FF04C085B38F77806402
:101C700003C085B38F7B806885BB8091EA0090911B
:101C8000EB0090936300809362008091EA00909152
:101C9000EB0097FF03C091958195910983BD8091D9
:101CA000E8009091E90020916000309161002817D0
:101CB000390709F442C08091E8009091E900892B2E
:101CC00019F482B3837F26C08091E8009091E900E7
:101CD0008115904819F482B38C601CC08091DA00A1
:101CE000811107C08091E8009091E900181619064B
:101CF00054F08091DA00882351F08091E8009091AF
:101D0000E90097FF04C082B3877F846003C082B379
:101D10008B7F886082BB8091E8009091E90090936E
:101D20006100809360008091E8009091E90097FF46
:101D300003C09195819591098CBF8091AC008F5F14
:101D40008093AC0085B7806885BF889585B78F770D
:101D500085BF0C947A066F927F929F92AF92BF924A
:101D6000CF92DF92EF92FF920F931F93CF93DF9367
:101D7000CDB7DEB72C970FB6F894DEBF0FBECDBF40
:101D80008C017B013A01FC0117821682838181FF5D
:101D900019C1CE0101965C01F801D380F701D3FC93
:101DA0002591D3FE21917F01222309F407C1253219
:101DB00049F4D3FC2591D3FE21917F01253211F006
:101DC000912C1BC0B801822F90E00E943613630152
:101DD0003601E2CF222309F4F1C0622F70E08BEBD1
:101DE00091E02C870E94E0122C85892B49F0F701A5
:101DF000D3FC2591D3FE21917F0197FEEBCF0CC040
:101E0000233221F4F92DF0619F2EF1CF2C3639F4D5
:101E1000292D2068922EEBCF222309F4CFC0622F08
:101E200070E084EB91E02C870E94E0122C85892BD6
:101E300041F06301F4E0CF0ED11CB8018FE390E0D4
:101E400012C0233641F0233789F0233521F5F92DCF
:101E5000F1609F2E0BC0630122E0C20ED11CB801BD
:101E6000F301808191810E943613B2CF630122E099
:101E7000C20ED11CF30160807180F30190FC85914A
:101E800090FE81913F01882309F4A2CFB80190E030
:101E90000E943613F2CF243611F0293639F563014A
:101EA00097FE09C0F4E0CF0ED11CF301608171816F
:101EB000828193810AC0F2E0CF0ED11CF3016081D0
:101EC0007181882777FD8095982FF92DFF7E9F2EB1
:101ED00097FF09C090958095709561957F4F8F4FC2
:101EE0009F4FF0649F2E2AE030E038C02037A1F0E9
:101EF00040F42835D1F02F3609F060C028E030E0FA
:101F000019C0253719F0283751F058C0292D2F7ED8
:101F1000922E2AE030E00EC0892D8061982E992DF6
:101F20009462992E20E130E005C0E92DE4609E2EF8
:101F300020E132E0630197FE09C0F4E0CF0ED11C2E
:101F4000F301608171818281938108C0F2E0CF0E3C
:101F5000D11CF3016081718180E090E0A5010E94B5
:101F60009513782E7A1896FE05C0B8018DE290E0A0
:101F70000E94361394FE16C0FE01E70DF11D80810C
:101F8000803381F0B80180E390E00E94361392FE26
:101F900009C0292D2072822F90E0B801885A9F4FE6
:101FA0000E9436137A94F501E70DF11D8081B80186
:101FB00090E00E9436137110F5CF0ACFF8018681A8
:101FC000978102C08FEF9FEF2C960FB6F894DEBF7B
:101FD0000FBECDBFDF91CF911F910F91FF90EF907A
:101FE000DF90CF90BF90AF909F907F906F900895BB
:101FF0005058BB27AA270ED0A0C169D130F06ED1AE
:1020000020F031F49F3F11F41EF45EC10EF4E09510
:10201000E7FB54C1E92FB3D180F3BA176207730706
:102020008407950718F071F49EF5CBC10EF4E09586
:102030000B2EBA2FA02D0B01B90190010C01CA0182
:10204000A0011124FF27591B99F0593F50F4503E2D
:1020500068F11A16F040A22F232F342F4427585F1F
:10206000F3CF469537952795A795F0405395C9F737
:102070007EF41F16BA0B620B730B840BBAF09150EF
:10208000A1F0FF0FBB1F661F771F881FC2F70EC08E
:10209000BA0F621F731F841F48F487957795679561
:1020A000B795F7959E3F08F0B3CF9395880F08F04A
:1020B0009927EE0F979587950895DCD008F481E075
:1020C000089514D1E3954AC10CD037C107D140F02F
:1020D000FED030F021F45F3F19F0F0C0511172C111
:1020E000F3C04DD198F39923C9F35523B1F3951B50
:1020F000550BBB27AA2762177307840738F09F5F29
:102100005F4F220F331F441FAA1FA9F333D00E2E97
:102110003AF0E0E830D091505040E695001CCAF704
:1021200029D0FE2F27D0660F771F881FBB1F2617C9
:1021300037074807AB07B0E809F0BB0B802DBF019C
:10214000FF2793585F4F2AF09E3F510568F0B6C0B5
:1021500039C15F3FECF3983EDCF386957795679540
:10216000B795F7959F5FC9F7880F911D969587954D
:1021700097F90895E1E0660F771F881FBB1F62176C
:1021800073078407BA0720F0621B730B840BBA0B2A
:10219000EE1F88F7E095089504D06894B11112C13C
:1021A0000895F5D088F09F5790F0B92F9927B7512F
:1021B000A0F0D1F0660F771F881F991F1AF0BA950B
:1021C000C9F712C0B13081F0FCD0B1E00895F9C078
:1021D000672F782F8827B85F39F0B93FCCF3869501
:1021E00077956795B395D9F73EF49095809570955E
:1021F00061957F4F8F4F9F4F0895E89409C097FBDB
:102200003EF490958095709561957F4F8F4F9F4FCD
:102210009923A9F0F92F96E9BB279395F695879511
:1022200077956795B795F111F8CFFAF4BB0F11F4D4
:1022300060FF1BC06F5F7F4F8F4F9F4F16C088237B
:1022400011F096E911C0772321F09EE8872F762FB1
:1022500005C0662371F096E8862F70E060E02AF0F2
:102260009A95660F771F881FDAF7880F96958795DE
:1022700097F90895990F0008550FAA0BE0E8FEEFB3
:1022800016161706E807F907C0F012161306E4073A
:10229000F50798F0621B730B840B950B39F40A2633
:1022A00061F0232B242B252B21F408950A2609F411
:1022B000A140A6958FEF811D811D089597F99F6715
:1022C00080E870E060E008959FEF80EC08950024BE
:1022D0000A941616170618060906089500240A948B
:1022E00012161306140605060895EECF50D0E8F333
:1022F000E894E0E0BB279F57F0F02AED3FE049EC7F
:1023000006C0EE0FBB0F661F771F881F28F0B23A7A
:1023100062077307840728F0B25A620B730B840BB1
:10232000E3959A9572F7803830F49A95BB0F661F43
:10233000771F881FD2F79048BAC0092E0394000C6B
:1023400011F4882352F0BB0F40F4BF2B11F460FF4F
:1023500004C06F5F7F4F8F4F9F4F0895EF93E0FF53
:1023600006C0A2EA2AED3FE049EC5FEB53DEE5DF71
:102370000F90039401FC9058E6E9F1E0A4C057FDEA
:102380009058440F551F59F05F3F71F04795880FE3
:1023900097FB991F61F09F3F79F08795089512167A
:1023A00013061406551FF2CF4695F1DF08C0161626
:1023B00017061806991FF1CF8695710561050894D7
:1023C0000895E894BB2766277727CB0197F90895EE
:1023D00051DF08F48FEF08950BD0AFCF78DF28F0EE
:1023E0007DDF18F0952309F069CF6ECF1124EACF75
:1023F000C6DFA0F3959FD1F3950F50E0551F629F64
:10240000F001729FBB27F00DB11D639FAA27F00D4D
:10241000B11DAA1F649F6627B00DA11D661F829F74
:102420002227B00DA11D621F739FB00DA11D621F59
:10243000839FA00D611D221F749F3327A00D611D76
:10244000231F849F600D211D822F762F6A2F112458
:102450009F5750408AF0E1F088234AF0EE0FFF1FAB
:10246000BB1F661F771F881F91505040A9F79E3FE2
:10247000510570F023CFA6CF5F3FECF3983EDCF31D
:10248000869577956795B795F795E7959F5FC1F71F
:10249000FE2B880F911D9695879597F908959F9328
:1024A00025DF0F9007FCEE5F59CF9F3F31F0915031
:1024B00020F4879577956795B795880F911D969528
:1024C000879597F908959F938F937F936F93FF93C9
:1024D000EF939B01AC0180DFEF91FF9105D02F912D
:1024E0003F914F915F9178CFDF93CF931F930F93DD
:1024F000FF92EF92DF927B018C01689405C0DA2E87
:10250000EF0176DFFE01E894A59125913591459183
:102510005591AEF3EF017EDDFE019701A801DA943B
:1025200079F7DF90EF90FF900F911F91CF91DF919E
:102530000895052E97FB1EF400940E94B01257FDDB
:1025400007D00E94BE1207FC03D04EF40C94B012C8
:1025500050954095309521953F4F4F4F5F4F0895CF
:1025600090958095709561957F4F8F4F9F4F0895FF
:10257000EE0FFF1F0590F491E02D0994A1E21A2EB1
:10258000AA1BBB1BFD010DC0AA1FBB1FEE1FFF1F17
:10259000A217B307E407F50720F0A21BB30BE40B67
:1025A000F50B661F771F881F991F1A9469F76095AE
:1025B0007095809590959B01AC01BD01CF01089568
:1025C000FC010590061621F00020D9F7C0010895FE
:1025D0003197CF0108950F931F93CF93DF93EC01B1
:1025E0008B01009731F46115710519F480E090E0DA
:1025F00038C06EE070E081E090E00E94F313FC01CF
:102600000097A1F380E883830115110571F013870A
:10261000028781E883838091660190916701892B0D
:1026200021F4F0936701E09366012097C9F0D18708
:10263000C087838182608383809168019091690162
:10264000892B71F4F0936901E093680180916A012C
:1026500090916B01892B21F4F0936B01E0936A0157
:10266000CF01DF91CF911F910F9108950F931F9389
:10267000CF93DF93182F092FEB018B8181FD03C0CE
:102680008FEF9FEF20C082FF10C04E815F812C81B1
:102690003D81421753077CF4E881F9819F012F5F48
:1026A0003F4F39832883108306C0E885F985812F41
:1026B0000995892B29F72E813F812F5F3F4F3F835B
:1026C0002E83812F902FDF91CF911F910F9108952D
:1026D0000F931F93CF93DF93E0916801F09169010D
:1026E000238121FF1BC0EC0100E010E08991609183
:1026F000680170916901DB011896ED91FC911997C1
:10270000882331F00995892B89F30FEF1FEFEECF66
:102710008AE00995892B11F4C80102C08FEF9FEF61
:10272000DF91CF911F910F910895FA01AA272830C8
:1027300051F1203181F1E8946F936E7F6E5F7F4F8E
:102740008F4F9F4FAF4FB1E03ED0B4E03CD0670F0A
:10275000781F891F9A1FA11D680F791F8A1F911D5D
:10276000A11D6A0F711D811D911DA11D20D009F4AD
:1027700068943F912AE0269F11243019305D3193EF
:10278000DEF6CF010895462F4770405D4193B3E0D8
:102790000FD0C9F7F6CF462F4F70405D4A3318F07F
:1027A000495D31FD4052419302D0A9F7EACFB4E030
:1027B000A6959795879577956795BA95C9F70097E8
:1027C0006105710508959B01AC010A2E0694579589
:1027D000479537952795BA95C9F7620F731F841FE0
:1027E000951FA01D08950F931F93CF93DF93869F8E
:1027F0008001879F100D969F100D1124C8010E9423
:102800000F14EC01009729F0A80160E070E00E942D
:102810003615CE01DF91CF911F910F910895CF937F
:10282000DF938230910510F482E090E0E0916E0138
:10283000F0916F0120E030E0A0E0B0E0309739F196
:102840004081518148175907B8F04817590771F46A
:1028500082819381109729F013969C938E931297FF
:102860002CC090936F0180936E0127C02115310514
:1028700031F04217530718F0A901DB0101C0EF0145
:102880009A01BD01DF010280F381E02DD7CF211530
:102890003105F9F0281B390B2430310580F48A8189
:1028A0009B816115710521F0FB019383828304C034
:1028B00090936F0180936E01FE01329644C0FE0139
:1028C000E20FF31F819391932250310939832883BA
:1028D0003AC020916C0130916D01232B41F420917D
:1028E0006C0030916D0030936D0120936C0120914C
:1028F0006A0030916B002115310541F42DB73EB7C8
:1029000040916E0050916F00241B350BE0916C01DB
:10291000F0916D01E217F307A0F42E1B3F0B28176F
:10292000390778F0AC014E5F5F4F2417350748F048
:102930004E0F5F1F50936D0140936C0181939193F3
:1029400002C0E0E0F0E0CF01DF91CF910895CF9396
:10295000DF93009709F487C0FC013297138212823B
:10296000C0916E01D0916F01209781F42081318157
:10297000280F391F80916C0190916D018217930788
:1029800079F5F0936D01E0936C016DC0DE0120E0FC
:1029900030E0AE17BF0750F412964D915C9113973B
:1029A0009D014115510509F1DA01F3CFB383A283EB
:1029B00040815181840F951F8A179B0771F48D9177
:1029C0009C911197840F951F029691838083129694
:1029D0008D919C911397938382832115310529F45E
:1029E000F0936F01E0936E013EC0D9011396FC9302
:1029F000EE9312974D915D91A40FB51FEA17FB0757
:102A000079F480819181840F951F0296D9011196E6
:102A10009C938E938281938113969C938E931297AD
:102A2000E0E0F0E08A819B81009719F0FE01EC0163
:102A3000F9CFCE01029628813981820F931F209110
:102A40006C0130916D012817390769F4309729F42A
:102A500010926F0110926E0102C013821282D09305
:102A60006D01C0936C01DF91CF910895DC0101C02D
:0E2A70006D9341505040E0F70895F894FFCF69
:102A7E0000800080008000800101000070012000B5
:0A2A8E000D0A53746172740D00000C
:00000001FF
